:020000040800F2
:10000000102600200D0200083F35000825300008AA
:100010003D35000801040008895E0008000000006A
:100020000000000000000000000000007D4100080A
:100030001D05000800000000073600087F41000889
:1000400027020008270200082702000827020008EC
:1000500027020008270200082702000827020008DC
:1000600027020008270200082702000849040008A8
:1000700027020008270200082702000827020008BC
:1000800027020008270200082702000827020008AC
:10009000270200082702000827020008270200089C
:1000A00027020008DD420008270200082702000896
:1000B000270200082702000827020008270200087C
:1000C000270200082702000827020008270200086C
:1000D000270200082702000827020008270200085C
:1000E000270200082702000827020008270200084C
:1000F000270200082702000827020008270200083C
:10010000270200082702000827020008270200082B
:10011000270200082702000827020008270200081B
:10012000550400082702000827020008610400089F
:1001300027020008270200082702000827020008FB
:10014000270200082702000827020008653500087A
:10015000270200086D040008270200082702000893
:1001600027020008270200082702000827020008CB
:1001700027020008270200082702000800000000EC
:1001800027020008270200082702000827020008AB
:10019000270200082702000827020008270200089B
:1001A000270200082702000827020008270200088B
:1001B000270200082702000827020008270200087B
:1001C000270200082702000800000000270200089C
:1001D000270200082702000827020008270200085B
:1001E000270200082702000827020008270200084B
:1001F0002702000827020008DFF80CD000F07AF888
:1002000000480047FD5E0008102600200648804791
:1002100006480047FEE7FEE7FEE7FEE7FEE7FEE7EB
:10022000FEE7FEE7FEE7FEE789420008F901000865
:100230002DE9F05F0546002092469B46884606461B
:10024000814640241BE0284641464746224600F0AE
:1002500041F853465A46C01A914110D311461846E8
:10026000224600F028F82D1A67EB01084F46224677
:100270000120002100F01FF817EB00094E41201E5D
:10028000A4F10104DFDC484631462A464346BDE876
:10029000F09F40EA01039B0703D009E008C9121F41
:1002A00008C0042AFAD203E011F8013B00F8013B30
:1002B000521EF9D27047202A04DB203A00FA02F1DC
:1002C000002070479140C2F1200320FA03F3194344
:1002D00090407047202A04DB203A21FA02F00021E6
:1002E000704721FA02F3D040C2F120029140084346
:1002F00019467047064C074D06E0E06840F00103E0
:1003000094E8070098471034AC42F6D3FFF778FF23
:10031000086000082860000870B58C1810F8015BB0
:1003200015F0070301D110F8013B2A1106D110F88E
:10033000012B03E010F8016B01F8016B5B1EF9D192
:100340002B0705D40023521E0DD401F8013BFAE718
:1003500010F8013BCB1A921C03E013F8015B01F883
:10036000015B521EF9D5A142D8D3002070BD000018
:100370000146014802F090B89C010020044810B5E5
:1003800002F09CF8042801D0012010BD002010BD0F
:100390009C01002038B501208DF800009DF8000078
:1003A000012801D0022038BD064802F09DF8040063
:1003B00006D104484FF4006101F034FF00B101247C
:1003C000204638BD9C01002013460A4610B5002483
:1003D0000146034802F008F900B10124204610BD8F
:1003E0009C01002013460A4610B50024014603482C
:1003F00002F076F900B10124204610BD9C010020D6
:10040000FEE70020704700207047000005490022E9
:10041000054810B504F08CFB0449034804F082FB46
:10042000002010BDE00F0020E0190020E0070020B0
:100430000146044810B504F075FB024804F054FB73
:10044000002010BDE0190020014800F08DB8000028
:1004500060060020014800F087B80000C0060020B8
:10046000014800F081B8000020070020014800F09A
:100470007BB800008007002001681823CAB2103A38
:10048000B2FBF3F2054B6FF30901032A9B5CC365D2
:1004900000D9091D8165084670470000D45F000837
:1004A00010B583694FF0C074826A0146002053B1D1
:1004B000B3F5005F15D072B1012A0CD0022A0AD020
:1004C000032A09D104E01AB1012A06D0022A03D175
:1004D000C96AC90100D5012010BDC96AA142FAD07C
:1004E00010BD002AF7D0012AF2D0022AF3D0032A45
:1004F000F3D010BD30B50468256825F4802525604B
:10050000046863608368402B036803D099600068C7
:10051000C26030BD9A600068C16030BD7047002283
:10052000AFF300800E4B70B505465C7A0120002CBD
:1005300014D15E7A03F108009C555E7A03EB8606BF
:1005400075605D7A2A54587A421C5A723A232F22D7
:10055000303008704B7020468A70CC7070BD00003F
:1005600004200020406D70472DE9F84304464FF009
:100570000009644B0820CDF800904FF41652A56D89
:1005800094F85C101B682E68B3FBF2F700FA01F1D7
:1005900031420FD021680A6852070BD50A6822F051
:1005A00004020A6094F85C108840A860606D40F016
:1005B0000100606594F85C104FF0010808FA01F042
:1005C000304208D021684969090604D5A860606DE9
:1005D00040F00200606594F85C10042088403042CE
:1005E00008D021680968890704D5A860606D40F0CB
:1005F0000400606594F85C1010208840304218D0E8
:1006000021680968090714D5A860206801684903B2
:1006100004D50068000308D5A16C07E00168C9058E
:1006200003D4016821F008010160216C09B1204662
:10063000884794F85C1020208840304231D02168EF
:100640000968C9062DD5A86094F8350005282068EA
:10065000016806D0490347D5006800031DD4616CCA
:100660001CE021F0160101602068416921F0800141
:100670004161206C08B9A06C20B12068016821F0AC
:100680000801016094F85C303F229A40AA6084F827
:10069000349084F83580216D1FE0E16B09B120466C
:1006A0008847606D00282BD0606DC00714D00520EE
:1006B00084F835002068016821F00101016000988C
:1006C000401C0090B84203D820680068C007F6D1EB
:1006D00084F8349084F83580E16C002910D001B0A2
:1006E0002046BDE8F04308470168C905D5D4036832
:1006F00023F01003036084F8349084F83580CCE74D
:10070000BDE8F883740000202DE9F047044600F0AE
:10071000B3F9054664B14FF0000984F83490022122
:1007200084F835102068016821F0010101600EE0B5
:100730000120BDE8F08700BF00F09EF9401B0528AE
:1007400005D920216165032084F83500F1E7206890
:100750000068C007F0D1D4E90020D4E90251D4E9FF
:10076000043C284304F1180519430843116895E82F
:10077000E00140EA0C001C4B2843194040EA060007
:1007800040EA0700B8F1040F40EA010003D1D4E9C0
:100790000B1319430843106020680126656A4069FD
:1007A000042D20F0070045EA00050CD1D4E90A0128
:1007B000054341B12046FFF773FE20B1402060653C
:1007C00084F83560B4E7206845612046FFF754FEA1
:1007D00094F85C303F229A408260C4F8549084F8C8
:1007E00035600020A5E700003F8010E02DE9F041D2
:1007F000044690F8340000250128A66D0ED094F828
:1008000035C00127002084F83470BCF1010F07D0F7
:10081000022584F834002846BDE8F0810220FBE779
:10082000022784F8357060652046FFF763FE94F870
:100830005C103F208840B0602068016841F01601DC
:1008400001602068416941F080014161206C20B164
:100850002068016841F0080101602068016841F0EA
:1008600001010160D7E7000070B5044600F004F90B
:100870000546601C02D004480078044400F0FCF8EF
:10088000401BA042FAD370BD000000202DE9F84FB4
:10089000DFF89CE100224FF001084FF0030B4FF00E
:1008A0000F0A00BF0B6808FA02F42340A34271D17B
:1008B0004D68022D01D0122D0FD1D5080E695707B2
:1008C00000EB8505A9462D6AFF0E0AFA07FCBE401B
:1008D00025EA0C052E43C9F820600F7955000668FB
:1008E0000BFA05FC07F0030726EA0C06AF40374376
:1008F00007604E68012E05D0022E03D0112E01D0C4
:10090000122E0ED18668CF6826EA0C06AF40374318
:10091000876046680F79A643C7F3001797403743AF
:100920004760C4688E6824EA0C04AE402643C66063
:100930004C68E40075D53F4C256845F4804525603A
:10094000246822F00306950704F4804400943A4C8E
:100950002D0F2644D6F80848DFF8E0C00AFA05F75C
:10096000604524EA070401D100272EE0344FB84245
:1009700001D1012729E0334FB84201D1022724E0F9
:10098000314FB84201D103271FE0304FB84202D1A6
:1009900004271AE045E02E4FB84201D1052714E0A4
:1009A0002C4FB84201D106270FE02B4FB84201D19E
:1009B00007270AE0294FB84201D1082705E0284F50
:1009C000B84201D1092700E00A27AF402743754606
:1009D000C6F808784E68DEF80040F60324EA0304FF
:1009E00000D51C43124E2C60361D4D683468AD0393
:1009F00024EA030400D51C430D4F346008374D68CA
:100A00003C68ED0224EA030400D51C43084D3C6019
:100A10000C354E682C68B60224EA030400D51C434A
:100A20002C60521C102AFFF43DAFBDE8F88F000087
:100A3000003C0140443802400030014000000240C8
:100A40000004024000080240000C02400010024076
:100A50000014024000180240001C02400020024026
:100A60000024024042694A40426170470AB18161F4
:100A700070470904FBE700000148806870470000E8
:100A80000000002010B5040003D094F8690010B1F4
:100A900007E0012010BD002084F86800204602F025
:100AA000E9F9242084F869002068016821F0010137
:100AB0000160204603F03EFD0128EBD0606A10B1D2
:100AC000204603F0B3FC2068416821F49041416066
:100AD0002068816821F0220181602068816841F0EE
:100AE000080181602068016841F001010160204631
:100AF000BDE8104003F0FEBC024881680278114452
:100B00008160704700000020032010B500F080F8DD
:100B1000002000F005F800F023F8002010BD0000D0
:100B200070B50D4D04464FF47A700C4A297812685E
:100B3000B0FBF1F0B2FBF0F001F0CFFF48B9102CA0
:100B400007D200222146501E00F042F800206C60BF
:100B500070BD012070BD0000000000207400002066
:100B6000032010B500F054F800226FF00B0011467E
:100B700000F02EF800226FF00A00114600F028F86D
:100B800000226FF00900114600F022F80022501FE9
:100B9000114600F01DF80022101F114600F018F851
:100BA0000022901E114600F013F80022BDE810400C
:100BB000501E114600F00CB8410900F01F028900D8
:100BC000012001F1E0219040C1F8000170470000D0
:100BD0000E4BF0B41B680D46C3F30223C3F10706A6
:100BE000042E00D90426191D072901D2002300E094
:100BF000DB1E012404FA06F19C40491E2940641EB4
:100C0000994014402143F0BC02F09ABC0CED00E086
:100C1000064900F0070210B54FF6FF040868044BC0
:100C2000204040EA02201843086010BD0CED00E0AF
:100C30000000FA0501680123C0F8F433002280F8AF
:100C4000EC238869044A40F000608861486D1043D5
:100C500048650020704700000300001070B5164D75
:100C60000446A1B1012911D12068D0F8001E41F03D
:100C70000101C0F8001ED4F8FC0304F0DAFA206A7F
:100C8000002803D0286840F00600286070BD206A64
:100C900028B103F07BFA286820F00600286020685D
:100CA000D0F8001E21F00101C0F8001ED4F8FC03AA
:100CB000BDE8704004F04DBA10ED00E000684162FC
:100CC00000207047F0B503684FF000005C6A31B156
:100CD0009F6A4D1E4FF4827604EB17440BE044EA02
:100CE0000240986210E0471C06EB800053F800C0F9
:100CF000F8B204EB1C44A842F5DB4FF4807000EB23
:100D0000810044EA02421A500020F0BDD0F8FC03F2
:100D100004F079B9C1EBC10200EB8202D0F8FC0308
:100D2000526C04F0E6B8C1EBC10200EB8202D0F8CD
:100D3000FC03D2F8042204F031B9D0F8FC0304F02B
:100D400064B901F07F030A4610B504460806C3EBF8
:100D5000C30004EB800101D5383101E001F5FC71DD
:100D6000D0090B70487094F8B803012809D001200D
:100D700084F8B803206804F08DFC002084F8B803E0
:100D800010BD022010BD70B5044640680A4601F04F
:100D90000F01814201D9012070BD110602F07F00D0
:100DA00005D5C0EBC00104EB8101383105E0C2EB91
:100DB000C20104EB810101F5FC710025D2098D709F
:100DC00008704A7094F8B803012809D0012084F80B
:100DD000B803206804F027FE002084F8B85370BDE3
:100DE000022070BD01F00F01C1EBC10100EB8100D9
:100DF000B0F8100280B2704770B50D46044605F099
:100E00007F000906C0EBC00104EB810101D5383138
:100E100001E001F5FC71ED098A60CB704D7008703E
:100E200000D0C880022B4FF0000500D10D7194F85E
:100E3000B803012809D0012084F8B803206804F021
:100E40007BFB284684F8B85370BD022070BD70B596
:100E500001F07F050C460026C5EBC50100EB8101C2
:100E6000C1F80422C1E9833681F8F96181F8F851AB
:100E700001F5FC710369012B00D10A616206027C55
:100E8000006803D004F030FE002070BD04F00CFDBB
:100E9000FAE770B5044640680D4601F00F01814243
:100EA00001D9012070BD290605F07F0005D5C0EBF2
:100EB000C00104EB8101383105E0C5EBC50104EB4D
:100EC000810101F5FC710122EB098A7008704B70F9
:100ED00094F8B803012807D084F8B823206804F0F8
:100EE000D4FD680602D007E0022070BD217C04F525
:100EF0006F72206804F078FD002084F8B80370BD9C
:100F00002DE9F04101F07F050C460026C5EBC50137
:100F1000012700EB81014A64C1E9133681F8397079
:100F200001F8385F0369012B00D10A616206027C77
:100F3000006804D004F0D8FD0020BDE8F08104F082
:100F4000B3FCF9E72DE9F84F044600680026054692
:100F500004F01FFF00287CD1206804F044FF002823
:100F600077D0206804F03FFF800702D52168022077
:100F70004861206804F037FF01034FF0010A04F5CF
:100F80006F704FF0080B4FF0000900906ED520688D
:100F900004F00AFF074667E0F80763D02068F1B263
:100FA00004F019FF8046C00733D005EB4610C0F8A7
:100FB00008AB216901291CD1D5F8081B090406D505
:100FC0004FF40041C0F8081B2169012911D1D0F864
:100FD000102BC6EBC60104EB8100C2F31202D0F85D
:100FE00000128A1AC0F81022D0F804221144C0F866
:100FF00004122046F1B2FFF796FE2069012808D1BD
:101000003EB9D4F80C0220B920680121009A04F0FE
:10101000EBFC5FEA087013D52069012809D1D5F8E7
:10102000080B000405D505EB46114FF40040C1F84C
:10103000080B204600F018FB05EB4611C1F808BB71
:101040005FEAC86004D505EB46111020C1F8080B13
:1010500000E015E25FEA886004D505EB4611202028
:10106000C1F8080B7F08761C002F95D1206804F08A
:10107000BAFE40035DD5206804F08FFE00260746C7
:1010800055E0F80751D02068F1B204F094FE804694
:10109000C00724D0D5F8342805EB46130AFA06F029
:1010A0008243C5F83428C3F808A92069012807D16C
:1010B000C6EBC60004EB8000D0E910211144416466
:1010C0002046F1B2FFF726FE2069012807D136B984
:1010D000E06C20B920680121009A04F085FC5FEAE9
:1010E000087003D505EB4611C1F808B95FEAC8607E
:1010F00004D505EB46111020C1F808095FEA4860E5
:1011000004D505EB46114020C1F808095FEA887054
:1011100004D505EB46110220C1F808095FEA086012
:1011200003D53146204602F023FA7F08761C002FB3
:10113000A7D1206804F057FE002811DAD5F804087A
:1011400020F00100C5F8040894F8EC03012838D019
:10115000204600F06FFA00BF21684FF00040486160
:10116000206804F040FE00050AD5D5F80808C0073D
:1011700002D0204600F094FA21684FF400604861E4
:10118000206804F030FE000109D521684FF00060AE
:10119000486194F8EC03D8B1204600F081FA206849
:1011A00004F021FEC0046BD5D5F8040820F001003E
:1011B000C5F804082068102104F0BAFD0021FF22C0
:1011C00027E00021204684F8EC93FFF747FDC3E7B2
:1011D00084F8ECA32068406D0121C0F38300C4F8BB
:1011E000F0032046FFF73AFDD9E700BF05EB4110B9
:1011F000C0F80829D0F8003923F40013C0F80039EA
:10120000C0F8082BD0F8003B23F40013C0F8003BD3
:10121000491C60688842E9D84FF0FF30C5F81808CB
:10122000D5F81C0840F00110C5F81C08206B60B10F
:10123000D5F8840840F00B00C5F88408D5F84408B8
:1012400040F00B00C5F844080BE0D5F8140840F056
:101250002B00C5F81408D5F8100840F00B00C5F8AD
:101260001008D5F8000820F4FE60C5F80008217CBD
:101270002068009A04F0B8FB21684FF48050486160
:10128000206804F0B0FD80047CD5206804F094F957
:101290002068C16821F47051C160206804F05AFDD3
:1012A00078B10321E1604020606100F07BFD754A68
:1012B000754902448A420AD22068C16841F47051DB
:1012C00058E0C4F80C904FF40071616136E06F4A49
:1012D0006F4902448A4204D22068C16841F46051D7
:1012E00048E06C4A6C4902448A4204D22068C168D2
:1012F00041F450513EE0694A694902448A4204D2AD
:101300002068C16841F4405134E06649664A0144AE
:10131000914204D22068C16841F430512AE0634A06
:10132000634902448A4204D22068C16841F42051D2
:1013300020E0604A604902448A4204D22068C168C1
:1013400041F4105116E05D495D4A0144914204D2D6
:101350002068C16841F400510CE05A495A4A0844D7
:1013600090422068C16803D241F4E05102E009E0F4
:1013700041F4C051C160204600F04CF921684FF49F
:1013800000504861206804F02EFDC00637D5206863
:10139000816921F010018161D5F8208008F00F01EA
:1013A000C8F34340C1EBC101022804EB810707F5F4
:1013B000FC7702D0062813D01CE047F6F07118EA3B
:1013C000010F17D0C8F30A12F9689046284604F0B6
:1013D0000EFDB969F8684144B9614044F86009E01C
:1013E00000990822284604F002FDB969C8F30A10E2
:1013F0000844B8612068816941F01001816120686A
:1014000004F0F1FC000705D5204600F017F921682B
:10141000C1F814B0206804F0E6FCC00207D52046ED
:10142000F1B200F053F821684FF480104861206851
:1014300004F0D9FC800207D52046F1B200F04AF84A
:1014400021684FF400104861206804F0CCFC400093
:1014500006D52046FFF75AFC21684FF080404861CE
:10146000206804F0C0FC40070AD52068456868077A
:1014700002D52046FFF761FC20684168294341609E
:10148000BDE8F88F405327FF00350C00401E1BFFBE
:1014900040420F0000DC0BFF804F1200808CF9FEF1
:1014A00020D6130060B6E5FE60E3160000D3CEFE42
:1014B00040771B00C05BB3FEC091210000CA91FEC3
:1014C00020753800E05459FEE09C4100D0F8FC0340
:1014D00003F0F8BDD0F8FC0303F0F6BDF0B504004E
:1014E0004FF000068BB056D0032084F8B903204695
:1014F00000F05CF8206804F0D1F904F110016846AE
:1015000028220F46FEF7C5FE94E80F0004F06EF89F
:101510002068002104F07AFC012500223146C6EB48
:10152000C600761C04EB80000F2E80F8395080F83E
:101530003810C18780F83B2002644264C264EDD356
:1015400000204FF4827300BFC0EBC00103EB8006A4
:1015500004EB810181F8F92181F8F801C88781F84D
:10156000FB21C1F80022C1F80422C1F80C22216835
:101570008A51401C0F28E7D3282239466846FEF7D7
:1015800088FE94E80F0004F0D5F8606A84F8B95337
:10159000012803D005E001200BB0F0BD2046FFF785
:1015A00049FB206804F0B9F80020F5E710B50068A1
:1015B00086B0B0F1A04F26D10221002203230A24D5
:1015C0004FF4C0508DE81F0010486946FFF75EF9E0
:1015D0000F48016841F080010160006800F0800060
:1015E00005900B481030016841F4804101600068AB
:1015F0000022114600F4804005904320FFF7E8FAEE
:101600004320FFF7D9FA06B010BD000000000240E9
:101610003438024010B50446C068012100B90021E9
:10162000D4F8FC0303F0A7FDD4F8FC03BDE8104098
:1016300003F06FBDD0F8FC0303F08BBDD0F8FC03C2
:1016400003F08DBD10B5044690F8B803012809D009
:10165000012084F8B803206804F0EEFB002084F831
:10166000B80310BD022010BDD0F8FC2300F56F7147
:10167000104603F093BD10B5044690F8B803012856
:101680000CD0012084F8B803206804F03AF82068F0
:1016900004F038FB002084F8B80310BD022010BD10
:1016A00010B50446D0F8FC0303F0C3FD2068D0F861
:1016B000001E41F00101C0F8001E206A002804D07D
:1016C0000248016841F00601016010BD10ED00E024
:1016D0001848F8B5016841F0805101600068164C67
:1016E00000F080500090206840F480302060FFF7C8
:1016F000C3F94FF47A76054605E000BFFFF7BCF961
:10170000401BB0420FD86068C003F7D5206840F492
:1017100000302060FFF7B0F9054606E0FFF7ACF9AE
:10172000401BB04201D90320F8BD60688003F5D5A5
:101730000020F8BD40380240007000402DE9F84F0D
:1017400004460078DFF824944FF000063746C007BF
:101750000ED0D9F8001021F40001C9F80010D9F812
:101760000010626B1143C9F80010606B00B90126CC
:10177000FE4D2068843500030ED5E16B286820F407
:10178000401008432860E06BB0F5801F01D010B115
:1017900002E0012600E0012720684FF4800BC00220
:1017A0000CD5216C286820F4400008432860206C88
:1017B000584501D1012601E000B901272068C10187
:1017C00000D50126800666D5E8483830016841F02A
:1017D000805101600068DFF898A300F0805000900D
:1017E000DAF8001041F48071CAF80010FFF744F9EC
:1017F000804605E0FFF740F9A0EB080064287DD89B
:10180000DAF80000C005F5D5DFF8608308F1680854
:10181000D8F8000010F440702AD0218E01F44071F5
:10182000814225D0D8F80010D8F8002021F440716A
:1018300042F48032C8F80020D8F8002022F4803228
:10184000C8F80020C8F80010D8F80000C0070FD072
:10185000FFF712F9824607E0FFF70EF9A0EB0A0145
:1018600041F288308142CAD8D8F800008007F3D509
:10187000206BC0F3012103297ED0D9F8001021F498
:10188000F811C9F80010228ED8F80010C2F30B022C
:101890001143C8F800102078C00607D5286820F04A
:1018A000807028602868A16B084328602188AF48B1
:1018B0008830490405D5626E016821F44031114336
:1018C00001602188090405D5A26E016821F4402138
:1018D000114301602168C90305D5E26E016821F456
:1018E0004011114301602168890305D5226F016809
:1018F00021F4400111430160217800E034E1490600
:1019000005D5626C016821F0030111430160217863
:10191000090605D5A26C016821F00C011143016094
:101920002188C90505D5E26C016821F03001114319
:1019300001602188890505D5226D016821F0C0016B
:10194000114301602188490505D5626D016821F4C4
:101950004071114301602188090505D5A26D016818
:1019600021F44061114301602188C90407D5E26D6B
:10197000016821F4405100E05FE0114301602188DB
:10198000890405D5226E016821F4404111430160AC
:101990002168490205D5A26F016821F080611143D9
:1019A000016021684FF0006A890209D5E26F016881
:1019B00021F0006111430160E16F514500D1012721
:1019C00021680A0700D50127490305D5626F016820
:1019D00021F04071114301602168090206D5D4F855
:1019E0008020016821F08051114301602168490184
:1019F00006D5D4F88420016821F00051114301601C
:101A00002068000106D5D4F88810286820F00070FE
:101A1000084328602068C00006D5D4F88C102868D8
:101A200020F0806008432860DFF84891012E0ED036
:101A30002068B0F1007F0AD08FE04F4AD9F800301B
:101A4000104023F4F8120243C9F800201BE7D9F82C
:101A500000004E4620F08060C9F80000FFF70CF847
:101A6000804605E0FFF708F8A0EB080064287BD863
:101A700030680001F6D421783C487C30C90712D088
:101A8000616B81B9237A62680168D0F800C0920165
:101A9000C1F3014142EA0142CCF3036142EA016130
:101AA00041EA0371016021680A0303D5E26BB2F5D4
:101AB000801F04D0C9021AD5216C594517D163681B
:101AC000016894F80CC002689B01C1F3014143EA2C
:101AD0000141C2F3027241EA0C6141EA0271016004
:101AE0002968626A21F01F01521E11432960216892
:101AF000C90110D5238A62680168D0F800C092013C
:101B0000C1F3036142EA034242EA0162CCF302718B
:101B100042EA01710160216889010CD56168228A5D
:101B2000237B94F808C0890141EA024141EA03613C
:101B300041EA0C7101603168B04641F0806131606A
:101B4000FEF79AFF064604E0FEF796FF801B642826
:101B50000AD8D8F800000001F6D5E7B3D9F800009C
:101B60004E4620F0805009E07BE00000083802403B
:101B70000070004000380240FFFCFF0FC9F8000071
:101B8000FEF77AFF074604E0FEF776FFC01B6428E5
:101B900067D83068C0438000F6D5216835480A030D
:101BA00001D5E26B1AB1C9021DD5216CD9B963699F
:101BB0000168277E02689B01C1F3014143EA0143AA
:101BC000C2F3027143EA076242EA017101602968C7
:101BD0006FF0FF0300E04BE0A26A21F4F85103EB41
:101BE0000222114329602168890212D5E16F514513
:101BF0000FD1238C6269016807689201C1F3036108
:101C000042EA034242EA0162C7F3027142EA017109
:101C100001602178090716D561690268D0F800C013
:101C20008B01277FC2F30362CCF3014143EA0141F8
:101C300041EA026141EA077101602868E16A20F423
:101C4000403008432860306840F080503060FEF734
:101C500013FF044608E000BFFEF70EFF001B6428D8
:101C600002D90320BDE8F88F3068C0438000F3D468
:101C70000020F7E7883802402DE9F04705000F46BD
:101C800063D0444E306800F00F00B84209D230688B
:101C900020F00F0038433060306800F00F00B84289
:101CA00053D128683C4C810712D5400703D52068E2
:101CB00040F4E05020602878000703D5206840F405
:101CC00060402060A968206820F0F0000843206090
:101CD0002878C0072AD0304968680839012810D010
:101CE0000968022810D0890700292EDA216821F01E
:101CF000030101432160FEF7BFFE804641F28839AF
:101D00000DE009688903EFE78901EDE7FEF7B4FE0E
:101D1000A0EB0801494502D90320BDE8F0876868B7
:101D2000216801F00C01B1EB800FEFD1306800F0B9
:101D30000F00B8420BD9306820F00F0038433060F4
:101D4000306800F00F00B84201D00120E5E72878A4
:101D5000400705D5E968206820F4E050084320607A
:101D60002878000706D52869216821F4604141EAF6
:101D7000C000206000F03CF82168084AC1F303115C
:101D8000515CC840064908600020FEF7C9FE0020EB
:101D9000C3E70000003C024008380240F05F000842
:101DA00074000020014800687047000074000020A3
:101DB0000449054809680068044AC1F38221515C5E
:101DC000C8407047083802407400002000600008D6
:101DD0000449054809680068044AC1F34231515C6E
:101DE000C8407047083802407400002000600008B6
:101DF000154910B51548096811F00C0213D01449A3
:101E0000042A0FD0082A0ED10F4C241F2268236801
:101E100002F03F025B0207D52068C0F38810A0FBE8
:101E2000010106E0084610BD2168C1F38811A1FB3D
:101E300000010023FEF7FCF92168C1F30141491CB0
:101E40004900B0FBF1F010BD083802400024F40056
:101E50000080BB00F0B50D461F49204C002887B01C
:101E600016464FF000004FF002020F684FF00303D8
:101E700019D047F004070F60096801F004010591CB
:101E800011020091CDE90120CDE9033014486946E3
:101E9000FEF7FCFC206845EAC60120F078400843C4
:101EA000206007B0F0BD47F001070F60096801F03E
:101EB000010105914FF480710091CDE90120CDE938
:101EC000033008486946FEF7E1FC2068354320F0FE
:101ED000EC602843E4E70000303802400838024054
:101EE00000080240000002402DE9F84F05004FF0C5
:101EF00000076ED02878DFF82093A9F1040AC00704
:101F0000AAF104044CD0D9F800104846C1F381016D
:101F1000012908D00068C0F3810002280AD1DAF84C
:101F20000000400206D52068800339D56868002883
:101F3000DFD035E06868B0F5803F0BD010B1B0F568
:101F4000A02F11D0206820F480302060206820F479
:101F5000802002E0206840F480302060686890B102
:101F6000FEF78AFD06460AE0206840F480202060E3
:101F7000F0E700BFFEF780FD801B642872D8206860
:101F80008003F7D50CE0FEF777FD064605E000BFBD
:101F9000FEF772FD801B6428F0D820688003F7D418
:101FA0002878800742D5D9F80010484611F00C0F68
:101FB00008D00068C0F3810002280BD1DAF80000D5
:101FC000400207D42068800718D5E868012800D1AE
:101FD00014E01EE1E8680028206817D040F00100F6
:101FE0002060FEF749FD064605E000BFFEF744FD10
:101FF000801B0228C2D820688007F7D5286921688D
:1020000021F0F80141EAC00020600FE020F001005B
:102010002060FEF731FD064605E000BFFEF72CFD0F
:10202000801B02281ED820688007F7D42878000774
:1020300029D5794869696C3000298046016812D039
:1020400041F001010160FEF717FD064605E000BF03
:10205000FEF712FD801B022804D8D8F80000800784
:10206000F6D510E089E021F001010160FEF704FDE2
:10207000064604E0FEF700FD801B02287DD8D8F854
:1020800000008007F6D4287840076BD5DFF88881F8
:1020900008F13808D8F80000C0000BD4D8F80010B8
:1020A00041F08051C8F80010D8F80000012700F076
:1020B0008050009059480168C90512D401688346D0
:1020C00041F480710160FEF7D7FC064605E000BFD1
:1020D000FEF7D2FC801B64284FD8DBF80000C00557
:1020E000F6D54D4EA868683601280AD008B10528F3
:1020F00011D0306820F001003060306820F004001A
:1021000002E0306840F001003060A868A0B1FEF73E
:10211000B3FC83460CE0306840F004003060F0E728
:10212000FEF7AAFCA0EB0B0141F28830814268D88F
:1021300030688007F4D50EE0FEF79EFC834607E08A
:10214000FEF79AFCA0EB0B0141F28830814258D88F
:1021500030688007F4D42FB1D8F8001021F08051F6
:10216000C8F80010A869E0B3D9F80010C1F38101E4
:1021700002294ED00228206800E042E020F0807062
:10218000206003D0FEF778FC05463DE0FEF774FCC6
:10219000064604E0FEF770FC801B022831D8206858
:1021A0008001F7D4D5E90921DFF874C0D5E9070625
:1021B00095F830304F0895F82C1030430CEB07455C
:1021C00045EA8212104340EA016040EA0370CAF80F
:1021D0000000206840F080702060FEF74DFC05464E
:1021E00005E014E0FEF748FC401B022809D82068EF
:1021F0008001F7D50BE000BFFEF73EFC401B022834
:1022000002D90320BDE8F88F20688001F4D40020B3
:10221000F8E70120F6E700000838024000700040AF
:102220000000FFFFFEB504460D46416C032084F814
:102230003400032920D0B5F5805F1DD0B5F5006FBF
:1022400005D045B1A06B40F00060A06309E02046D6
:1022500001F0C3FE02E0204601F098FEA16B0143AD
:10226000A163A06B012658B1216840F2FF5088633A
:1022700084F834600120FEBDA06B40F08050E4E79C
:10228000211DD4E905070EC9CDE900500297206849
:1022900001F0BCFC84F834600020FEBD7047F0B54E
:1022A000426E120E93090B70C2F3830402F0030214
:1022B0004C708A70426E120CCA70B0F86420120A18
:1022C0000A7190F864204A714FF6FF73826E120E05
:1022D00003EA0212CA80CB88826EC2F30742140955
:1022E0002343CB8002F00F020A72B0F86820002569
:1022F000C2F30722D3094B72C2F38014C2F3401613
:10230000C2F300178C72CE720F734D730123446CAD
:102310004FF400766CB1012C46D0026840F2FF51B8
:102320009163816B41F08051816380F834300120EA
:10233000F0BD9207120D0A610C6990F8682044EA1A
:1023400082020A610C69C26E120E9709C2F3C20CB6
:102350003C430C6102F0070281F814C04A75C26E5A
:10236000C2F30742940757098F75640FC2F38202C4
:10237000CA750C760A7EB0F86C40C4F3072442EAB2
:10238000D4120A760A69521C42650F7EBF1CBA40FD
:1023900042650F7A03FA07F787654FEA572C02FB6D
:1023A0000CF2C0E917261CE090F868209206920A09
:1023B0000A610C69C26E120E44EA02220A610C69BB
:1023C000C26EC2F3074214430C610A69B0F86C4054
:1023D000521C4FEA82224265C4F30724C0E9166208
:1023E0000666C4F380124FEA84644A764FEA546466
:1023F0008C7690F86C208C7E4FEAD21602F07F0229
:1024000044EA06048C76CA7650F8702F4FEA1262BE
:102410004FEAD2140C77C2F34116C2F382074FEA97
:1024200082724E778F774FEA1272CA77CC7F02683A
:10243000C2F3074244EA9214CC77C2F3401602F08A
:10244000010281F8206081F8215081F82220028861
:10245000C2F307224FEAD21481F82340C2F3801559
:10246000C2F34016C2F30017C2F3810C02F003025C
:1024700081F8245081F8256081F8267081F827C002
:1024800081F8282000784FEA500081F8290081F86F
:102490002A304FF00000F0BD426C0A60826C4A6046
:1024A000C26C8A60026DCA60426D0A61826D4A61C7
:1024B000C26D8A61006EC8610020704770B5B0F8C7
:1024C0005010002504460068090401F0EBF918B12A
:1024D000A16B0143A16304E02068002101F090FB9F
:1024E0000546C5F3432070BD70B5040004D094F8D0
:1024F0003400002510B105E0012070BD204625778D
:1025000000F03CF8032084F83400204600F007F87F
:102510000120A563256384F83400002070BD3EB51A
:1025200004467620002100910B460A46CDE90110B1
:10253000206801F06BFB2068416821F480714160E4
:10254000206801F074FB2068416841F480714160AB
:102550000220FEF789F9204601F0C5FC4FF0010585
:1025600020B9204601F04CFC002805D084F83450F6
:10257000A16B0143A16301203EBD0000F0B50068DE
:1025800087B01549884225D11448016841F080017F
:102590000160006802240025694600F08000059073
:1025A00003260B27C0208DE8F1000D48FEF76EF9D9
:1025B000780269468DE8F1000A4F3846FEF766F961
:1025C0000A21A002CDE903618DE831006946384651
:1025D000FEF75CF907B0F0BD001C01404438024032
:1025E000000C0240001802402DE9F04387B01F465E
:1025F0001546044639B194F83400012807D002206A
:1026000007B0BDE8F083A06B40F0006008E0E26D29
:102610000020EB19A063934204D9A06B40F0007036
:10262000A06355E00322814684F834202268D062FA
:102630002268D36B43F49573D363E36B4FEA472867
:10264000244ADA63E36B244ADA644FEA9803E26BC4
:1026500010650A462068E66B00F180013046FEF7FF
:10266000C5F82068C16A41F00801C162606C0128A8
:1026700000D06D02694601260596B01ECDE900081E
:1026800002A89022022380E80C02206801F088F959
:102690002068710200F0ECFF40F2FF5880B9012F72
:1026A00006D9822020632068294601F06DF805E0F4
:1026B000812020632068294601F07FF800289FD000
:1026C0002268C2F83880A16B0143A16384F83460AA
:1026D000012095E7DF3C0008813C000870470000BE
:1026E0002DE9F04F5FEA010B1E4687B01546044600
:1026F00007D094F83400012807D0022007B0BDE8C5
:10270000F08FA06B40F0006008E0E16D0020AA1996
:10271000A0638A4204D9A06B40F00070A0633AE045
:102720000321804684F834102168C8622168CA6B8E
:1027300042F01A02CA63226C2549D163226C2549F2
:10274000D164216C0865606C012800D06D0220689E
:102750004FF4007100F08CFF4FF0010740F2FF5979
:1027600088B9012E4FF0900A06D9A0202063206876
:10277000294601F0E3F805E0C4F830A029462068B6
:1027800001F0F5F848B12268C2F83890A16B014316
:10279000A16384F834700120B0E72068C16A41F079
:1027A0000801C16222687502206C5946AB0880326C
:1027B000FEF71CF8CDE904874FF0FF326946CDE9FA
:1027C00002A8CDE90025206801F0EAF8002095E78D
:1027D0001D3D0008813C00082DE9F047040005D0AC
:1027E00094F85D000025A56218B107E00120BDE85E
:1027F000F087204684F85C5000F050F8022284F8FC
:102800005D204FF4E0632068016821F04001016021
:10281000E068984201D9002101E04FF48051B0F501
:10282000706F02D0984200D0A5624FF00109266B6C
:102830002EB9984201D9226301E0C4F83090D4E95E
:102840000468D4E90102278B46EA0806A36A10430C
:1028500007F4007830432668D4E907C240EA08004C
:1028600040EA0C00CC460427104318433060D4F8EB
:102870001880666B606AE26807EA1847236830438D
:102880003A431043084358602068C16921F400614D
:10289000C161256684F85DC00020A8E72DE9F04FEE
:1028A00080466F4E6F4800240221D8F80050032262
:1028B0000523B54287B014D1056845F4804505600D
:1028C000006800F4804005904FF470408DE81300DC
:1028D00065486946CDE90323FDF7D8FF07B0BDE899
:1028E000F08F624F4FF4006A4FF4005B4FF4803971
:1028F0003E15BD424FF4807729D1036843F400436D
:1029000003600068062300F4004005904FF4A050D7
:102910008DE8130056486946CDE90323FDF7B6FF5D
:10292000544D554805F10C03C5E90004EF612846F4
:10293000AC6083E8500CC5E90894FDF7E5FE08B1EA
:10294000EC2188E0C8F85850C5F83880C6E74548FB
:10295000DFF828C1001D654524D1056845F4005500
:102960000560006800F40050059044208DE81300D5
:1029700043486946CDE90323FDF788FF414D4248AE
:1029800005F10C0CC10585E81300EF6128468CE8C1
:10299000500CC5E90894FDF7B7FE0028D2D04FF4DB
:1029A0008B7158E0DFF8E4C0654528D1056845F42F
:1029B00080150560006800F4801005904FF42070C9
:1029C0008DE8130032486946CDE90323FDF75EFF29
:1029D000304D4FF080612C4805F1180A483085E8E9
:1029E0001300C5E903466C6128468AE890026C62D0
:1029F000FDF78AFE0028A5D04FF4A0712BE0DFF888
:102A000098C06545A2D1056845F4001505600068C9
:102A100000F4001005904FF4C0408DE813001F48EB
:102A20006946CDE90323FDF731FF1D4D4FF00071DD
:102A3000154805F1180A903085E81300C5E90346EA
:102A40006C6128468AE890026C62FDF75DFE002802
:102A5000A4D04FF4B57113A003F017FA72E7000089
:102A6000003800404038024000040240003C004072
:102A7000000802406006002010600240003401405F
:102A800000100240C00600201064024000500140C7
:102A900000140240200700200054014000180240AA
:102AA000800700202E2E2F5372632F73746D3332E4
:102AB000663778785F68616C5F6D73702E630000B5
:102AC00004284FF0E020016903D021F004010161E6
:102AD000704741F00401FAE77047401EB0F1807F73
:102AE00010B501D3012010BD4FF0E02460610F212B
:102AF000601700F025FD0020A0610721216110BDB5
:102B000010B5FFF7E9FF10BD7047704770B590F83A
:102B10003C20012A1FD0012280F83C2002680F4C83
:102B20005368A242956802D00D4CA24203D14C6872
:102B300023F4700323430C688968002623F0700394
:102B40001C43546025F0800502682943916080F899
:102B50003C60304670BD022070BD000000000140A6
:102B60000004014010B5040003D094F83D0010B1FA
:102B700007E0012010BD002084F83C00204600F052
:102B80000DF8022084F83D002068211D01F0B4FBFF
:102B9000012084F83D00002010BD000008B5006849
:102BA0000B49884212D10B48016841F001010160D4
:102BB00000680022114600F0010000901920FEF785
:102BC00007F8BDE808401920FDF7F6BF08BD000072
:102BD00000000140443802400168CA6842F0010226
:102BE000CA600068016841F001010160002070477F
:102BF00070B5044690F83C00012817D03A4E0125E4
:102C000084F83C50022084F83D00226890683040EF
:102C100020F47F4090600868502839D00DDC2028CF
:102C20005BD005DC98B3102843D153E0022070BD7F
:102C3000302855D040283CD141E0602830D0702861
:102C40000CD0B0F5805F03D0B0F5005F31D112E059
:102C50002068254A70328168114016E04A68206871
:102C6000D1E9021301F0AEFB21688868304040F0E2
:102C7000770088601DE04A682068D1E9021301F0FE
:102C8000A1FB2068816841F48041816011E01EE071
:102C9000CA684968206801F0A6FB2068502106E058
:102CA000CA684968206801F0AFFB2068602101F024
:102CB00092FB002084F83D5084F83C0070BDCA6847
:102CC0004968206801F08FFB20684021EFE7206809
:102CD0000021ECE720681021E9E720682021E6E7E1
:102CE00020683021E3E7000088FFFEFF704770B5E1
:102CF0000446006800250169C943890715D4C168E5
:102D0000C943890711D4EA1E026101212177206895
:102D100080698007204602D0FFF7E8FF04E000F05A
:102D2000A5F8204600F0A3F8257720680169C9437B
:102D3000490717D4C168C943490713D402216FF06A
:102D40000402026121772068806910F4407F2046E8
:102D500002D0FFF7CBFF04E000F088F8204600F037
:102D600086F8257720680169C943090716D4C16828
:102D7000C943090712D404216FF0080202612177C8
:102D80002068C0698007204602D0FFF7AFFF04E04B
:102D900000F06CF8204600F06AF825772068016999
:102DA000C943C90617D4C168C943C90613D4082149
:102DB0006FF01002026121772068C06910F4407F33
:102DC000204602D0FFF792FF04E000F04FF82046C3
:102DD00000F04DF8257720680169C943C90708D17B
:102DE000C168C943C90704D1891E0161204600F0AA
:102DF0003FF820686FF080050169C943090607D4D0
:102E0000C168C943090603D405612046FFF77CFE6B
:102E100020680169C943C90507D4C168C9430906C7
:102E200003D405612046FFF76FFE20680169C9439E
:102E3000490609D4C168C943490605D46FF0400169
:102E40000161204600F015F820680169C943890630
:102E50000BD4C168C943890607D46FF02001016112
:102E60002046BDE87040FFF750BE70BD7047704708
:102E700070477047F0B5DFF8B4C00022056802263D
:102E80002B4912232B4803240827654587B00CD112
:102E90000D6845F400250D600968009601F40021D5
:102EA0000394CDE90471694629E0DFF88CC06545DB
:102EB00014D1086840F4801008600868012102926B
:102EC00000F4801005904020CDE90341CDE90003D6
:102ED0001A486946FDF7DAFC07B0F0BDDFF860C0BC
:102EE00065450FD1086840F00040086008686946F1
:102EF000009600F000400394CDE904701148CDE93C
:102F00000132E7E7104EB542E6D10D6845F40035D1
:102F10000D60096802AE01F4003105912021CDE970
:102F200000130725694686E83400D3E7004C0040CB
:102F300040380240000C02400050004000040240B3
:102F4000007C0040001002400044004038B50400FE
:102F500004D094F84500002510B106E0012038BDEA
:102F6000204684F8445000F039F8022084F84500E7
:102F70002068016821F001010160204601F038FC61
:102F80000128ECD02068416821F48041416020682C
:102F9000816821F02A0181602068016841F0010107
:102FA0000160A564FDF768FD03462068006800071E
:102FB0000DD54FF47A700090002220464FF4001196
:102FC00001F0AAFC18B1032084F8450038BD0121A6
:102FD00084F84510284684F8445038BD10B5006880
:102FE00086B00D49884214D10C48016841F0200197
:102FF000016000680221002200F0200005900323F8
:1030000008244FF4E0708DE81F0005486946FDF77D
:103010003DFC06B010BD00000014014044380240E1
:1030200000080240FEE70000194808B5016841F4B5
:1030300000110160016801F400110091016841F480
:103040008001016000680022114600F480000090B9
:103050000B20FDF7BDFD0B20FDF7AEFD0022382053
:103060001146FDF7B5FD3820FDF7A6FD00223B20F7
:103070001146FDF7ADFD3B20FDF79EFD00224520EA
:103080001146FDF7A5FDBDE808404520FDF794BDBC
:10309000303802400449054810B5FDF740FA0249AE
:1030A000491E087010BD000019000020DC5F0008F8
:1030B0002DE9F04F604887B0016841F010010160D0
:1030C000016801F010010591016841F004010160FF
:1030D000016801F004010591016841F020010160DF
:1030E000016801F020010591016841F08001016053
:1030F000016801F080010591016841F00201016061
:10310000016801F002010591016841F04001016090
:10311000016801F040010591016841F00101016081
:10312000016801F001010591016841F008010160A9
:1031300000680022DFF804B1082100F008000590C3
:103140005846FDF793FC40F201173D4800223946EE
:10315000FDF78CFC48F21C083A4800224146FDF776
:1031600085FC4FF40069384800224946FDF77EFC93
:10317000364800221121FDF779FC4FF4C07A34481B
:1031800000225146FDF772FC0125694603260820FE
:103190000024CDE90005CDE902465846FDF776FB4F
:1031A0000097694603962648CDE90154FDF76EFB6A
:1031B00020206946CDE9000423480294FDF766FB10
:1031C000CDF80080694603961E48CDE90154FDF70D
:1031D0005DFB6802009002271B48CDE90174694637
:1031E00003940494FDF752FB28020090CDE901748A
:1031F0001848694603940494FDF748FBCDF8009005
:10320000694603961048CDE90154FDF73FFB1120B4
:103210006946CDE900050D48CDE90246FDF736FBCC
:10322000CDF800A0694603960948CDE90154FDF7A1
:103230002DFB07B0BDE8F08F30380240001002408F
:10324000001402400018024000080240000C024036
:1032500000040240000002400D4800214FF440727B
:103260000A4B10B5C0E90031C0E902120161072321
:103270004161816101624162C0E90A1301634163F6
:10328000FFF7AAFA002800D0FEE710BD0038004082
:103290002002002070B50D4D00210D484FF47064E0
:1032A0002B1505605A10C0E90113C0E9034107233B
:1032B000C0E9051201624162C0E90A13016341637A
:1032C000FFF78AFA002800D0FEE770BD003C0040FE
:1032D0008402002070B50D4D00210D484FF470643C
:1032E0002B1505605A10C0E90113C0E903410723FB
:1032F000C0E9051201624162C0E90A13016341633A
:10330000FFF76AFA002800D0FEE770BD00340140E4
:10331000E802002070B50D4D00210D484FF44074B7
:103320002B1505605A10C0E90113C0E903410723BA
:10333000C0E9051201624162C0E90A1301634163F9
:10334000FFF74AFA002800D0FEE770BD00500140A8
:103350004C03002070B50D4D00210D484FF4407412
:103360002B1505605A10C0E90113C0E9034107237A
:10337000C0E9051201624162C0E90A1301634163B9
:10338000FFF72AFA002800D0FEE770BD0054014084
:10339000B0030020144842F6CC1210B511490024A5
:1033A00088B042F2107380E81600C0E9033444612B
:1033B0008461FFF7D7FB00B1FEE74FF48050039024
:1033C000094803A9FFF714FC00B1FEE70648694667
:1033D000009401940294FFF799FB002800D0FEE7C7
:1033E00008B010BD000001401404002070B50C4866
:1033F00000214FF4E134094D0C23E204C0E902211D
:10340000C0E904138161C16101624162C0E90054F5
:10341000FDF738FB002800D0FEE770BD004C0040EF
:103420005404002070B50C4800214FF4E134094DDC
:103430000C23E204C0E90221C0E904138161C161E7
:1034400001624162C0E90054FDF71CFB002800D076
:10345000FEE770BD00500040C404002070B50C4869
:1034600000214FF4E134094D0C23E204C0E90221AC
:10347000C0E904138161C16101624162C0E9005485
:10348000FDF700FB002800D0FEE770BD007C004087
:103490003405002070B50C4800214FF4E134094D8B
:1034A0000C23E204C0E90221C0E904138161C16177
:1034B00001624162C0E90054FDF7E4FA002800D03F
:1034C000FEE770BD00440040A405002070B50C4824
:1034D00000214FF4E134094D0C22E304C0E902312C
:1034E000C0E90412C16101624162C0E90054FFF702
:1034F0002DFD002800D0FEE770BD00000014014043
:103500001406002009490022094810B501F0BCFC4E
:103510000849074801F0BAFE0749054801F0F8FAE2
:10352000BDE81040024801F0FFBE0000300000205E
:10353000E01900205801002020000020FEE770471D
:10354000090700284FEA116106DA00F00F0000F1C8
:10355000E02080F8141D704700F1E02080F800148E
:10356000704700000148FDF7EDBC0000041C00207E
:103570002DE9F84F0F4606688246C1EBC70100EB04
:103580008105D5E91312286C38358C1AA04200D277
:103590000446E01C06EB4719C11700EB91704FEA97
:1035A000A00819E0AA68441AA24200D21446E01CFE
:1035B000A3B2C117FAB200EB91704FEAA0089AF8D3
:1035C000100000903046E96802F048FCE8682044AA
:1035D000E860A8692044A861D9F8180981B241457A
:1035E00005D9D5E90501814201D20028DAD1002CA4
:1035F00006DCD6F834180120B8408143C6F83418E8
:103600000020BDE8F88F704730B585B004463720FC
:1036100040220DF1080CCDE9001000236946150188
:1036200020468CE82C0000F009FB372141F288325B
:10363000204600F0C9F905B030BD000030B50B4A96
:1036400085B004462920114340220DF1080CCDE934
:10365000001000236946150120468CE82C0000F07C
:10366000EDFA204600F066FA05B030BD000010808B
:1036700030B585B0044610200DF1080C8501CDE968
:10368000001040226946002320468CE82C0000F000
:10369000D5FA102141F28832204600F095F905B0A4
:1036A00030BD30B585B00446062040220DF1080C2F
:1036B000CDE9001000236946150120468CE82C0056
:1036C00000F0BCFA062141F28832204600F07CF975
:1036D00005B030BD30B585B00546002469464FF4CD
:1036E0008060009401940294CDE90340284600F0E4
:1036F000A5FA0B4A4FF4FA5041F288311268B2FB36
:10370000F0F04843401E03D24FF0004005B030BDFA
:10371000696B0906F6D540F2FF512046A963F5E72B
:103720007400002070B50821044685B04FF4D570B0
:103730004026CA018DE8430000256946CDE90352C1
:10374000204600F07BFA0F4A4FF4FA5041F28831DC
:103750001268B2FBF0F04843401E02D24FF0004521
:103760000CE0616B11F0450FF6D0606B400701D59E
:10377000042502E0606B400600D5A66305B028462C
:1037800070BD00007400002030B585B004461220E2
:1037900040220DF1080CCDE9001000236946150107
:1037A00020468CE82C0000F049FA122141F28832C0
:1037B000204600F009F905B030BD30B585B00446AB
:1037C000112040220DF1080CCDE9001000236946BC
:1037D000150120468CE82C0000F030FA112141F24E
:1037E0008832204600F0F0F805B030BD30B585B025
:1037F000044640210DF1040C0720009200230D0126
:103800008CE82B006946204600F018FA072141F2A7
:103810008832204600F0D8F805B030BD10B586B02B
:10382000044600210220C02243020493CDE9001087
:10383000CDE902216946204600F000FA204600F05A
:1038400051F906B010BD30B585B0044609200DF120
:10385000080CC022CDE90010002369464FF48065B2
:1038600020468CE82C0000F0E9F9204600F03AF9F7
:1038700005B030BD10B586B004460021332040228B
:10388000CDE90221CDE900101301694620460493D9
:1038900000F0D4F9332141F28832204600F094F848
:1038A00006B010BD30B585B004460D2040220DF1A4
:1038B000080CCDE9001000236946150120468CE86C
:1038C0002C0000F0BBF90D2141F28832204600F0B7
:1038D0007BF805B030BD30B585B00C4600210546FB
:1038E00003204022CDE90221CDE9001013016946F1
:1038F0002846049300F0A2F903212246284600F04E
:1039000039F905B030BD000010B586B0044600217D
:103910000C204022CDE90221CDE9001013016946B7
:103920002046049300F08AF9034A0C21204600F057
:103930004BF806B010BD000000E1F50530B585B0CC
:103940000446192040220DF1080CCDE90010002397
:103950006946150120468CE82C0000F06FF919210A
:1039600041F28832204600F02FF805B030BD30B566
:1039700085B00446182040220DF1080CCDE9001056
:1039800000236946150120468CE82C0000F056F90A
:10399000182141F28832204600F016F805B030BDFB
:1039A00070B50A6842624A688262C46AD1E9022537
:1039B000D1E9043624F0F7012A4333431A43114373
:1039C000C162002070BD000010B5444C4FF4FA53A2
:1039D0002468B4FBF3F353435B1E02D24FF0004064
:1039E00010BD426B12F0450FF6D0426B520703D563
:1039F00004218163084610BD426BD20702D0012129
:103A0000816303E00269D2B28A4201D0012010BD75
:103A100040F2FF518163002100F0F2F83049084282
:103A200001D1002010BD002802DA4FF0007010BD57
:103A3000410001D5402010BD810001D5802010BD7E
:103A4000C10002D54FF4807010BD010102D54FF4C2
:103A5000007010BD410102D54FF4806010BDC1015E
:103A600002D54FF4006010BD010202D54FF4805022
:103A700010BD410202D54FF4005010BD810202D5A5
:103A80004FF4804010BDC10202D54FF4004010BD7C
:103A9000410302D54FF4003010BD810302D54FF42D
:103AA000802010BDC10302D54FF4002010BD0104D9
:103AB00002D54FF4801010BD410402D54FF4001020
:103AC00010BD810402D54FF4800010BD000702D55F
:103AD0004FF4000010BD4FF4803010BD7400002082
:103AE00008E0FFFD124B4FF4FA5141F288321B6897
:103AF000B3FBF1F15143491E02D24FF00040704731
:103B0000426B12F0450FF6D0416B490703D50421F3
:103B1000816308467047416BC90703D00121816367
:103B20000846704740F2FF51816300207047000053
:103B3000740000200E4B4FF4FA5141F288321B689A
:103B4000B3FBF1F15143491E02D24FF000407047E0
:103B5000426B12F0450FF6D0416B490703D50421A3
:103B600081630846704740F2FF518163002070472F
:103B70007400002030B51F4D4FF4FA5341F28834E1
:103B80002D68B5FBF3F363435B1E02D24FF0004098
:103B900030BD446B14F0450FF6D0436B5B0703D583
:103BA00004218163084630BD436BDB0702D001214D
:103BB000816303E00369DBB28B4201D0012030BD99
:103BC00040F2FF518163002100F01AF810F4604FB9
:103BD00004D0410406D54FF4005030BD000C1080D5
:103BE000002030BD000402D54FF4805030BD4FF4AA
:103BF000803030BD74000020006800F00300704782
:103C0000084408B514300090006808BD70B5114331
:103C10004268049EDDE90554334347F6FF661943C5
:103C20002943B24321430A434260002070BD03216F
:103C3000016000207047D0F88000704770B50A68B6
:103C40008260C468D1E90125D1E90336210B2A43FA
:103C5000334309031A431143C160002070BD0000C3
:103C600010B5064C01202070FCF788FB18B92078AD
:103C700020F001002070207810BD00000C00002012
:103C800010B5846BFCF76EFC022827D0E06B406D0A
:103C9000012803D0206C406D01281CD1216840F21E
:103CA000FF5088632068C16B21F49D71C163A06BD4
:103CB00040F08040A0632046FEF700FC062801D0BB
:103CC000052805D12068FFF71FFEA16B0843A063FC
:103CD000012084F834002046FEF7E0FA10BD10B54C
:103CE000846B206B822809D12068FFF70DFE28B174
:103CF000A16B0143A1632046FEF7D0FA20680121A1
:103D000040F2FF52C36A23F00803C3622068826353
:103D100084F834102046FEF7E1FC10BD806B00688B
:103D2000C16B41F48071C16370472DE9F04F89B0D8
:103D30000E460446FCF7A0FE0027009701970821D5
:103D4000834620683D46FFF793FC002835D1B4F840
:103D5000501020680904FFF757FC00282DD14FF0C0
:103D600008084FF002094FF0010C421E3023CDE944
:103D70000228CDE90439CDE9067C206802A9FFF7C5
:103D80000FFE2068FFF776FD002816D1EA4640F2C4
:103D90002A472068416B394212D1416B890204D510
:103DA000FFF749FF4AF825006D1CFCF765FEA0EB04
:103DB0000B00401CEDD14FF0004009B0BDE8F08F82
:103DC000416B090703D5C0F838800820F5E7416B3F
:103DD000890703D5C0F838900220EEE7416B8906C9
:103DE00003D5202181630846E7E740F2FF51816354
:103DF000009800BA7060019800BA30600020DCE7DB
:103E000010B590B004460120ADF838002068FFF7E7
:103E1000F3FE002864D0606C032842D02068FFF7CE
:103E2000FDFC00285AD120680021FFF7E9FE6067F9
:103E300004212068FFF7E4FEA06708212068FFF74F
:103E4000DFFEE0670C212068FFF7DAFE616CC4F842
:103E50008000032925D020680EA9FFF73CFD00282B
:103E60003CD1606C03281CD0BDF838102165206857
:103E70000904FFF7E8FC002830D120680021FFF793
:103E8000BFFE606604212068FFF7BAFEA066082125
:103E90002068FFF7B5FEE0660C212068FFF7B0FE52
:103EA000206704212068FFF7ABFE000DE06403A942
:103EB0002046FEF7F4F9B4F850000023020420680D
:103EC000FFF794FC002809D104F1100007C88DE821
:103ED000070094E80F00FFF799FE002010B010BD16
:103EE0004FF08060FAE72DE9F8430025044600957D
:103EF0000068FFF7EFFB00281BD12068FFF712FCDA
:103F00004FF080784FF6FF76E0B14FF08057A56410
:103F10000098B04200F1010000901BD02068002101
:103F2000FFF772FB20B920680021FFF787FB10B173
:103F30003846BDE8F88320680021FFF761FEC00F16
:103F4000E6D020E00127A7640098B04200F101000C
:103F5000009001D14046ECE720680021FFF754FBB8
:103F60000028E6D120684FF08041FFF767FB00286A
:103F7000DFD120680021FFF743FEC10FE4D04000ED
:103F800001D5676400E065640020D2E71CB50446F3
:103F900000200090002101902068FFF731FE800191
:103FA00002D54FF400601CBD69462046FFF7BDFEF8
:103FB0000028F8D10198C0030CD5B4F8501020683F
:103FC0000904FFF721FB0028EDD120680021FFF74D
:103FD00068FB1CBD4FF080601CBD1CB50446002072
:103FE0000090002101902068FFF70AFE800102D5B1
:103FF0004FF400601CBD69462046FFF796FE00287E
:10400000F8D1019840030CD5B4F850102068090489
:10401000FFF7FAFA0028EDD120680221FFF741FBF3
:104020001CBD4FF080601CBD70B5064C05460120DC
:104030002070FCF7AFF918B92846FFF711FE207081
:10404000207870BD0C000020144810B588B01446CC
:104050000078C00702D0032008B010BD39B1012993
:1040600007D002290BD0032910D00420F4E7002048
:10407000F2E76846FCF77CF9069900200CE06846F8
:10408000FCF776F9079900202180E5E76846FCF700
:104090006FF907990020490A2160DDE70C00002034
:1040A0002DE9F041184C0125164608464FF000084E
:1040B000C4F808801A463146FCF786F9F0B9FCF7D7
:1040C000DBFC064647F23057A06820B9FCF7D4FC69
:1040D000801BB842F8D3A06828B1C4F80880FCF768
:1040E000CBFC044605E0012508E000BFFCF746F9DB
:1040F00038B1FCF7C1FC001BB842F7D32846BDE835
:10410000F0810025FAE700000C000020FFF7A8BDB1
:104110002DE9F041184C0125164608464FF00008DD
:10412000C4F804801A463146FCF75CF9F0B9FCF794
:10413000A3FC064647F23057606820B9FCF79CFCA8
:10414000801BB842F8D3606828B1C4F80480FCF73B
:1041500093FC044605E0012508E000BFFCF70EF9DA
:1041600038B1FCF789FC001BB842F7D32846BDE8FC
:10417000F0810025FAE700000C000020704710B520
:10418000FCF7BAFCBDE81040FEF7BABC3B48F0B5FE
:104190000168B7B041F080510160006800F08050C4
:1041A00036903748016841F44041016000680224BC
:1041B0002CAB670500F4404036900820CDE92A4733
:1041C0004FF48C7283E8150041032F90012624A838
:1041D000CDE92461FDF788FE00B1FEE7FDF778FA2E
:1041E00000B1FEE74FF4A05000250F21CDE9335078
:1041F000359031A8CDE931140721FDF73DFD00B11F
:10420000FEE70DF1040C1F48E02100900722049402
:1042100003208CE81600CDE90740CDE90A65159525
:104220004FF000600996FA2312951F906846149586
:10423000169518952195CDE90534FDF77FFA00B163
:10424000FEE7002239461046FDF704FE0022012059
:104250004FF08041FDF7FEFDFDF7A4FD4FF47A71AC
:10426000B0FBF1F0FEF739FC0420FEF729FC002238
:10427000501E1146FCF7ACFC37B0F0BD4038024090
:1042800000700040802E2006104A30B51048146897
:1042900000210F4B44F470041460083305680D4A84
:1042A0000D4C45F00105056019600368051D1340BC
:1042B000074A03600C322C600568E305034C25F4C3
:1042C00080250560803C1160236030BD88ED00E0F2
:1042D00000380240FFFFF6FE1030002404481C2185
:1042E00010B5FCF7BFFBBDE810400248FEF7FFBC6D
:1042F0000018024014040020F0B5274B4FF0804E08
:10430000264D02689842264E264F274C09D070450C
:1043100007D0A84205D0B04203D0B84201D0A04295
:1043200005D1D1F804C022F070024CEA0202984292
:104330001BD0704519D0A84217D0B04215D0B84252
:1043400013D0A04211D0194DA8420ED0184DA8424A
:104350000BD0184DA84208D0174DA84205D0174DD4
:10436000A84202D0164DA84203D1CD6822F4407273
:104370002A434D6922F080022A43026098428A68EB
:10438000C2620A68826201D0A04201D10969016358
:1043900001214161F0BD0000000001400004004027
:1043A00000080040000C00400004014000400140B3
:1043B000004401400048014000180040001C00403B
:1043C0000020004042EA032283680A4323F47F412D
:1043D0000A4382607047826822F070020A4342F00A
:1043E00007018160704710B5036A046A23F00A036D
:1043F00024F00104046284690B4324F0F00141EAD3
:1044000002118161036210BD10B5036A23F010032D
:1044100003628369046A23F4704324F0A00443EA2E
:104420000232826144EA0111016210BD90F8241049
:10443000C90706D00168836A4A6822F400321A4329
:104440004A6090F82410890706D50168C36A4A6853
:1044500022F480321A434A6090F82410490706D5A6
:104460000168036B4A6822F480221A434A6090F87C
:104470002410090706D50168436B4A6822F40042FC
:104480001A434A6090F82410C90606D50168836B68
:104490008A6822F480521A438A6090F824108906B0
:1044A00006D50168C36B8A6822F400521A438A60F9
:1044B00090F82410490611D50168036C4A6822F46B
:1044C00080121A434A60016CB1F5801F06D1016861
:1044D000436C4A6822F4C0021A434A6090F82410E0
:1044E000090606D50168826C486820F40020104354
:1044F0004860704738B500250446C566FCF7BCFA2D
:1045000003462068006800070BD56FF07E400090DE
:10451000002220464FF4001100F038F908B10320C2
:1045200038BD202084F8690084F8685084F86A0057
:10453000002038BD2DE9F04704468068874B884F3E
:104540002668D4E90415E2690843D6F800C01021B2
:1045500015430022284315460CEA030C814B4CEA14
:10456000000CC6F800C04FF400492068D4F80CC015
:10457000466826F4405646EA0C0646602668D4F89B
:104580002080A069D6F808C040EA08002CF4306CFE
:104590004CEA000CC6F808C02068B8420AD11B6873
:1045A00013F0030352D0012B7AD0022B76D0032BC9
:1045B00079D177E06C4EB0420AD11B6813F00C033E
:1045C0006AD0042B6CD0082B68D00C2B6BD169E01F
:1045D000664EB0420AD11B6813F030035CD0102B3A
:1045E0005ED0202B5AD0302B5DD15BE0604EB042C4
:1045F0000AD11B6813F0C0034ED0402B50D0802B43
:104600004CD0C02B4FD14DE05A4EB0420DD11B685B
:1046100013F4407340D0B3F5807F41D0B3F5007FF1
:104620003CD0B3F5407F3ED13CE0534EB0420FD179
:104630001B6813F4406309D0B3F5806F30D0B3F535
:10464000006F2BD0B3F5406F2DD12BE001212AE074
:104650004A4EB0420DD11B6813F440531CD0B3F541
:10466000805F1DD0B3F5005F18D0B3F5405F1AD15D
:1046700018E0434EB04216D11B6813F440430BD0F0
:10468000B3F5804F0CD04B4508D0B3F5404F0AD15D
:1046900008E005E002E0FFE7002104E0022102E07B
:1046A000042100E00821E6694E452AD109291FD2DC
:1046B000DFE801F00508141E171E1E1E1A00FDF784
:1046C00077FB01E0FDF784FB0146D4F804004900C4
:1046D00001EB5001B1FBF0F082B20AE029496068B9
:1046E000F6E7FDF785FBEFE760684FF48031EFE711
:1046F0000125216822F00F00C2F342021043C86076
:1047000028E0092925D2DFE801F005080B24102450
:1047100024241C00FDF74CFB09E0FDF759FB06E0E3
:104720006168194A02EB51020EE0FDF761FB014698
:10473000D4E9002001EB5001B1FBF0F080B2D06071
:1047400008E0616809EB5102B2FBF1F189B2C16086
:1047500000E001252846BDE8F0870000F369FFEF7F
:1047600000100140903802400044004000480040E2
:10477000004C004000500040001401400078004010
:10478000007C00400048E8010024F4002DE9F041DD
:10479000984617460E460446069D1DE0681C1BD031
:1047A0002DB1FCF769F9A0EB0800A84214D32168E9
:1047B000202000220B6823F4D0730B6021688B68E3
:1047C00023F001038B6084F8690084F86A000320F9
:1047D00084F86820BDE8F0812068C06936EA0000EE
:1047E00004D00020B842D9D00020F3E70120F9E737
:1047F0002DE9F04704460368826800253F4F2846AC
:10480000D4E90461DFF8F88032431E6841F4004CBB
:104810003C493E4042EA0C0216431E604FF40069D8
:10482000D4E907672368D4F80CC0626A3E435F6826
:1048300046F4006642EA0C02324327F47C561643E3
:104840005E60226842450AD1096811F0030140D038
:1048500001294CD0022947D003292BD14AE02A4B09
:104860009A420AD1096811F00C012FD004293ED0D8
:10487000082939D00C291DD13CE0244B9A420AD199
:10488000096811F0300121D0102930D020292BD017
:1048900030290FD12EE01E4B9A420BD1096811F43A
:1048A000406116D0B1F5806F21D049451CD0B1F5DB
:1048B000406F1FD05FF00105226820F00F01C0F3A8
:1048C00042000143D1602846BDE8F087FDF770FA49
:1048D00001E0FDF77DFA01466068490001EB5001F7
:1048E000B1FBF0F080B2E7E70A496068F6E7FDF750
:1048F0007FFAF0E760684FF48031EFE7F369FFEF8C
:104900000010014090380240004400400048004040
:10491000001401400048E8012DE9F041984617468F
:104920000E460446069D25E0681C23D02DB1FCF7F9
:10493000A3F8A0EB0800A8421CD3206801210022A4
:10494000036823F0800303602068036823F02003DA
:1049500003602068036823F4807303602068836821
:1049600023F00103836084F84510032084F8442079
:10497000BDE8F0812068C06936EA000004D000205C
:10498000B842D1D00020F3E70120F9E7D0F81802AF
:1049900020B10021C0F81412084670470220704769
:1049A00070B5D0F81842054600F03AFBC4F80C0286
:1049B000D5F8180248B1D5F81C0204F50371C26895
:1049C000D4F804029047002070BD022070BD70B57D
:1049D00000250446812100F07CFA0121204600F0E8
:1049E00078FA8221204600F074FAD4F8180250B107
:1049F000D4F81C0204F5067440688047206801F072
:104A000055FA00202060284670BD10B5D0E98641D7
:104A100059B194F80002FF2807D08B68214694F81A
:104A200001229847FF2084F80002002010BD0000FA
:104A30000A21018000487047800000204321018046
:104A400000487047D0000020432101800048704793
:104A50008C00002043210180004870471401002091
:104A60002DE9F0410446007C4FF400764FF000053C
:104A700070B3402320460222812100F027FB40230F
:104A800020460222012100F021FB082320460322B8
:104A9000822100F01BFB4FF4077001F065FAC4F8A7
:104AA0001802E8B10746D4F81C02006880470020CD
:104AB000C7F81402C7F81802207CD7F8042288B17E
:104AC00040232046012100F014FB2846BDE8F08178
:104AD000022233468121204600F0F8FA3346CFE720
:104AE0000125F2E73346ECE710B5D0F8181269B1AA
:104AF000027C002AD1F8042205D04023012100F0D5
:104B0000F8FA002010BD4FF40073F7E7022010BD43
:104B1000002902464FF0020003D04FF00000C2F817
:104B20001C127047D0F81802C0F804120020704719
:104B3000D0F81802C0F81022C0F808120020704700
:104B400070B5064608780C4610F06001D6F8185289
:104B500022D0202928D1E288B2B1000608D5D6F8A3
:104B60001C022946836860789847E288294618E045
:104B70006078294685F80002A07985F80102304660
:104B8000E28800F037F80FE0D6F81C020022214638
:104B900083686078984707E060780A2804D1034961
:104BA0000122304600F040F8002070BD7C0000205B
:104BB00010B5D0F8142252689047002010BD13465B
:104BC0000A46002110B500F094FA002010BD1346EB
:104BD0000A46002110B500F035FB002010BD10B5CD
:104BE0008021044600F005FB2046BDE8104000216E
:104BF00000F0FFBA10B5C0F808210323C0F8F43163
:104C00001346C0F80C210A46002100F072FA002079
:104C100010BD0521002310B51A46C0F8F41119463D
:104C200000F067FA002010BD10B582610223C0F8C1
:104C3000F4311346C2610A46002100F003FB002054
:104C400010BD0421002310B51A46C0F8F41119460E
:104C500000F0F8FA002010BD04A00A46024910B581
:104C600000F0EEF8004810BDE01700204344432058
:104C7000436F6E6669670000122008800048704725
:104C80005400002004A00A46024910B500F0D8F8EC
:104C9000004810BDE017002043444320496E74656E
:104CA0007266616365000000042008800048704758
:104CB0005000002004A00A46024910B500F0C0F8D8
:104CC000004810BDE017002053544D6963726F65B2
:104CD0006C656374726F6E696373000004A00A46AA
:104CE000024910B500F0ACF8004810BDE0170020F4
:104CF00053544D3332205669727475616C20436F82
:104D00006D506F727400000004A00A46024910B58D
:104D100000F096F8004810BDE01700203030303029
:104D20003030303030303141000000000C2008803D
:104D30000048704768000020F8B5044648880D46D2
:104D4000010A062955D006DC01290DD0022912D00E
:104D5000032958D11DE0072953D00F2953D1D4F886
:104D60001012207CCA6903E0D4F81012207C0A6873
:104D70006946904733E0207C02260028D4F81402CC
:104D800005D0C16A684688470146467048E0816A96
:104D9000F8E7C1B2062924D2DFE801F003080D12BA
:104DA000171CD4F81012207C4A68E1E7D4F81012DE
:104DB000207C8A68DCE7D4F81012207CCA68D7E728
:104DC000D4F81012207C0A69D2E7D4F81012207CA3
:104DD0004A69CDE7D4F81012207C8A69C8E70146F9
:104DE0001EE0D4F814126A468B6BC1B22046984775
:104DF000F5E7207C38B9D4F81402416B684688473F
:104E0000EDE7207C20B129462046FFF7E8FEF8BDFB
:104E1000D4F81402016B68468847014607204870A1
:104E2000BDF800000028F2D0EA88002AEFD08242C4
:104E300000D902462046ADF80020FFF7F5FEF8BD88
:104E4000F0B500284FF000041DD00346254602E0CF
:104E50006D1C5B1CEDB21E78002EF9D1022606EB0C
:104E600045071780631C032500260F55A21CCD544F
:104E700006E0541C8B54E2B2531C401C8E54DAB230
:104E80000378002BF5D1F0BD10B580B1D0F8143205
:104E900013B10023C0F8143209B1C0F81012012177
:104EA000027080F8FC1100F0BFF8002010BD022055
:104EB00010BD10B5D0F820020024FBF764FF30B11C
:104EC000012801D0022801D0022400E0012420465C
:104ED00010BD10B5D0F820020024FBF732FF30B12E
:104EE000012801D0022801D0022400E0012420463C
:104EF00010BD2DE9F0411746044641B1D4F8140223
:104F000042698AB394F8FC01032842D043E0D4F804
:104F1000F411002504F11400022933D1D0E9026311
:104F20009E4207D9F31A39469AB283602046FFF7AA
:104F30004EFE12E04068B0FBF3F103FB1101A1B992
:104F4000984212D3D4F8F81188420ED2002220469B
:104F50001146FFF73CFEC4F8F85100231A461946E3
:104F6000204600F0C6F80DE012E0D4F81402C16843
:104F700029B194F8FC01032801D120468847204636
:104F8000FFF747FE94F80002012804D184F800528C
:104F900001E0204690470020BDE8F08170B515463D
:104FA000044641B1D4F8140282693AB394F8FC0182
:104FB000032824D025E0D4F8F41104F582700329E5
:104FC0001FD1D0E902218A420BD9531A83600846C7
:104FD000834200D3034629469AB22046FFF7EFFDED
:104FE0000FE0D4F81402016929B194F8FC010328F8
:104FF00001D1204688472046FFF723FE01E02046E6
:105000009047002070BD0020704710B5012180F846
:10501000FC11D0F81422017952689047002010BD8D
:10502000D0F82002FBF7DEBE70B5017861BB1749EE
:105030000022022306254FF0A044C1F8FC03C0F86B
:1050400020120120C1E90332C1E90523CA61C1E987
:105050000820CA6208460A63C1E90045FCF73EFA27
:1050600020B10BA04FF4A57100F00FFF074880217D
:10507000FBF724FE054840220021FBF723FE0348EE
:1050800080220121FBF71EFE002070BD041C0020C1
:105090002E2E2F5372632F757362645F636F6E667B
:1050A0002E630000D0F8202201F07F000B06C0EB39
:1050B000C00002EB800002D590F83A00704790F8EB
:1050C000FA017047002070470020704770B51D46F8
:1050D000D0F82002002413462A46FBF78DFE30B19B
:1050E000012801D0022801D0022400E0012420463A
:1050F00070BD10B5D0F820020024FBF7A8FE30B137
:10510000012801D0022801D0022400E00124204619
:1051100010BD70B50022044640231146FFF7D6FFAC
:105120004025204600222B468021C4F81051FFF76D
:10513000CDFFD4F818020121256284F8FC1130B1AA
:10514000D4F8141220794A68C1B220469047002052
:1051500070BD90F8FD1180F8FC110020704710B56B
:1051600090F8FC11032904D1D0F81412C96901B1D7
:105170008847002010BD01740020704710B5D0F89A
:1051800020020024FCF75EFA30B1012801D0022889
:1051900001D0022400E00124204610BD70B5044671
:1051A00000F50270054600F05DF8B4F80E320121FA
:1051B00094F8080210F01F02C4E97D130AD0012AF6
:1051C0000DD0022A10D000F08001204600F011F826
:1051D000002070BD2946204600F0ABF8F8E72946CC
:1051E000204600F08EF9F3E72946204600F01AF930
:1051F000EEE710B5D0F820020024FBF74AFE30B1EC
:10520000012801D0022801D0022400E00124204618
:1052100010BD10B5D0F820020024FCF72CFA30B1F4
:10522000012801D0022801D0022400E001242046F8
:1052300010BD90F8FC21042180F8FD2180F8FC11BC
:105240000020704710B5D0F820020024FBF758FE6C
:1052500030B1012801D0022801D0022400E001244D
:10526000204610BD0A7802704A784270CB788A785E
:1052700002EB032242804B790A7902EB03228280FF
:105280008A79C97902EB0121C180704702464FF04B
:10529000000011B1C2F8141270470220704710B517
:1052A000D0F8142202241AB11268904700B90024E1
:1052B000204610BD70B51B4D044688780E46C1B21D
:1052C0000129297028D894F8FC01022802D003286B
:1052D00022D105E099B16160032084F8FC0109E066
:1052E00091B1606888420AD0C1B22046FFF760FCE5
:1052F000297861602046FFF7D2FF02280CD02046B3
:10530000BDE87040FFF79DBC0220616084F8FC019D
:105310002046FFF74DFCF2E731462046BDE87040DD
:10532000FFF75DBC7800002010B5FFF772FF00208A
:1053300010BD2DE9F0414B780022012516460A2BBD
:1053400043D2DFE803F03C584251420805422A2785
:10535000FFF7F2FC63E004468888C8B9C888B8B98A
:105360008A7894F8FC0102F07F07032810D03946B0
:10537000204684F8FE71FFF701FF2046FFF761FC2D
:105380001FB1022084F8FC0149E084F8FC5146E09A
:1053900020461AE0FFF78EFF41E0CB88012B14D1A5
:1053A00090F8FC31022B02D0032B0ED104E000F167
:1053B00008018260012214E00122011D11E090F831
:1053C000FC21022A04D0032A02D0FFF708FC26E0C1
:1053D000D0F80412C56009B10321C160022200F1B6
:1053E0000C01FFF721FC1AE04A880446012A16D175
:1053F000C4F804520BE0044690F8FC01022801D0E6
:105400000328C5D14888012809D1C4F80422D4F85A
:1054100014028268204690472046FFF712FC30466F
:10542000BDE8F08170B50D4609780446002628795C
:10543000C1F34112012AC1B206D06878A0B3012895
:105440001FD003283FD107E0D4F814022946826810
:1054500020469047002070BD94F8FC01022817D028
:1054600003282CD1688828B921B1802902D0204690
:10547000FFF7BFFED4F81402294682682046904701
:1054800013E094F8FC01022802D0032817D103E0AE
:10549000C9B180291BD116E06888A0B9480604D09C
:1054A0002046FFF706FDE5E703E02046FFF7C9FBCE
:1054B00009E094F8FC01022807D003280BD0294604
:1054C0002046FFF78CFB304670BD4806FBD02046D7
:1054D000FFF78FFEF7E7080601F07F0004EB0015E9
:1054E00001D5143501E005F582752046FFF7DAFD98
:1054F00000B101202946022228602046FFF794FBD4
:10550000E1E770B5054690F8FC010C4603280DD183
:10551000207901280AD8D5F81402826828469047D5
:10552000E08830B92846FFF78CFB02E02846FFF7F9
:1055300056FB002070BD000070B54C7801220D783C
:105540001C4B012CD0F81C4802FA05F218D044EA92
:105550000242C0F81C280A7800EB4210D0F8002B59
:1055600012040BD40A89CC78D0F8001BC2F30A02CB
:10557000114343EA84431943C0F8001B002070BD67
:1055800092B21443C0F81C480A7800EB4210D0F8DD
:1055900000492404F2D40C89CD78D0F80019C4F362
:1055A0000A06AC04314344EA825211431943C0F85D
:1055B0000019E3E700800010D0F800196FF30A012A
:1055C000C0F80019D0F80818C1F34101022905D12B
:1055D000D0F8001941F00301C0F80019D0F8041800
:1055E00041F48071C0F804180020704770B504467B
:1055F0000699049D0D9801290CD0E06840F0400008
:10560000E060204600F02AF84FF48030A063012DBE
:1056100017D01EE0A26B01280F4922F48030A0634E
:10562000E06800EA0100E060E06820F44010E0601B
:1056300003D1E06840F48010E060204600F00EF8EE
:10564000E5E7A06840F00600A060A06840F02000F8
:10565000A060002070BD0000BFFFBDFF0C4901220B
:1056600002E0521C8A420BD80369002BF9DA036965
:10567000012243F00103036104E0521C8A4201D974
:10568000032070470369DB07F7D100207047000053
:10569000400D030010B54B7801220C78012B02FA63
:1056A00004F3D0F83C4816D024EA0343C0F83C3851
:1056B000D0F81C380C78A24023EA0242C0F81C281B
:1056C000097800EB4110D0F8001B21F40041C0F82C
:1056D000001B002010BD9BB29C43C0F83C48D0F892
:1056E0001C380C78A24092B29343C0F81C38097859
:1056F00000EB4110D0F8001921F40041C0F8001966
:10570000E7E710B5D0F8041821F00201C0F804183A
:105710000320FBF7A9F8002010BD10B5D0F804183D
:1057200041F00201C0F804180320FBF79DF80020A7
:1057300010BD00002DE9F04704460E46DDE90A0AD7
:10574000DDF83C80089FA26B5FEA08014FF000057E
:1057500042F40011A1630BD1A16B21F40011A163EC
:10576000216841F040012160216841F08001216001
:105770004FF00009C4F8009ED4F800180128C4F8BE
:10578000001821D003281FD0D4F8000840F00300EF
:1057900002E000BF40F00100C4F8000810212046DC
:1057A00000F0C6FA204600F0B3FAFF2248464FF058
:1057B00090434FF0FF31C4F81098C4F81498C4F81F
:1057C0001818C4F81C9816E0D4F80008002BE3D091
:1057D000E0E700BF04EB4511D1F800C9BCF1000FB0
:1057E00002DAC1F8003901E0C1F80009C1F8100976
:1057F000C1F808296D1CAE42ECD8002111E000BFB1
:1058000004EB4115D5F800CBBCF1000F02DAC5F866
:10581000003B01E0C5F8000BC5F8100BC5F8082BDC
:10582000491C8E42ECD8D4F81018012F21F4807155
:10583000C4F810180AD11549154AC4F83018D4F81C
:1058400030181143C4F83018D4F830186FF0804184
:10585000A06161611FB9A06940F01000A061A0695A
:10586000BAF1000F0B4A40EA0200A06103D0A06920
:1058700040F00800A061B8F1010F03D1A06906490A
:105880000843A0610020BDE8F0870000000180000F
:105890000300010000383C8004000040816821F0D2
:1058A000010181600020704730B50B784D784D4C78
:1058B000012D00EB431329D0D3F8105B6FF31205D1
:1058C000C3F8105B0B7800EB4313D3F8105B254053
:1058D000C3F8105B4B690BB18B684B61012A0B78E5
:1058E00000EB4312D2F8103B43F40023C2F8103B04
:1058F0000A788C6800EB4212D2F8103BC4F3120411
:1059000043EA0403C2F8103B5BD060E04D69002D10
:10591000D3F810593AD06FF31205C3F810590B7829
:1059200000EB4313D3F810592540C3F810594C69C4
:105930008B689C4200D94B610B7800EB4313D3F882
:10594000104944F40024C3F810490B784C6900EB6B
:105950004313C4F31205D3F810492C43C3F810497C
:10596000012A27D04A693AB10C78D0F834280123AB
:10597000A3401A43C0F83428097800EB4110D0F84E
:10598000001941F00441C0F8001929E02540C3F88E
:1059900010590B7800EB4313D3F8104944F400245A
:1059A000C3F810490B7800EB4313D3F810496FF399
:1059B0001204D3E70A780B6900EB4212C2F81439DB
:1059C000DAE70B78CA6800EB4313C3F8142B0978A5
:1059D00000EB4110D0F8001B41F00441C0F8001B5F
:1059E000002030BDFFFF07E00023C0F8103B012975
:1059F000D0F8101B41F40021C0F8101BD0F8101B88
:105A000041F01801C0F8101BD0F8101B41F0C04144
:105A1000C0F8101B05D14FF08021C0F8142BC0F83E
:105A2000001B002070474A780B78012A00EB4312D4
:105A30000BD0D2F8003B23F40013C2F8003BCA7825
:105A4000032A17D0022A15D01DE0D2F8003923F41A
:105A50000013C2F80039CA78032A01D0022A12D1F1
:105A6000097800EB4110D0F8001941F08051C0F8DE
:105A7000001908E0097800EB4110D0F8001B41F054
:105A80008051C0F8001B002070474A780B78012A2B
:105A900000EB431214D0D2F8003B002B05DBD2F808
:105AA000003B23F08043C2F8003B097800EB411033
:105AB000D0F8001B41F40011C0F8001B0020704713
:105AC000D2F80039002B05DBD2F8003923F08043EF
:105AD000C2F80039097800EB4110D0F8001941F400
