:020000040800F2
:1000000018220020D901000813270008C524000881
:10001000112700083B0300088D4200080000000083
:10002000000000000000000000000000712800082F
:100030004D04000800000000C927000873280008CC
:10004000F3010008F3010008F3010008F3010008C0
:10005000F3010008F3010008F3010008F3010008B0
:10006000F3010008F3010008F3010008F3010008A0
:10007000F3010008F3010008F3010008F301000890
:10008000F3010008F3010008F3010008F301000880
:10009000F3010008F3010008F3010008F301000870
:1000A000F3010008F3010008F3010008F301000860
:1000B000F3010008F3010008F3010008F301000850
:1000C000F3010008F3010008F3010008F301000840
:1000D000F3010008F3010008F3010008F301000830
:1000E000F3010008F3010008F3010008F301000820
:1000F000F3010008F3010008F3010008F301000810
:10010000F3010008F3010008F3010008F3010008FF
:10011000F3010008F3010008F3010008F3010008EF
:10012000F3010008B9030008F3010008C503000843
:10013000F30100080000000000000000F3010008C7
:10014000F3010008F3010008F30100083527000857
:10015000F3010008F3010008F3010008F3010008AF
:10016000F3010008F3010008F3010008F30100089F
:10017000F3010008F3010008F3010008000000008B
:1001800000000000F3010008000000000000000073
:10019000F30100080000000000000000F301000867
:1001A000000000000000000000000000F301000853
:1001B000F3010008F3010008F3010008F30100084F
:1001C000F3010008DFF80CD000F07AF8004800478F
:1001D00001430008182200200648804706480047CF
:1001E000FEE7FEE7FEE7FEE7FEE7FEE7FEE7FEE7E7
:1001F000FEE7FEE751290008C50100082DE9F05F80
:100200000546002092469B46884606468146402485
:100210001BE0284641464746224600F041F8534637
:100220005A46C01A914110D311461846224600F092
:1002300028F82D1A67EB01084F46224601200021BD
:1002400000F01FF817EB00094E41201EA4F1010435
:10025000DFDC484631462A464346BDE8F09F40EA87
:1002600001039B0703D009E008C9121F08C0042A34
:10027000FAD203E011F8013B00F8013B521EF9D21B
:100280007047202A04DB203A00FA02F10020704770
:100290009140C2F1200320FA03F3194390407047C4
:1002A000202A04DB203A21FA02F00021704721FACB
:1002B00002F3D040C2F12002914008431946704732
:1002C000064C074D06E0E06840F0010394E80700A3
:1002D00098471034AC42F6D3FFF778FF204400086B
:1002E0004044000870B58C1810F8015B15F0070346
:1002F00001D110F8013B2A1106D110F8012B03E0BF
:1003000010F8016B01F8016B5B1EF9D12B0705D4C6
:100310000023521E0DD401F8013BFAE710F8013B0F
:10032000CB1A921C03E013F8015B01F8015B521E2B
:10033000F9D5A142D8D3002070BDFEE70020704758
:100340000020704710B500220449054802F0D2FD94
:100350000449034802F0C8FD002010BD1C0E002017
:10036000F80300201C06002010B50446014606488C
:1003700002F0BAFD044802F09BFD0121204600F086
:1003800005F8002010BD0000F8030020094A10B550
:10039000D2F81822D2F814220AB1012010BD0A4660
:1003A0000146044802F0A6FDBDE81040014802F0F5
:1003B000E1BD0000F8030020014800F049B800004A
:1003C00038030020014800F043B8000098030020E3
:1003D00001681823CAB2103AB2FBF3F2054B6FF36F
:1003E0000901032A9B5CC36500D9091D8165084684
:1003F000704700000044000810B5014600208B69DA
:100400008A6A4FF0C07453B1B3F5005F15D072B172
:10041000012A0CD0022A0AD0032A09D104E01AB119
:10042000012A06D0022A03D1C96AC90100D50120D8
:1004300010BDC96AA142FAD010BD002AF7D0012A26
:10044000F2D0022AF3D0032AF3D010BD7047000087
:100450002DE9F84304464FF00009CDF800906348B9
:100460004FF41651A56D0068B0FBF1F72E6894F8B3
:100470005C10082000FA01F131420FD021680A68AF
:1004800052070BD50A6822F004020A6094F85C1047
:100490008840A860606D40F00100606594F85C10D1
:1004A0004FF0010808FA01F0304208D0216849698C
:1004B000090604D5A860606D40F00200606594F8FC
:1004C0005C1004208840304208D021680968890700
:1004D00004D5A860606D40F00400606594F85C107D
:1004E00010208840304218D021680968090714D5C7
:1004F000A86020680168490304D50068000308D596
:10050000A16C07E00168C90503D4016821F0080166
:100510000160216C09B12046884794F85C102020C6
:100520008840304231D021680968C9062DD5A860BD
:1005300094F8350005282068016806D0490347D59E
:10054000006800031DD4616C1CE021F016010160FD
:100550002068416921F080014161206C08B9A06CDC
:1005600020B12068016821F00801016094F85C1056
:100570003F208840A86084F8349084F83580216D4D
:100580001FE0E16B09B120468847606D00282BD041
:10059000606DC00714D0052084F83500206801681C
:1005A00021F0010101600098401C0090B84203D87E
:1005B00020680068C007F6D184F8349084F835804C
:1005C000E16C002910D001B02046BDE8F043084797
:1005D0000168C905D5D4016821F01001016084F8D3
:1005E000349084F83580CCE7BDE8F8830C00002017
:1005F0002DE9F041044600F053F906465CB10025B0
:1006000084F83450022084F835002068016821F015
:10061000010101600DE00120BDE8F08100F040F92A
:10062000801B052805D920206065032084F835004B
:10063000F2E720680068C007F0D1226811682048FE
:100640000140D4E901031843D4E903363343184386
:1006500063691843A3691843E3691843236A18437D
:100660000843616A042903D1D4E90B1319430843F1
:10067000106020684069666A20F0070130460E432A
:10068000012704280CD1A06A0643E06A40B1204645
:10069000FFF7B2FE20B14020606584F83570BAE7FC
:1006A000206846612046FFF793FE94F85C203F21C6
:1006B00091408160656584F835700020ACE70000EA
:1006C0003F8010F070B5044600F0EAF80546601C63
:1006D00002D004480078044400F0E2F8401BA04235
:1006E000FAD370BD000000202DE9F84FDFF874B197
:1006F00000224FF001084FF0030A4FF00F090BF1F1
:10070000040E00BF0B6808FA02F42340A3426ED126
:100710004D68022D01D0122D0ED1D50800EB850CAD
:10072000DCF820505607F70E09FA07F6B5430E69B4
:10073000BE402E43CCF82060066855000F790AFAB7
:1007400005FC07F0030726EA0C06AF4037430760B5
:100750004E68012E05D0022E03D0112E01D0122E8C
:100760000ED18668CF6826EA0C06AF403743876013
:100770004668A6430C79C4F30014944034434460A3
:10078000C4688E6824EA0C04AE402643C6604C68F8
:10079000E40060D5344C256845F480452560246824
:1007A00022F0030504F480440094304C2E19D6F84E
:1007B000084895072F0F09FA07F5AC432C4DA842BE
:1007C00001D100251FE02B4DA84201D101251AE0DF
:1007D000294DA84201D1022515E0284DA84201D19A
:1007E000032510E0264DA84202D104250BE032E09B
:1007F000244DA84201D1052505E0234DA84201D191
:10080000062500E00725BD402543C6F80858DBF85B
:1008100000405D464E689C43F60300D51C432C60A7
:10082000DEF8004075464E689C43B60300D51C4375
:100830002C600C4D08352C684E689C43F60200D5A0
:100840001C432C60074D0C352C684E689C43B60247
:1008500000D51C432C60521C102AFFF453AFBDE896
:10086000F88F0000003C0140443802400030014055
:10087000000002400004024000080240000C024058
:1008800000100240001402400018024042694A4031
:10089000426170470AB1816170470904FBE70000BB
:1008A00001488068704700000000002070B5040017
:1008B00004D094F83900002510B106E0012070BD85
:1008C00084F83850204601F087FD242084F8390050
:1008D0002068C16821F40051C160204602F062F82E
:1008E0002068016921F4904101612068416921F08B
:1008F000220141612068416941F00801416120689D
:10090000C16841F40051C160E563202084F83900DA
:1009100084F83A00002070BD0248816802781144D2
:1009200081607047000000200B4810B5016841F459
:1009300000710160016841F480610160016841F467
:1009400080710160032000F081F8002000F006F8BB
:1009500000F024F8002010BD003C024070B50D4DA1
:1009600004464FF47A712878B1FBF0F00A4909681F
:10097000B1FBF0F001F017FD48B9102C07D20022AE
:100980002146501E00F042F800206C6070BD01202E
:1009900070BD0000000000200C00002010B50320F6
:1009A00000F054F8002211466FF00B0000F02EF812
:1009B000002211466FF00A0000F028F800221146CC
:1009C0006FF0090000F022F800221146501F00F0DD
:1009D0001DF800221146101F00F018F800221146E1
:1009E000901E00F013F80022BDE810401146501E82
:1009F00000F00CB800F01F02012191404009800076
:100A000000F1E020C0F8001170470000F0B40E4B78
:100A10001B680C46C3F30223C3F10705042D00D95C
:100A20000425191D072901D2002300E0DB1E012641
:100A300006FA05F1491E214099409E40761E164057
:100A40003143F0BC01F066BE0CED00E0064900F059
:100A5000070208684FF6FF03184040EA0220034AE5
:100A600010430860704700000CED00E00000FA053C
:100A700001220168C0F8F423002280F8EC23886981
:100A800040F000608861486D024A104348650020CC
:100A900070470000030000107047006841620020AA
:100AA0007047F0B500680023446A31B1856A4FF49D
:100AB000827604EB15444D1E0AE044EA024181624D
:100AC0000FE006EB8307C7595B1C04EB1744DBB24E
:100AD000AB42F6DB4FF4807303EB810144EA024240
:100AE00042500020F0BDD0F8F80302F074BCC1EB16
:100AF000C10200EB8202D0F8F803526C02F0E1BBB5
:100B0000C1EBC10200EB8202D0F8F803D2F8042254
:100B100002F02CBCD0F8F80302F05FBC10B504461C
:100B20000A460B0601F07F00C0EBC00104EB810117
:100B300001D5383101E001F5FC710870D009487029
:100B400094F8B803012809D0012084F8B80320687C
:100B500002F084FF002084F8B80310BD022010BD0D
:100B600070B50A460446090602F07F0005D5C0EBC1
:100B7000C00104EB8101383105E0C2EBC20104EB96
:100B8000810101F5FC7100258D700870D009487055
:100B900094F8B803012809D0012084F8B80320682C
:100BA00003F047F984F8B853002070BD022070BDEF
:100BB00001F00F01C1EBC10100EB8100B0F81002A0
:100BC00080B2704770B504460D460E0601F07F00F6
:100BD000C0EBC00104EB810101D5383101E001F522
:100BE000FC71ED0908704D708A60CB7000D0C88030
:100BF0000025022B00D10D7194F8B803012809D00B
:100C0000012084F8B803206802F07CFE284684F8AE
:100C1000B85370BD022070BD70B50C4601F07F0561
:100C2000C5EBC50100EB8101C1F80C32C1F804220B
:100C30000023C1F8103281F8F93181F8F8510369C5
:100C400001F5FC71012B00D10A616206027C00688B
:100C500003D003F04FF9002070BD03F02BF8FAE742
:100C600070B50D460446090605F07F0005D5C0EBBA
:100C7000C00104EB8101383105E0C5EBC50104EB8F
:100C8000810101F5FC7101228A700870E809487041
:100C900094F8B803012807D084F8B823206803F03B
:100CA000FAF8680602D007E0022070BD217C04F546
:100CB0006F72206803F09EF8002084F8B80370BDBE
:100CC00070B50C4601F07F05C5EBC50100EB810155
:100CD000CB644A6400230B65012381F8393001F8A5
:100CE000385F0369012B00D10A616206027C00684B
:100CF00003D003F0FFF8002070BD02F0DBFFFAE73D
:100D00002DE9F84F044600680026054603F046FA30
:100D100000287DD1206803F06AFA002878D0206886
:100D200003F065FA800704D52068416901F00201EB
:100D30004161206803F05BFA010304F56F704FF026
:100D4000010A4FF00009009055D5206803F031FAF0
:100D500007464EE0F8074AD0F1B2206803F03FFAA8
:100D60008046C00728D005EB4612C2F808AB2069C0
:100D7000012811D1C6EBC60004EB8000D2F8102B7D
:100D8000D0F80012C2F312028A1AC0F81022D0F86A
:100D900004221144C0F80412F1B22046FFF7B0FE5D
:100DA0002069012808D13EB9D4F80C0220B9206886
:100DB0000121009A03F01EF85FEA087007D520466B
:100DC00000F012FB05EB46110820C1F8080B5FEAA2
:100DD000C86004D505EB46111020C1F8080B5FEA86
:100DE000886004D505EB46112020C1F8080B7F0868
:100DF000761C002FAED1206803F0F9F940034FF0C4
:100E0000400B5ED5206803F0CDF90746002656E07A
:100E1000FAE1F80751D0F1B2206803F0D1F9804629
:100E2000C00724D0D5F834280AFA06F08243C5F862
:100E3000342805EB4610C0F808A92069012807D11D
:100E4000C6EBC60004EB8000D0E9102111444164D8
:100E5000F1B22046FFF74BFE2069012807D136B9D1
:100E6000E06C20B920680121009A02F0C3FF5FEA1C
:100E7000087004D505EB46110820C1F808095FEA9F
:100E8000C86004D505EB46111020C1F808095FEAD7
:100E9000486003D505EB4611C1F808B95FEA8870D0
:100EA00004D505EB46100221C0F808195FEA086076
:100EB00003D53146204601F043FC7F08761C002F05
:100EC000A7D1206803F093F9002811DAD5F80408B7
:100ED00020F00100C5F8040894F8EC0301283AD08A
:100EE000204600F067FA2068416901F00041416145
:100EF000206803F07CF900050BD5D5F80808C00779
:100F000002D0204600F08CFA2068416901F40061AB
:100F10004161206803F06BF900010AD5206841693E
:100F200001F00061416194F8EC03D8B1204600F073
:100F300077FA206803F05BF9C00460D5D5F804089F
:100F400020F00100C5F804081021206803F0F6F82D
:100F50000020FF211BE084F8EC9300212046FFF7DE
:100F60009BFDC0E784F8ECA32068406D0121C0F32D
:100F70008300C4F8F0032046FFF78EFDD9E700BFD9
:100F800005EB4012C2F80819C2F8081B401C626841
:100F90008242F5D84FF0FF30C5F81808D5F81C0884
:100FA00040F00110C5F81C08206B60B1D5F884082A
:100FB00040F00B00C5F88408D5F8440840F00B0059
:100FC000C5F844080BE0D5F8140840F02B00C5F82C
:100FD0001408D5F8100840F00B00C5F81008D5F833
:100FE000000820F4FE60C5F80008217C2068009A03
:100FF00002F000FF2068416901F4805141612068DE
:1010000003F0F5F880047DD5206802F0BBFC206871
:10101000C16821F47051C160206803F0A1F878B173
:101020000320C4F814B0E06000F0C2FD7749784AAC
:10103000014491420AD22068C16841F4705158E0DD
:101040004FF40070C4F80C90606136E07149724A48
:101050000144914204D22068C16841F4605148E0E3
:101060006E496F4A0144914204D22068C16841F43C
:1010700050513EE06B496C4A0144914204D22068D1
:10108000C16841F4405134E06849694A01449142E1
:1010900004D22068C16841F430512AE06549664AAB
:1010A0000144914204D22068C16841F4205120E0FB
:1010B0006249634A0144914204D22068C16841F404
:1010C000105116E05F49604A0144914204D2206801
:1010D000C16841F400510CE05C4908445C49884215
:1010E0002068C16803D241F4E05102E00AE041F413
:1010F000C051C160204600F04DF92068416901F4FB
:1011000000514161206803F072F8C00636D52068AE
:10111000816921F010018161D5F8208008F00F006D
:10112000C0EBC00004EB8007C8F3434007F5FC7731
:10113000022802D0062812D01BE047F6F07118EA08
:10114000010F16D0C8F30A1290462846F96803F03A
:1011500052F8F8684044F860B869404408E0082252
:101160002846009903F047F8B969C8F30A10084403
:10117000B8612068816941F010018161206803F045
:1011800036F8000707D5204600F018F920684169B5
:1011900001F008014161206803F029F8C00208D578
:1011A000F1B2204600F056F82068416901F4801140
:1011B0004161206803F01BF8800208D5F1B2204697
:1011C00000F04CF82068416901F400114161206889
:1011D00003F00DF8400007D52046FFF784FC206897
:1011E000416901F080414161206803F000F8400747
:1011F0000AD520684568680702D52046FFF78AFCB3
:101200002068416829434160BDE8F88F405327FFBB
:1012100000350C00401E1BFF40420F0000DC0BFF9E
:10122000804F1200808CF9FE20D6130060B6E5FED8
:1012300060E3160000D3CEFE40771B00C05BB3FE18
:10124000C091210000CA91FE20753800E05459FE7B
:10125000E09C4100D0F8F80302F01CB9D0F8F80384
:1012600002F01AB9F0B58BB004004FF0000554D06D
:10127000032084F8B903204600F05AF8206802F0F1
:1012800013FD04F1100128220F466846FEF7E7FF20
:1012900094E80F0002F090FB0021206802F0BBFFF1
:1012A00001260020C5EBC50104EB810181F83960FE
:1012B00001F8385FCD80C8708860C8606D1C4861D7
:1012C0000F2DEFD300214FF4827300BFC1EBC10299
:1012D00004EB820203EB810582F8F90182F8F81130
:1012E000D18782F8FB01C2F80002C2F80402C2F8FA
:1012F0000C0222685051491C0F29E7D32822394695
:101300006846FEF7ACFF94E80F0002F023FC84F877
:10131000B963606A012803D005E001200BB0F0BD7D
:101320002046FFF7A5FB206802F008FC0020F5E747
:1013300000B5006887B0B0F1A04F25D14FF4C05080
:1013400000900220019000200290032003900A20C8
:10135000049069460D48FFF7C7F90D48016841F050
:10136000800101600A481030016841F48041016049
:101370000068002200F48040059011464320FFF7EA
:1013800045FB4320FFF736FB07B000BD00000240DD
:101390003438024010B50446C068012100B900216C
:1013A000D4F8F80302F0CEF8D4F8F803BDE8104002
:1013B00002F097B8D0F8F80302F0B2B8D0F8F8030A
:1013C00002F0B4B810B5044690F8B803012809D06B
:1013D000012084F8B803206802F033FF002084F86D
:1013E000B80310BD022010BDD0F8F82300F56F71CE
:1013F000104602F0BAB810B5044690F8B8030128B8
:101400000CD0012084F8B803206802F08BFB206820
:1014100002F07EFE002084F8B80310BD022010BD4B
:1014200010B50446D0F8F80302F0ECF82068D0F8C4
:10143000001E41F00101C0F8001E206A002804D0FF
:101440000248016841F00601016010BD10ED00E0A6
:101450002DE9F8431748016841F0805101600068A8
:10146000154F00F08050012600903E64FFF718FAF7
:1014700005464FF47A78114C05E000BFFFF710FAEB
:10148000401B40450DD86068C003F7D57E64FFF768
:1014900007FA0546464607E0FFF702FA401BB0424E
:1014A00002D90320BDE8F88360688003F4D50020EA
:1014B000F8E700004038024000000E420070004093
:1014C000F0B5614A6049064600205D4C5D4B5E4DBB
:1014D000083A8839012E68D0022E74D0042E01D02B
:1014E000082E45D12E6806F4700637033F0B3FD116
:1014F00036150D2E3CD2DFE806F007203C56203B87
:101500003B3B3C3B3B3B5100086841024F48016874
:1015100001F03F0102D4B4FBF1F101E0B3FBF1F1C2
:1015200002680068C2F30362C0F388104843B0FB4E
:10153000F2F12868C0F3042016E008684002106841
:1015400000F03F0002D4B4FBF0F001E0B3FBF0F098
:1015500011681268C1F30361C2F388124243B2FBFF
:10156000F1F1286800F01F0010F10100B1FBF0F06C
:10157000F0BD08684002086800F03F0002D4B4FBE8
:10158000F0F001E0B3FBF0F00A680968C2F3027200
:10159000C1F388114143B1FBF2F0F0BD086840028D
:1015A00001D42046F0BD1846F0BD2D6815F0C06589
:1015B0003BD0B5F1007FF6D0B5F1806F12D0B5F118
:1015C000C06FF1D12DE01FE0B3FBF0F002E000BFEF
:1015D000B4FBF0F01168C1F3881141431068C0F307
:1015E0000270C3E708684002086800F03F0023D596
:1015F000B3FBF0F00A68C2F3881242430868C0F3F4
:101600000270B2FBF0F0F0BD2D6815F0C0550CD0A3
:10161000B5F1006FC7D0B5F1805FE3D0B5F1C05F21
:10162000F1D108684002BED4BBE7086840021068E8
:1016300000F03F00CCD5C7E7B4FBF0F0DAE70000DC
:101640000024F4000080BB008C380240883802403F
:101650002DE9F84F044600260078F84D3746C007BC
:1016600008D02868A16B20F0C06008432860A06BF8
:1016700000B901262078800708D52868E16B20F0A2
:10168000C05008432860E06B00B90126207840076D
:101690000ED52868216B20F4401008432860206B89
:1016A000B0F5801F01D010B102E0012600E0012753
:1016B000207800070ED52868616B20F440000843AD
:1016C0002860606BB0F5800F01D010B102E00126F8
:1016D00000E0012720784FF0000A80064FF0010B50
:1016E00063D5D6484C38016841F0805101600068EC
:1016F000DFF84C9300F080500090D9F8001041F4CE
:101700008071C9F80010FFF7CBF8804606E000BFF3
:10171000FFF7C6F8A0EB080002286FD8D9F8000040
:10172000C005F5D5DFF81483A8F11C08D8F800002F
:1017300010F4407024D0B4F8401001F4407181429C
:101740001ED0D8F80010BF4A21F44071C2F800B092
:10175000C2F800A0C8F80010D8F80000C0070FD0E9
:10176000FFF79EF8814607E0FFF79AF8A0EB090122
:1017700041F288308142D0D8D8F800008007F3D5F4
:10178000216CAE48C1F301228438032A37D00168A6
:1017900021F4F811C0F80010D8F80010B4F8402077
:1017A000C2F30B021143C8F800102078C00604D51C
:1017B000A54894F85810C0F8E01120780106A34815
:1017C00005D50168E26C21F44001114301602178E4
:1017D000490605D50168A26C21F0806111430160C2
:1017E0002188C90514D50168626D21F0006111439B
:1017F0000160616DB1F1006F09D009E01DE102687F
:10180000934B22F4F81219400A430260C4E70127FF
:101810002188890505D50168626C21F0805111434A
:1018200001602188DFF82C92490509D50168226DF5
:1018300021F0005111430160206DB0F1005F04D030
:101840001EB92068B0F5006F7ED18349C1F868A049
:10185000FFF726F8794E80468C3E05E0FFF720F82A
:10186000A0EB0800022886D830680001F6D4216871
:101870007A48CA0701D0A26B1AB1890717D5E16B64
:10188000A9B901680268C1F30141491CD4E9013CCE
:1018900043EA8C1321F0004CC2F3036209EB0C41C4
:1018A00041EA02610B43217D43EA01710160216835
:1018B0004A0703D5226BB2F5801F05D0090721D551
:1018C000616BB1F5800F1DD101680268C1F3014160
:1018D000491CD4E9013C43EA8C1321F0004C09EB8C
:1018E0000C4194F810C0C2F3027241EA0C610B4340
:1018F00043EA027101602968A26A21F01F01521EA9
:1019000011432960218849051AD5216DB1F1005F85
:1019100016D101680268C1F30141491CD4E9013CB8
:1019200043EA8C13D4F80CC0C2F302724FEA5C088D
:1019300009EB084C4CEA41610B4343EA0271016038
:101940002188090511D500E01FE0D4E9011241EA20
:101950008211E268530809EB0342237C42EA0362E6
:101960001143227D41EA027101603B49C1F868B030
:10197000FEF796FF804605E0FEF792FFA0EB080019
:10198000022874D830680001F6D5EFB3DFF8C880BC
:10199000C8F870A0FEF784FF304E0746843E04E08E
:1019A000FEF77EFFC01B022861D83068C04380006C
:1019B000F6D521682A484A0701D5226B1AB10907D2
:1019C0001DD5616BD9B90168D4E90623C1F3014182
:1019D000491C42EA831221F0004309EB034194F8C9
:1019E000243041EA03610A4302602968E26A6FF029
:1019F000FF0321F4F85103EB0222114329602188EF
:101A0000C90514D5616D00E038E0B1F1006F0ED169
:101A10000168D4E9062342EA8312236AC1F3036111
:101A20005C0809EB044343EA01610A430260C8F819
:101A300070B0FEF735FF04461CE018E08C38024019
:101A400000700040400E4742001047429438024068
:101A5000FFFCFF0F0000FFFF0000474284380240F8
:101A600088380240FEF71CFF001B022802D9032021
:101A7000BDE8F88F3068C0438000F3D40020F7E75A
:101A80002DE9F0470E46050065D0DFF81481D8F83F
:101A90000000F7B200F00F00B04207D288F80070E3
:101AA000D8F8000000F00F00B04254D128683D4C37
:101AB000810712D5400703D5206840F4E05020602C
:101AC0002878000703D5206840F460402060206833
:101AD000A96820F0F000084320602878C0072DD0C6
:101AE000304968680839012812D0022813D0032829
:101AF00011D00968890700292DDA216821F0030136
:101B000001432160FEF7CCFE814641F2883A0EE0A7
:101B100009688903EFE709688901ECE7FEF7C0FE71
:101B2000A0EB0901514502D90320BDE8F0872068E8
:101B3000696800F00C00B0EB810FEFD1D8F800100D
:101B4000404601F00F01B14207D90770006800F06C
:101B50000F00B04201D00120E7E72878400705D503
:101B60002068E96820F4E0500843206028780007E6
:101B700006D52068296920F4604040EAC100206051
:101B800000F03CF82168084AC1F30311515CC840D9
:101B9000064908600020FEF7E1FE0020C5E70000CE
:101BA000003C024008380240084400080C000020B5
:101BB00001480068704700000C00002004480549F7
:101BC00000680968044AC1F38221515CC84070472B
:101BD0000C00002008380240184400080448054959
:101BE00000680968044AC1F34231515CC84070473B
:101BF0000C0000200838024018440008224810B5A4
:101C0000006810F00C02214815D02149042A11D097
:101C10001D4C241F082A0FD00C2A0CD122682368DF
:101C200002F03F025B0221D52068C0F38810A0FBC0
:101C3000010120E0084610BD2268236802F03F023F
:101C40005B0205D52068C0F38810A0FB010104E009
:101C50002168C1F38811A1FB00010023FEF7CEFA31
:101C60002168C1F30141491C49000AE02168C1F320
:101C70008811A1FB00010023FEF7C0FA2168C1F31F
:101C80000271B0FBF1F010BD083802400024F400EE
:101C90000080BB002DE9F84F0546DFF828B3007837
:101CA000ABF10407C007A7F1040451D0DBF8001022
:101CB0005846C1F3810101290FD00168C1F38101A8
:101CC000022902D13968490207D40068C0F38100B3
:101CD000032809D13868400206D52068800337D52B
:101CE0006868002872D033E06868B0F5803F10D093
:101CF000B0F5A02F206810D020F48030206020683C
:101D000020F4802020606868A8B1FEF7C9FD06466F
:101D10000DE0206840F48030F4E740F4802020603B
:101D2000F7E700BFFEF7BCFD801B642878D8206869
:101D30008003F7D50CE0FEF7B3FD064605E000BFD3
:101D4000FEF7AEFD801B6428F0D820688003F7D42E
:101D50002878DFF8749280074FF0000A46D5DBF848
:101D60000010584611F00C0F0FD00168C1F381012B
:101D7000022902D13968490207D50068C0F3810001
:101D8000032809D13868400206D42068800715D599
:101D9000E86801281AD111E0E868C0B10120C9F84B
:101DA0000000FEF77DFD064605E000BFFEF778FD6A
:101DB000801B0228BAD820688007F7D520682969D7
:101DC00020F0F80040EAC10020600FE0F7E0C9F819
:101DD00000A0FEF765FD064605E000BFFEF760FDCA
:101DE000801B02281CD820688007F7D428780007B9
:101DF00027D5DFF8D0817548696908F16C0881B191
:101E000001210160FEF74CFD064604E0FEF748FDA7
:101E1000801B022804D8D8F800008007F6D510E00F
:101E200089E0C0F800A0FEF73BFD064605E000BFD4
:101E3000FEF736FD801B02287DD8D8F80000800709
:101E4000F6D42878400769D55E484FF0000838304E
:101E50000068C0000BD45B483830016841F0805105
:101E6000016000684FF0010800F080500090584E6B
:101E70003068C00511D4306840F480703060FEF7DF
:101E80000FFD009006E000BFFEF70AFD0099401A22
:101E9000022850D83068C005F6D54A4EA868683682
:101EA00001280FD00528306810D020F001003060E4
:101EB000306820F004003060A868B8B1FEF7F0FC8C
:101EC00000900FE0306840F00100F4E740F00400BB
:101ED0003060F7E7FEF7E4FC0099411A41F28830E0
:101EE000814264D830688007F4D50EE0FEF7D8FC54
:101EF000009007E0FEF7D4FC0099411A41F28830C7
:101F0000814254D830688007F4D4B8F1000F05D06E
:101F10002C483830016821F080510160A869A8B3CD
:101F2000DBF80010C1F38101022948D00228C9F86A
:101F300060A005D000E03AE0FEF7B2FC054639E0CB
:101F4000FEF7AEFC064604E0FEF7AAFC801B022862
:101F50002DD820688001F7D4F5E907010843E96826
:101F60001C4A490802EB0141AA6841EA8211084370
:101F7000297C40EA0160297D40EA01703860012037
:101F8000C9F86000FEF78CFC054606E015E000BFCE
:101F9000FEF786FC401B022809D820688001F7D58F
:101FA0000BE000BFFEF77CFC401B022802D9032097
:101FB000BDE8F88F20688001F4D40020F8E7012004
:101FC000F6E700000838024000004742800E474212
:101FD000007000400000FFFF70B504004FF00005E6
:101FE00004D094F88100002610B106E0012070BDF5
:101FF00084F88060204600F0A1F8022084F8810077
:10200000204600F005FC204600F0E0FB206AA8B165
:10201000204600F01DFC216A00EB800040004902D0
:10202000B0FBF1F10A22B1FBF2F0B1FBF2F302FBDB
:1020300013116062082901D9401C606260684FF486
:10204000007170B102280CD0206C012800D0002152
:10205000A06878B1012808D0022809D0032809D146
:1020600006E0206C0128F2D0F2E74FF4806501E031
:102070004FF40065206802682E4B1A400260626BC4
:1020800060681043D4E90E231A4310430843A16A41
:10209000284308432169084361690843A18C40EA49
:1020A00001512068026811430160206841684EF2C6
:1020B0000F029143416021684868A2691043D4E946
:1020C0000B231A4310434860206881681A4A114064
:1020D0008160626DE06C616C0243206D491E0843B3
:1020E0000243A06C6FF0FF0101EB00200243206867
:1020F00083681A4382602068C2684FF220031A4046
:10210000C260D4E916021043226E01EB0221B4F83A
:10211000642041EA024108432168CA681043C8604C
:10212000C4F88460012084F8810084F88060002075
:1021300070BD000010C005FF0080F8FF2DE9F043DE
:1021400006460068294987B088424CD1284A0025B4
:10215000116841B92748036843F4800303600068AD
:1021600000F480000590491C1160022401AB032794
:102170004FF00608009483E8B00169461E48FEF758
:10218000B3FA08208DE8B10169461C48FEF7ACFAA5
:102190004FF4806901ABCDF8009083E8B001694647
:1021A0001748FEF7A1FA184C1648C4E90005A560C7
:1021B0008014E560C4E904908000A0618011E061B2
:1021C0004002206204206062C4E90A75204625634B
:1021D000FEF70EFA20B140F27B110CA002F057F886
:1021E0007467A663346707B0BDE8F0830458014004
:1021F0001000002044380240000802400000024065
:102200000004024028640240380300202E2E2F5381
:1022100072632F73746D3332663478785F68616CE3
:102220005F6D73702E63000070B5040005D000254B
:10223000A56294F8510010B106E0012070BD84F849
:102240005050204600F030F8022084F851002068F9
:10225000016821F040010160D4E901010843D4E99B
:1022600003121143084361690843218B01F4007193
:102270000843E1690843216A0843A16A08432168C9
:102280000860A069042101EA1040616A08432168DE
:1022900048602068C16921F40061C1616565012061
:1022A00084F85100002070BD70B506460068294CC6
:1022B000002502230321052286B0A04231D1264801
:1022C000046844F480540460006800F48050059071
:1022D000CDE90312A0208DE8290069461F48FEF7CA
:1022E00003FA204C1E4820604FF0C0606060402020
:1022F000C4E9020500012061400060618000C4E97A
:1023000006054FF44030C4E908052046FEF770F991
:1023100018B17F2114A001F0BAFFB464A66306B01F
:1023200070BD184CA042FAD10B48001F046844F459
:1023300080440460006800F480400590CDE90312F9
:102340004FF470408DE8290069460F48FEF7CCF93C
:10235000E5E7000000300140443802400000024040
:1023600058640240980300202E2E2F5372632F735F
:10237000746D3332663478785F68616C5F6D73704A
:102380002E63000000380040000402404FF0E021BE
:102390000428086903D020F004000861704740F069
:1023A0000400FAE7704710B5401EB0F1807F01D3FA
:1023B000012010BD4FF0E02460610F21601700F094
:1023C000A9F90020A06107202061002010BD10B5F0
:1023D000FFF7E8FF10BD000000B500680E4987B0A8
:1023E000884216D10D48016841F020010160006863
:1023F000694600F0200005904020009012200190D6
:102400000120029003200390082004900448FEF766
:102410006BF907B000BD00000014014044380240D1
:102420000008024070B5040004D094F83D00002577
:1024300010B106E0012070BD84F83C50204600F049
:102440001BF8022084F83D00204600F001FC2068C3
:10245000016921F4804101612068416921F02A016C
:1024600041612068C16841F40051C16025640120C8
:1024700084F83D00002070BD00B500680E4987B0AB
:10248000884217D10D480021026842F01002026014
:10249000006800F0100005904FF4E060009002200A
:1024A000CDE9010103200390072004906946044808
:1024B000FEF71AF907B000BD001001404438024091
:1024C00000000240FEE700002DE9F047394886B0E1
:1024D0000024016841F004010160016801F0040179
:1024E0000591016841F080010160016801F08001FF
:1024F0000591016841F001010160016801F00101ED
:102500000591016841F0020101600068DFF8A880D0
:1025100000F002000590002210214046FEF7BAF9B3
:10252000DFF89890002280214846FEF7B3F9DFF8E3
:1025300090A04FF40077002239465046FEF7AAF9E2
:102540003C20CDE90004694648460294FEF7CCF8E9
:102550004720CDE90004694640460294FEF7C4F8DE
:1025600010200126CDE90006032569464046CDE945
:102570000245FEF7B9F88020CDE9000669464846D5
:10258000CDE90245FEF7B0F801A90220009781E8E5
:1025900031000520049069464846FEF7A5F8CDE9CC
:1025A000007669465046CDE90245FEF79DF806B033
:1025B000BDE8F087303802400000024000080240C9
:1025C00000040240164810B5144901600021E023C0
:1025D000C0E90D13C16301220164C0E90121042394
:1025E0000161C0E905139305C361C0E90812C16028
:1025F000816213024364C162C0E912210165416531
:1026000081658021C165082101664FF6FF71416631
:10261000FFF7E2FC002800D0FEE710BD045801409F
:102620007C0100200E4810B50C4901604FF4827106
:10263000416000214FF40062C0E902129210016172
:10264000C0E90512C1610162416281620A21C16271
:10265000FFF7EAFD002800D0FEE710BD0030014082
:10266000040200200E4810B50C4901604FF482713D
:10267000416000214FF40062C0E90212D201016101
:10268000C0E90512C1610162416281620A21C16231
:10269000FFF7CAFD002800D0FEE710BD003800405B
:1026A0005C0200200B4810B5094901604FF4E1318C
:1026B0004160002181600C22C160C0E90412816187
:1026C000C1610162FFF7AEFE002800D0FEE710BD39
:1026D00000100140B402002010B50022084909484A
:1026E00000F0BAFD0849074800F0B9FF074905485E
:1026F00000F0F2FBBDE81040024800F0FDBF000012
:1027000024000020F80300203401002014000020E1
:10271000FEE770470907090E002806DA00F00F00EF
:1027200000F1E02080F8141D704700F1E02080F8EF
:10273000001470470148FEF7E3BA00001C1800209F
:102740002DE9F84F0F46C1EBC70100EB810582462A
:102750000668D5E91301441A286C3835A04200D226
:102760000446E01C4FEA900806EB471916E0441AAD
:10277000A868A04200D20446E01C4FEA90089AF8EC
:1027800010000090A3B2FAB23046E96801F06AFD89
:10279000E8682044E860A8692044A861D9F81809CD
:1027A00080B2404505D9D5E90501814201D2002812
:1027B000DDD134B90120D6F83418B8408143C6F8C9
:1027C00034180020BDE8F88F70470000C26800216F
:1027D0003AB1012A02D0022A03D101E0102100E01F
:1027E00020218268032A01D141F001010068064AD4
:1027F000904203D0044A2032904202D10248001F86
:1028000000E002480160704704580140005C01404C
:1028100010B50E4941F6583203680968B1FBF2F170
:102820008A001C68002124F480341C60521E06D2E9
:1028300050F8841F41F040010160032103E0036868
:102840001B68DB03F2D4084610BD00000C0000201A
:1028500000680649884203D004492031884201D1EA
:10286000042000E00820FEF72BBE000004580140C1
:10287000704710B5FEF750F8BDE81040FFF7A7BD50
:1028800070B53148AAB00025016841F0805101605F
:10289000006800F0805029902C48016841F44041C4
:1028A00001600068012600F4404029903004CDE921
:1028B000176002248001CDE91D4006201F90AF2043
:1028C000CDE92004229417A82394FFF7E3F900B17F
:1028D000FEE7FEF7BDFD00B1FEE724A90F2081E869
:1028E00031004FF4A05027904FF4805028900521DC
:1028F00024A8FFF7C5F800B1FEE74FF482700090FE
:1029000007200690DB2007900820CDE90804000688
:1029100015904FF44010CDE90B606846FEF798FE25
:1029200000B1FEE7FFF744F94FF47A71B0FBF1F024
:10293000FFF739FD0420FFF729FD00221146501E44
:10294000FEF764F82AB070BD4038024000700040C5
:102950001048016841F4700101600F48016841F0BE
:10296000010101600C4A00210832116002680B4B22
:102970001A400260031D0A4A1A60026822F480228B
:10298000026005480C300160024958068039086031
:102990007047000088ED00E000380240FFFFF6FEBF
:1029A000103000242DE9F04104460068016921F44B
:1029B0004052E168114301612168C86849F20C6224
:1029C00090432369A268E5691A4363692B431A435C
:1029D0000243CA602168486920F44072A06910432C
:1029E0004861E1696425B1F5004F9748974A21682D
:1029F0004FF032083FD0914201D081427CD1FFF7A5
:102A0000EDF800EBC00101EB001061688900B0FB3C
:102A1000F1F6FFF7E3F800EBC00101EB001061688D
:102A20008900B0FBF1F0B0FBF5F06FF018014843FE
:102A300006EB800108EB0110B0FBF5F000F0F006AA
:102A4000FFF7CCF800EBC00101EB001061688900D2
:102A5000B0FBF1F0B0FBF5F006EB0016FFF7BEF8A7
:102A600000EBC00101EB001061688900B0FBF1F7D9
:102A7000FFF7B4F8D2E0914201D081423DD1FFF797
:102A8000ADF800EBC00101EB001061684900B0FB3C
:102A9000F1F0B0FBF5F00601FFF7A0F800EBC00184
:102AA00001EB001061684900B0FBF1F7FFF796F801
:102AB00000EBC00101EB001061684900B0FBF1F0D0
:102AC000B0FBF5F06FF01801484307EB800108EB0D
:102AD000C100B0FBF5F000F0F80006EB4006FFF790
:102AE0007DF800EBC00101EB001061684900B0FB0C
:102AF000F1F7FFF773F83CE055E0FFF75FF800EB04
:102B0000C00101EB001061684900B0FBF1F0B0FBBF
:102B1000F5F00601FFF752F800EBC00101EB0010E1
:102B200061684900B0FBF1F7FFF748F800EBC0011E
:102B300001EB001061684900B0FBF1F0B0FBF5F06B
:102B40006FF01801484307EB800108EBC100B0FBB0
:102B5000F5F000F0F80006EB4006FFF72FF800EB69
:102B6000C00101EB001061684900B0FBF1F7FFF70D
:102B700025F800EBC00101EB001061684900B0FBD3
:102B8000F1F0B0FBF5F06FF01801484307EB80015E
:102B900008EBC100B0FBF5F000F0070021683044FD
:102BA0008860BDE8F081FFF709F800EBC00101EB98
:102BB000001061688900B0FBF1F6FEF7FFFF00EB43
:102BC000C00101EB001061688900B0FBF1F0B0FBBF
:102BD000F5F06FF01801484306EB800108EB011097
:102BE000B0FBF5F000F0F006FEF7E8FF00EBC001E7
:102BF00001EB001061688900B0FBF1F0B0FBF5F06B
:102C000006EB0016FEF7DAFF00EBC00101EB001047
:102C100061688900B0FBF1F7FEF7D0FF00EBC0015F
:102C200001EB001061688900B0FBF1F0B0FBF5F03A
:102C30006FF01801484307EB800108EB0110B0FB6F
:102C4000F5F000F00F00A9E700140140001001406A
:102C50002DE9F04104460068C16821F00C01C16013
:102C600022681069D4E906131943E568236A20F441
:102C70007C502B431943014341F4006010612268EA
:102C8000D16849F20C6081432369A06818436369E5
:102C90000B43184340F40040D0602068416921F4A0
:102CA000407141612949206864254FF0320888420B
:102CB00002D02749884218D1FEF790FF00EBC001EF
:102CC00001EB001061684900B0FBF1F0B0FBF5F6D4
:102CD000FEF784FF00EBC00101EB001061684900C2
:102CE000B0FBF1F7FEF77AFF17E0FEF767FF00EBA6
:102CF000C00101EB001061684900B0FBF1F0B0FBCE
:102D0000F5F6FEF75BFF00EBC00101EB0010616818
:102D10004900B0FBF1F7FEF751FF00EBC00101EBFA
:102D2000001061684900B0FBF1F0B0FBF5F06FF006
:102D30001801484307EB800108EB0110B0FBF5F0E8
:102D4000216866F31F108860BDE8F0810010014023
:102D500000140140D0F8180220B10021C0F814126C
:102D6000084670470220704770B50546D0F81842F3
:102D700000F03EFBC4F80C02D5F8180248B1D5F8B3
:102D80001C12D4F80402CA6804F5037190470020AD
:102D900070BD022070BD70B504460025812100F091
:102DA00080FA0121204600F07CFA8221204600F0C2
:102DB00078FAD4F8180250B1D4F81C0204F506745D
:102DC00040688047206801F073FA002020602846A0
:102DD00070BD10B5D0E9864159B194F80002FF28C2
:102DE00007D08B6894F8012221469847FF2084F889
:102DF0000002002010BD00000A2101800048704739
:102E00005C0000204321018000487047AC00002096
:102E10004321018000487047680000204321018061
:102E200000487047F00000202DE9F0410446007C86
:102E300000254FF4007670B3402302228121204602
:102E400000F02CFB402302220121204600F026FB4B
:102E5000082303228221204600F020FB4FF4077054
:102E600001F098FAC4F81802F0B10746D4F81C0231
:102E7000006880470020C7F81402C7F81802207CB9
:102E8000D7F8042290B140230121204600F019FB1D
:102E90002846BDE8F081FFE7334602228121204623
:102EA00000F0FCFA3346CEE70125F1E73346EBE7C5
:102EB00010B5D0F8181269B1027C002AD1F80422AA
:102EC00005D04023012100F0FCFA002010BD4FF492
:102ED0000073F7E7022010BD02460220002902D04D
:102EE0000020C2F81C127047D0F81802C0F8041273
:102EF00000207047D0F81802C0F81022C0F808125D
:102F00000020704770B50646D0F8185208780C4675
:102F100010F0600121D0202927D1E288AAB1000653
:102F2000607807D5D6F81C128B6829469847E28846
:102F3000294617E085F80002A07985F80102E288A9
:102F40002946304600F050F80FE0D6F81C126078A1
:102F500000228B682146984707E060780A2804D150
:102F600003490122304600F059F8002070BD0000EE
:102F70005800002010B5D0F8181289B1D1F81422E9
:102F80000AB1012010BD0122C1F81422B1F81022AB
:102F900093B2D1F80822812100F03DFB002010BD42
:102FA000022010BD10B5D0F81422526890470020BE
:102FB00010BD134610B50A46002100F082FA002029
:102FC00010BD134610B50A46002100F024FB002076
:102FD00010BD10B50446802100F0F4FA2046BDE88B
:102FE0001040002100F0EEBA10B50323C0F808210C
:102FF000C0F8F431C0F80C2113460A46002100F055
:1030000060FA002010BD10B505210023C0F8F411AE
:103010001A46194600F055FA002010BD10B50223DB
:103020008261C0F8F431C26113460A46002100F003
:10303000F2FA002010BD10B504210023C0F8F411ED
:103040001A46194600F0E7FA002010BD10B50A46EE
:10305000024903A000F0DDF8004810BD1C16002056
:1030600043444320436F6E66696700001220088066
:10307000004870474400002010B50A46024903A0EA
:1030800000F0C7F8004810BD1C1600204344432040
:10309000496E7465726661636500000004200880F3
:1030A000004870474000002010B50A46024903A0BE
:1030B00000F0AFF8004810BD1C16002053544D69B5
:1030C00063726F656C656374726F6E696373000021
:1030D00010B50A46024903A000F09BF8004810BD55
:1030E0001C16002053544D3332205669727475619A
:1030F0006C20436F6D506F727400000010B50A466B
:10310000024903A000F085F8004810BD1C160020FD
:10311000303030303030303030303141000000005D
:10312000F8B5044648880D46010A082954D2DFE85C
:1031300001F05304091753534951D4F81012207C5D
:103140000A6819E0207C02260028D4F8140205D071
:10315000C16A68468847014646704AE0816AF8E7D6
:10316000C1B2062926D2DFE801F0030A0F14191EA6
:10317000D4F81012207C4A686946904718E0D4F8C9
:103180001012207C8A68F7E7D4F81012207CCA68F5
:10319000F2E7D4F81012207C0A69EDE7D4F8101297
:1031A000207C4A69E8E7D4F81012207C8A69E3E7BA
:1031B00001461EE0C1B2D4F814026A46836B204671
:1031C0009847F5E7207C38B9D4F81402416B68467B
:1031D0008847EDE7207C20B129462046FFF7F9FE1D
:1031E000F8BDD4F81402016B6846884701460720F1
:1031F0004870BDF800000028F2D0EA88002AEFD01D
:10320000824200D90246ADF800202046FFF706FFB3
:10321000F8BD70B5002300281DD00446002502E04B
:103220006D1CEDB2641C2678002EF9D1022404EB4B
:1032300045041480CC545B1C0322CA5400245B1C3C
:1032400006E0CA545B1CDAB28C54521CD3B2401C48
:103250000278002AF5D170BD10B580B1D0F81432D3
:1032600013B10023C0F8143209B1C0F810120121C3
:1032700080F8FC11027000F0BFF8002010BD0220A1
:1032800010BD10B50024D0F82002FDF769FC30B164
:10329000012801D0022801D0022400E001242046A8
:1032A00010BD10B50024D0F82002FDF737FC30B176
:1032B000012801D0022801D0022400E00124204688
:1032C00010BD2DE9F0411746044641B1D4F814026F
:1032D00042698AB394F8FC01032842D043E0D4F851
:1032E000F411002504F11400022933D1D0E902635E
:1032F0009E4207D9F31A83609AB239462046FFF7F7
:1033000060FE12E04068B0FBF3F103FB1101A1B9CC
:10331000984212D3D4F8F81188420ED200221146F6
:103320002046FFF74EFEC4F8F85100231A4619460E
:10333000204600F0C6F80DE012E0D4F81402C1688F
:1033400029B194F8FC01032801D120468847204682
:10335000FFF759FE94F80002012804D184F80052C6
:1033600001E0204690470020BDE8F08170B5154689
:10337000044641B1D4F8140282693AB394F8FC01CE
:10338000032824D025E0D4F8F41104F58270032931
:103390001FD1D0E902218A420BD9531A8360084613
:1033A000834200D303469AB229462046FFF701FE26
:1033B0000FE0D4F81402016929B194F8FC01032844
:1033C00001D1204688472046FFF735FE01E0204620
:1033D0009047002070BD0020704710B5012180F893
:1033E000FC11D0F81422017952689047002010BDDA
:1033F000D0F82002FDF7DCBB10B5017859BB1749A6
:103400000222C1F8F803C0F820124FF0A040086073
:10341000062048600020C1E90320C1E90502C86117
:1034200008624862C86208630846FDF71BFF20B1C6
:103430004FF4A5710AA000F02AFF80210748FDF78C
:103440002CFB402200210548FDF72BFB80220121A7
:103450000248FDF726FB002010BD00001C180020CC
:103460002E2E2F5372632F757362645F636F6E66C7
:103470002E6300000A0601F07F01D0F82002C1EBA4
:10348000C10100EB810002D590F83A00704790F836
:10349000FA017047002070470020704770B51D4644
:1034A00013460024D0F820022A46FDF78BFB30B1EA
:1034B000012801D0022801D0022400E00124204686
:1034C00070BD10B50024D0F82002FDF7A5FB30B187
:1034D000012801D0022801D0022400E00124204666
:1034E00010BD70B50022044640231146FFF7D6FFF9
:1034F00040252B46002280212046C4F81051FFF7BA
:10350000CDFF0120256284F8FC01D4F8180228B10F
:10351000D4F814022179426820469047002070BDFB
:1035200090F8FD1180F8FC110020704710B590F85C
:10353000FC11032904D1D0F81412C96901B18847DC
:10354000002010BD01740020704710B50024D0F891
:103550002002FDF737FF30B1012801D0022801D049
:10356000022400E00124204610BD70B5044600F599
:103570000270054600F05FF80120C4F8F401B4F8C9
:103580000E02C4F8F80194F8080210F01F010AD0E6
:1035900001290DD0022910D000F08001204600F052
:1035A00011F8002070BD2946204600F0AAF8F8E77F
:1035B0002946204600F08CF9F3E72946204600F022
:1035C00019F9EEE710B50024D0F82002FDF748FB0A
:1035D00030B1012801D0022801D0022400E00124EA
:1035E000204610BD10B50024D0F82002FDF703FFDF
:1035F00030B1012801D0022801D0022400E00124CA
:10360000204610BD90F8FC1180F8FD11042180F8CF
:10361000FC110020704710B50024D0F82002FDF7FF
:103620004FFB30B1012801D0022801D0022400E074
:103630000124204610BD0A7802704A7842708A78C8
:10364000CB7802EB032242800A794B7902EB03220A
:1036500082808A79C97902EB0121C18070470246D4
:10366000002011B1C2F8141270470220704710B543
:10367000D0F8142202241AB11268904700B900242D
:10368000204610BD70B50E461A4D89780446297043
:10369000012928D894F8FC01022802D0032822D15D
:1036A00005E099B10320616084F8FC0109E091B163
:1036B000606888420AD0C1B22046FFF773FC2978BF
:1036C00061602046FFF7D3FF02280CD02046BDE8FA
:1036D0007040FFF7B0BC022084F8FC012046616016
:1036E000FFF760FCF2E731462046BDE87040FFF787
:1036F00070BC00007001002010B5FFF773FF0020C0
:1037000010BD2DE9F04100264B78012532460A2BE9
:1037100043D2DFE803F03C584251420805422A27D1
:10372000FFF7FEFC63E004468888C8B9C888B8B9CA
:10373000887800F07F0794F8FC01032810D084F803
:10374000FE7139462046FFF700FF2046FFF773FC65
:103750001FB1022084F8FC0149E084F8FC5146E0E6
:1037600020461AE0FFF78EFF41E0CB88012B14D1F1
:1037700090F8FC31022B02D0032B0ED104E08260C2
:10378000012200F1080114E00122011D11E090F86E
:10379000FC21022A04D0032A02D0FFF71AFC26E0FB
:1037A000C560D0F8041209B10321C160022200F102
:1037B0000C01FFF733FC1AE004464888012816D1B3
:1037C000C4F804520BE0044690F8FC01022801D032
:1037D0000328C5D14888012809D1C4F80422D4F8A7
:1037E00014028268204690472046FFF724FC3046AA
:1037F000BDE8F08170B50D460446287800260979A9
:10380000C0F34110012806D06878A0B301281FD06A
:1038100003283FD107E0D4F81402294682682046E5
:103820009047002070BD94F8FC01022817D00328AF
:103830002CD1688828B921B1802902D02046FFF711
:10384000C1FED4F81402294682682046904713E04E
:1038500094F8FC01022802D0032817D103E0C9B173
:1038600080291BD116E06888A0B9480604D02046FC
:10387000FFF707FDE5E703E02046FFF7DCFB09E083
:1038800094F8FC01022807D003280BD029462046D3
:10389000FFF79FFB304670BD4806FBD02046FFF780
:1038A00091FEF7E7080601F07F0004EB001501D553
:1038B000143501E005F582752046FFF7DBFD00B108
:1038C00001202860022229462046FFF7A7FBE1E7F6
:1038D00070B5054690F8FC010C4603280DD12079FF
:1038E00001280AD8D5F81402826828469047E08853
:1038F00030B92846FFF79FFB02E02846FFF769FB37
:10390000002070BD30B54C781D4B01220D78AA40C7
:10391000012CD0F81C4818D044EA0242C0F81C28F8
:103920000A7800EB4210D0F8002B12040BD4D0F828
:10393000002B0C89C4F30A042243C97843EA81416D
:103940000A43C0F8002B002030BD92B21443C0F8E7
:103950001C480C7800EB4410D0F800291204F2D473
:10396000D0F800290D89C5F30A052A43C9788904CE
:1039700041EA84510A431A43C0F80029E3E70000F2
:1039800000800010D0F800196FF30A01C0F8001988
:10399000D0F80818C1F34101022905D1D0F8001967
:1039A00041F00301C0F80019D0F8041841F4807107
:1039B000C0F804180020704770B50446049D0699AD
:1039C0000D9801290CD0E06840F04000E0602046EE
:1039D00000F028F84FF48030A063012D16D01DE0D0
:1039E000A16B21F48031A163E1680D4A1140E160CF
:1039F000E16821F44011E160012803D1E06840F45E
:103A00008010E060204600F00DF8E6E7A06840F086
:103A10000600A060A06840F02000A060002070BDFB
:103A2000BFFFBDFF01220C4902E0521C8A420BD8A5
:103A30000369002BF9DA026942F0010202610122F6
:103A400004E0521C8A4201D9032070470369DB0756
:103A5000F7D1002070470000400D0300F0B50D467F
:103A600004464F780126F206D3002D49287804EB4E
:103A70004010012F14D0D0F8007B27F40047C0F885
:103A8000007B287804EB4010C0F8002B287804EB6A
:103A90004010C0F8003B01202A7804EB42122BE0D2
:103AA000D0F8007927F40047C0F80079287804EBB3
:103AB0004010C0F80029287804EB4010C0F8003905
:103AC00001202A7804EB421202E0401C884211D8FF
:103AD000D2F808395B00F8D41021204600F02EFB04
:103AE000D4F81C0829788E40B1B2884314E0401CF9
:103AF000884201D90320F0BDD2F8083BDB06F6D49A
:103B0000D4F8040840F48060C4F80408D4F81C0811
:103B100029788E4020EA0640C4F81C080020F0BD39
:103B2000400D030010B5D0F8041821F00201C0F8D0
:103B300004180320FCF7C6FD002010BD10B5D0F816
:103B4000041841F00201C0F804180320FCF7BAFD84
:103B5000002010BD2DE9F0470E460446DDE90A1AA3
:103B60000025DDF83C80089F806B40F40010A063C6
:103B7000B8F1000F0BD1A06B20F40010A0632068F7
:103B800040F040002060206840F0800020604FF04E
:103B90000009C4F8009ED4F80008C4F80008012900
:103BA00004D0D4F8000840F0030004E0D4F8000882
:103BB0000BB140F00100C4F800081021204600F0CD
:103BC000BDFA204600F0AAFA4846C4F81098C4F896
:103BD00014984FF0FF31C4F81818C4F81C984FF02F
:103BE000904CFF2310E000BF04EB4511D1F80029F1
:103BF000002A02DAC1F800C901E0C1F80009C1F8E1
:103C00001009C1F808396D1CAE42EDD800210FE053
:103C100004EB4112D2F8005B002D02DAC2F800CBAF
:103C200001E0C2F8000BC2F8100BC2F8083B491CB7
:103C30008E42EDD8D4F8101821F48071C4F8101811
:103C4000012F0AD11449C4F83018D4F83018134A97
:103C50001143C4F83018D4F83018A0616FF08040D8
:103C600060611FB9A06940F01000A061A0690C4913
:103C70000843A061BAF1000F03D0A06940F008002A
:103C8000A061B8F1010F03D1A06906490843A06102
:103C90000020BDE8F0870000000180000300010063
:103CA00000383C8004000040816821F001018160FF
:103CB0000020704730B54D784D4C0B7800EB431326
:103CC000012D28D0D3F8105B6FF31205C3F8105BF9
:103CD0000B7800EB4313D3F8105B2540C3F8105B5F
:103CE0004B690BB18B684B610B7800EB4313D3F836
:103CF000104B44F40024C3F8104B0B7800EB431333
:103D0000D3F8104B8D68C5F312052C43C3F8104B44
:103D1000012A5CD061E04D69002DD3F810593BD0E9
:103D20006FF31205C3F810590B7800EB4313D3F867
:103D300010592540C3F810594C698B689C4200D932
:103D40004B610B7800EB4313D3F8104944F4002483
:103D5000C3F810490B7800EB4313D3F810494D69B1
:103D6000C5F3120554EA0504C3F810490B7800EBBB
:103D70004313D3F8004944F00444C3F80049012A2E
:103D80001ED04A6912B3D0F834280B78012199402B
:103D90000A43C0F8342829E02540C3F810590B78AD
:103DA00000EB4313D3F8104944F40024C3F810493E
:103DB0000B7800EB4313D3F810496FF31204D3E7E9
:103DC0000A69097800EB4110C0F814290EE00B785D
:103DD00000EB4313CA68C3F8142B097800EB4110B9
:103DE000D0F8001B41F00441C0F8001B002030BD9A
:103DF000FFFF07E00023C0F8103BD0F8103B43F46E
:103E00000023C0F8103BD0F8103B43F01803C0F873
:103E1000103BD0F8103B43F0C043C0F8103B0129E1
:103E200005D1C0F8142B4FF08021C0F8001B0020F2
:103E300070474B780A7800EB4212012B0BD0D2F876
:103E4000003B23F40013C2F8003BCA78032A17D0C2
:103E5000022A15D01DE0D2F8003923F40013C2F86D
:103E60000039CA78032A01D0022A12D1097800EB5E
:103E70004110D0F8001941F08051C0F8001908E055
:103E8000097800EB4110D0F8001B41F08051C0F8D8
:103E9000001B002070474B780A7800EB4212012B80
:103EA00014D0D2F8003B002B05DBD2F8003B23F006
:103EB0008043C2F8003B097800EB4110D0F8001BAA
:103EC00041F40011C0F8001B00207047D2F80039FF
:103ED000002B05DBD2F8003923F08043C2F800390B
:103EE000097800EB4110D0F8001941F40011C0F836
:103EF0000019E9E778B54E786FF06045834C0B7890
:103F000000EB4313012E2FD0D3F8106B6FF3120682
:103F1000C3F8106B0B7800EB4313D3F8106B2640FB
:103F2000C3F8106B4B69002B7DD08C6823445B1E5B
:103F3000B3FBF4F39BB20C7800EB4414D4F8106B91
:103F400005EAC3452E43C4F8106B0C7800EB44140B
:103F5000D4F8105B8E685E43C6F312031D43C4F8A9
:103F6000105B012A73D0B2E04E6966B3D3F81069D2
:103F70006FF31206C3F810690B7800EB4313D3F804
:103F800010692640C3F810694C698B681C44641E94
:103F9000B4FBF3F305EAC3440B7800EB4313D3F807
:103FA00010592C43C3F810490B7800EB4313D3F896
:103FB00010494D69C5F312052C43C3F81049CB785D
:103FC000012B16D027E0D3F810592540C3F810591B
:103FD0000B7800EB4313D3F8104944F40024C3F8E2
:103FE00010490B7800EB4313D3F810496FF3120418
:103FF0000FE00B7800EB4313D3F8104924F0C044D2
:10400000C3F810490B7800EB4313D3F8104944F080
:104010000054C3F81049012A12D0CB78012B17D0D5
:104020004B692BB300E037E0D0F834380D78012429
:10403000AC402343C0F83438CB78012B08D017E0CC
:104040000C7800EB44140B69C4F81439F4E738E039
:10405000D0F80838DB050B7800EB4313D3F80049A0
:1040600002D444F0005401E044F08054C3F8004905
:104070000B7800EB4313D3F8004944F00444C3F831
:104080000049CB78012B3ED100928A8A93B20A78FC
:10409000C96800F0E7F836E00B7800EB4313D3F87B
:1040A000104B8D68C5F312052C43C3F8104B0B78E9
:1040B00000EB4313D3F8104B44F40024C3F8104B27
:1040C0004FE70B7800EB4313CA68C3F8142BCA7888
:1040D000012A0FD1D0F80828D2050A7800EB421245
:1040E000D2F8003B02D443F0005301E043F0805388
:1040F000C2F8003B097800EB4110D0F8001B41F0FA
:104100000441C0F8001B002078BD0000FFFF07E05D
:10411000816841F001018160002070470021102278
:104120000261054A491C914201D903207047036985
:10413000DB06F7D400207047400D03000022202347
:1041400043EA811101610549521C8A4201D90320C9
:10415000704703699B06F7D400207047400D0300A9
:104160000021D0F8082812F0060F15D0D0F8082842
:10417000C2F34102012A0CD0D0F80828C2F3410250
:10418000032A06D0D0F80808C0F34100022802D064
:1041900002E0032100E0022108467047406900F078
:1041A00001007047D0F81818D0F81C08084080B2F9
:1041B0007047D0F81818D0F81C080840000C704759
:1041C000D0F81038D0F83428CA4002F0010243EA8F
:1041D000C21200EB4110D0F808091040704700EB04
:1041E0004111D1F8081BD0F8140808407047416904
:1041F00080690840704710B503460020D21C920821
:1042000003F5805303E01C6841F8044B401C9042C6
:10421000F9D3084610BD10B5C26822F0C042C26092
:10422000012901D021B107E0C16841F0005102E04D
:10423000C16841F08041C1603220FCF743FA0020A0
:1042400010BDD0F8002822F4FE62C0F80028D0F893
:1042500000284FF4FE6303EA01110A43C0F8002866
:104260000020704730B50024039D6DB9DB1C9B080E
:1042700000EB023000F5805004E000BF51F8042B41
:104280000260641C9C42F9D3002030BDFEE7FEE7CB
:1042900002E008C8121F08C1002AFAD1704770470F
:1042A000002001E001C1121F002AFBD1704700006D
:1042B00010B5002821D0114B0022001F196803E01F
:1042C000814203D80A4649680029F9D152B11368DE
:1042D000841A9C4204D1006818441060104602E021
:1042E000506000E0186039B102680B1A934203D1A4
:1042F0000B681A4402604968416010BD74010020D7
:1043000008B5FCF711FBFEF7BBFAFEF7DDF81D4818
:104310000024016841F4800101600068224600F435
:104320008000009021463920FCF770FB3920FCF713
:1043300061FB002211463B20FCF768FB3B20FCF7A9
:1043400059FBFEF73FF9FEF76DF9FEF78BF9FEF723
:10435000A9F90E480C4901604FF4E131C0E901149C
:104360000C21C460C0E904418461C461FCF79EFA79
:1043700000B1FEE7FEF7B0F9054C10212046FCF72E
:1043800085FAFAE73038024000140140F8020020B4
:1043900000000240F0B50B30154D20F0070100245D
:1043A000144A0FE003688B420BD38B4205D95E1A87
:1043B00043184768C3E9006700E04368136002C020
:1043C00004E0021D10680028ECD12046002802D12C
:1043D000286808B10020F0BD064A07481060074A67
:1043E000121A22F00702C0E9002401202860D7E752
:1043F00078010020740100201C1C0020181E0020E1
:104400000006101600061016000000000000000054
:10441000010203040607080900000000010203046A
:1044200040440008000000207C010000E402000875
:10443000004500087C0100209C200000A0420008EC
:10444000320182105324F41345031B0841041A3D22
:10445000041A6904136D301B089D041AA9041AD1AB
:10446000041AFD041A4D041A7904170403090412EE
:1044700001140202021640830440572D0201020378
:104480005531130A0632022A400F1C0902431B1140
:1044900025C03209041B01020B1305241610010567
:1044A000240110090104240202052406170107054E
:1044B0008203081C10090451320A1D07050102433A
:1044C0002C070581070938442A40072A8107112B48
:1044D0000907440A2204440A16FF4413292E14082B
:1044E000972D1408052F42081AD30C1A55041A697F
:1044F00004C11A11281A05041A1D04DAF91C410016
:04000005080001C529
:00000001FF
