:020000040800F2
:1000000018280020D901000837270008E924000833
:10001000352700083B030008A1420008000000004B
:10002000000000000000000000000000952800080B
:100030004D04000800000000ED2700089728000884
:10004000F3010008F3010008F3010008F3010008C0
:10005000F3010008F3010008F3010008F3010008B0
:10006000F3010008F3010008F3010008F3010008A0
:10007000F3010008F3010008F3010008F301000890
:10008000F3010008F3010008F3010008F301000880
:10009000F3010008F3010008F3010008F301000870
:1000A000F3010008F3010008F3010008F301000860
:1000B000F3010008F3010008F3010008F301000850
:1000C000F3010008F3010008F3010008F301000840
:1000D000F3010008F3010008F3010008F301000830
:1000E000F3010008F3010008F3010008F301000820
:1000F000F3010008F3010008F3010008F301000810
:10010000F3010008F3010008F3010008F3010008FF
:10011000F3010008F3010008F3010008F3010008EF
:10012000F3010008B9030008F3010008C503000843
:10013000F30100080000000000000000F3010008C7
:10014000F3010008F3010008F30100085927000833
:10015000F3010008F3010008F3010008F3010008AF
:10016000F3010008F3010008F3010008F30100089F
:10017000F3010008F3010008F3010008000000008B
:1001800000000000F3010008000000000000000073
:10019000F30100080000000000000000F301000867
:1001A000000000000000000000000000F301000853
:1001B000F3010008F3010008F3010008F30100084F
:1001C000F3010008DFF80CD000F07AF8004800478F
:1001D00015430008182800200648804706480047B5
:1001E000FEE7FEE7FEE7FEE7FEE7FEE7FEE7FEE7E7
:1001F000FEE7FEE775290008C50100082DE9F05F5C
:100200000546002092469B46884606468146402485
:100210001BE0284641464746224600F041F8534637
:100220005A46C01A914110D311461846224600F092
:1002300028F82D1A67EB01084F46224601200021BD
:1002400000F01FF817EB00094E41201EA4F1010435
:10025000DFDC484631462A464346BDE8F09F40EA87
:1002600001039B0703D009E008C9121F08C0042A34
:10027000FAD203E011F8013B00F8013B521EF9D21B
:100280007047202A04DB203A00FA02F10020704770
:100290009140C2F1200320FA03F3194390407047C4
:1002A000202A04DB203A21FA02F00021704721FACB
:1002B00002F3D040C2F12002914008431946704732
:1002C000064C074D06E0E06840F0010394E80700A3
:1002D00098471034AC42F6D3FFF778FF2844000863
:1002E0004844000870B58C1810F8015B15F007033E
:1002F00001D110F8013B2A1106D110F8012B03E0BF
:1003000010F8016B01F8016B5B1EF9D12B0705D4C6
:100310000023521E0DD401F8013BFAE710F8013B0F
:10032000CB1A921C03E013F8015B01F8015B521E2B
:10033000F9D5A142D8D3002070BDFEE70020704758
:100340000020704710B500220449054802F0E4FD82
:100350000449034802F0DAFD002010BD1414002007
:10036000F4030020140C002010B504460146064892
:1003700002F0CCFD044802F0ADFD0121204600F062
:1003800005F8002010BD0000F4030020094A10B554
:10039000D2F81822D2F814220AB1012010BD0A4660
:1003A0000146044802F0B8FDBDE81040014802F0E3
:1003B000F3BD0000F4030020014800F049B800003C
:1003C00034030020014800F043B8000094030020EB
:1003D00001681823CAB2103AB2FBF3F2054B6FF36F
:1003E0000901032A9B5CC36500D9091D8165084684
:1003F000704700000844000810B5014600208B69D2
:100400008A6A4FF0C07453B1B3F5005F15D072B172
:10041000012A0CD0022A0AD0032A09D104E01AB119
:10042000012A06D0022A03D1C96AC90100D50120D8
:1004300010BDC96AA142FAD010BD002AF7D0012A26
:10044000F2D0022AF3D0032AF3D010BD7047000087
:100450002DE9F84304464FF00009CDF800906348B9
:100460004FF41651A56D0068B0FBF1F72E6894F8B3
:100470005C10082000FA01F131420FD021680A68AF
:1004800052070BD50A6822F004020A6094F85C1047
:100490008840A860606D40F00100606594F85C10D1
:1004A0004FF0010808FA01F0304208D0216849698C
:1004B000090604D5A860606D40F00200606594F8FC
:1004C0005C1004208840304208D021680968890700
:1004D00004D5A860606D40F00400606594F85C107D
:1004E00010208840304218D021680968090714D5C7
:1004F000A86020680168490304D50068000308D596
:10050000A16C07E00168C90503D4016821F0080166
:100510000160216C09B12046884794F85C102020C6
:100520008840304231D021680968C9062DD5A860BD
:1005300094F8350005282068016806D0490347D59E
:10054000006800031DD4616C1CE021F016010160FD
:100550002068416921F080014161206C08B9A06CDC
:1005600020B12068016821F00801016094F85C1056
:100570003F208840A86084F8349084F83580216D4D
:100580001FE0E16B09B120468847606D00282BD041
:10059000606DC00714D0052084F83500206801681C
:1005A00021F0010101600098401C0090B84203D87E
:1005B00020680068C007F6D184F8349084F835804C
:1005C000E16C002910D001B02046BDE8F043084797
:1005D0000168C905D5D4016821F01001016084F8D3
:1005E000349084F83580CCE7BDE8F88354000020CF
:1005F0002DE9F041044600F04FF906465CB10025B4
:1006000084F83450022084F835002068016821F015
:10061000010101600DE00120BDE8F08100F03CF92E
:10062000801B052805D920206065032084F835004B
:10063000F2E720680068C007F0D1226811682048FE
:100640000140D4E901031843D4E903363343184386
:1006500063691843A3691843E3691843236A18437D
:100660000843616A042903D1D4E90B1319430843F1
:10067000106020684069666A20F0070130460E432A
:10068000012704280CD1A06A0643E06A40B1204645
:10069000FFF7B2FE20B14020606584F83570BAE7FC
:1006A000206846612046FFF793FE94F85C203F21C6
:1006B00091408160656584F835700020ACE70000EA
:1006C0003F8010F070B5044600F0E6F80546601C67
:1006D00002D004480078044400F0DEF8401BA04239
:1006E000FAD370BD480000202DE9F84FDFF874B14F
:1006F00000224FF001084FF0030A4FF00F090BF1F1
:10070000040E00BF0B6808FA02F42340A3426ED126
:100710004D68022D01D0122D0ED1D50800EB850CAD
:10072000DCF820505607F70E09FA07F6B5430E69B4
:10073000BE402E43CCF82060066855000F790AFAB7
:1007400005FC07F0030726EA0C06AF4037430760B5
:100750004E68012E05D0022E03D0112E01D0122E8C
:100760000ED18668CF6826EA0C06AF403743876013
:100770004668A6430C79C4F30014944034434460A3
:10078000C4688E6824EA0C04AE402643C6604C68F8
:10079000E40060D5344C256845F480452560246824
:1007A00022F0030504F480440094304C2E19D6F84E
:1007B000084895072F0F09FA07F5AC432C4DA842BE
:1007C00001D100251FE02B4DA84201D101251AE0DF
:1007D000294DA84201D1022515E0284DA84201D19A
:1007E000032510E0264DA84202D104250BE032E09B
:1007F000244DA84201D1052505E0234DA84201D191
:10080000062500E00725BD402543C6F80858DBF85B
:1008100000405D464E689C43F60300D51C432C60A7
:10082000DEF8004075464E689C43B60300D51C4375
:100830002C600C4D08352C684E689C43F60200D5A0
:100840001C432C60074D0C352C684E689C43B60247
:1008500000D51C432C60521C102AFFF453AFBDE896
:10086000F88F0000003C0140443802400030014055
:10087000000002400004024000080240000C024058
:100880000010024000140240001802400AB18161C9
:1008900070470904FBE700000148806870470000CA
:1008A0004800002070B5040004D094F839000025F9
:1008B00010B106E0012070BD84F83850204601F0E8
:1008C0009DFD242084F839002068C16821F400517E
:1008D000C160204602F078F82068016921F4904157
:1008E00001612068416921F022014161206841696C
:1008F00041F0080141612068C16841F40051C160C4
:10090000E563202084F8390084F83A00002070BDA7
:1009100002488168027811448160704748000020D5
:100920000B4810B5016841F400710160016841F4A1
:1009300080610160016841F480710160032000F072
:1009400097F8002000F006F800F024F8002010BD11
:10095000003C024070B50D4D04464FF47A71287882
:10096000B1FBF0F00A490968B1FBF0F001F02DFD90
:1009700048B9102C07D200222146501E00F058F82A
:1009800000206C6070BD012070BD00004800002098
:10099000540000201F4808B5016841F480410160FF
:1009A000006800F4804000901A48001F016841F080
:1009B00080510160006800F080500090032000F03A
:1009C00057F8002211466FF00B0000F031F80022BA
:1009D00011466FF00A0000F02BF8002211466FF06C
:1009E000090000F025F800221146501F00F020F801
:1009F00000221146101F00F01BF800221146901E25
:100A000000F016F80022BDE808401146501E00F024
:100A10000FB800004438024000F01F02012191404D
:100A20004009800000F1E020C0F80011704700008C
:100A3000F0B40E4B1B680C46C3F30223C3F1070549
:100A4000042D00D90425191D072901D2002300E037
:100A5000DB1E012606FA05F1491E214099409E4001
:100A6000761E16403143F0BC01F066BE0CED00E08E
:100A7000064900F0070208684FF6FF03184040EAF5
:100A80000220034A10430860704700000CED00E0AC
:100A90000000FA0501220168C0F8F423002280F862
:100AA000EC23886940F000608861486D024A104379
:100AB0004865002070470000030000107047006880
:100AC000416200207047F0B500680023446A31B1EC
:100AD000856A4FF4827604EB15444D1E0AE044EA21
:100AE000024181620FE006EB8307C7595B1C04EBF0
:100AF0001744DBB2AB42F6DB4FF4807303EB8101AA
:100B000044EA024242500020F0BDD0F8F80302F05F
:100B10006BBCC1EBC10200EB8202D0F8F803526C4F
:100B200002F0D8BBC1EBC10200EB8202D0F8F8039F
:100B3000D2F8042202F023BCD0F8F80302F056BC2D
:100B400010B504460A460B0601F07F00C0EBC00159
:100B500004EB810101D5383101E001F5FC71087029
:100B6000D009487094F8B803012809D0012084F80E
:100B7000B803206802F07CFF002084F8B80310BDA1
:100B8000022010BD70B50A460446090602F07F0037
:100B900005D5C0EBC00104EB8101383105E0C2EBA3
:100BA000C20104EB810101F5FC7100258D70087014
:100BB000D009487094F8B803012809D0012084F8BE
:100BC000B803206803F03FF984F8B853002070BDE3
:100BD000022070BD01F00F01C1EBC10100EB8100EB
:100BE000B0F8100280B2704770B504460D460E068C
:100BF00001F07F00C0EBC00104EB810101D5383169
:100C000001E001F5FC71ED0908704D708A60CB7050
:100C100000D0C8800025022B00D10D7194F8B803D4
:100C2000012809D0012084F8B803206802F074FE7E
:100C3000284684F8B85370BD022070BD70B50C46CC
:100C400001F07F05C5EBC50100EB8101C1F80C3255
:100C5000C1F804220023C1F8103281F8F93181F87B
:100C6000F851036901F5FC71012B00D10A6162069C
:100C7000027C006803D003F047F9002070BD03F048
:100C800023F8FAE770B50D460446090605F07F0023
:100C900005D5C0EBC00104EB8101383105E0C5EB9F
:100CA000C50104EB810101F5FC7101228A70087015
:100CB000E809487094F8B803012807D084F8B823ED
:100CC000206803F0F2F8680602D007E0022070BD49
:100CD000217C04F56F72206803F096F8002084F8F8
:100CE000B80370BD70B50C4601F07F05C5EBC501BA
:100CF00000EB8101CB644A6400230B65012381F87A
:100D0000393001F8385F0369012B00D10A616206AE
:100D1000027C006803D003F0F7F8002070BD02F0F9
:100D2000D3FFFAE72DE9F84F044600680026054690
:100D300003F03EFA00287DD1206803F062FA002813
:100D400078D0206803F05DFA800704D520684169F7
:100D500001F002014161206803F053FA010304F538
:100D60006F704FF0010A4FF00009009055D52068D0
:100D700003F029FA07464EE0F8074AD0F1B220689E
:100D800003F037FA8046C00728D005EB4612C2F8B8
:100D900008AB2069012811D1C6EBC60004EB800026
:100DA000D2F8102BD0F80012C2F312028A1AC0F83F
:100DB0001022D0F804221144C0F80412F1B22046E7
:100DC000FFF7B0FE2069012808D13EB9D4F80C0223
:100DD00020B920680121009A03F016F85FEA087034
:100DE00007D5204600F012FB05EB46110820C1F89C
:100DF000080B5FEAC86004D505EB46111020C1F866
:100E0000080B5FEA886004D505EB46112020C1F885
:100E1000080B7F08761C002FAED1206803F0F1F993
:100E200040034FF0400B5ED5206803F0C5F907463C
:100E3000002656E0FAE1F80751D0F1B2206803F03D
:100E4000C9F98046C00724D0D5F834280AFA06F03C
:100E50008243C5F8342805EB4610C0F808A920697C
:100E6000012807D1C6EBC60004EB8000D0E91021B1
:100E700011444164F1B22046FFF74BFE206901287E
:100E800007D136B9E06C20B920680121009A02F040
:100E9000BBFF5FEA087004D505EB46110820C1F8D6
:100EA00008095FEAC86004D505EB46111020C1F8B7
:100EB00008095FEA486003D505EB4611C1F808B997
:100EC0005FEA887004D505EB46100221C0F80819C6
:100ED0005FEA086003D53146204601F043FC7F08F5
:100EE000761C002FA7D1206803F08BF9002811DAB7
:100EF000D5F8040820F00100C5F8040894F8EC03C4
:100F000001283AD0204600F067FA2068416901F0D4
:100F100000414161206803F074F900050BD5D5F854
:100F20000808C00702D0204600F08CFA206841690A
:100F300001F400614161206803F063F900010AD502
:100F40002068416901F00061416194F8EC03D8B177
:100F5000204600F077FA206803F053F9C00460D50A
:100F6000D5F8040820F00100C5F804081021206815
:100F700003F0EEF80020FF211BE084F8EC93002141
:100F80002046FFF79BFDC0E784F8ECA32068406D86
:100F90000121C0F38300C4F8F0032046FFF78EFD63
:100FA000D9E700BF05EB4012C2F80819C2F8081BC8
:100FB000401C62688242F5D84FF0FF30C5F818082F
:100FC000D5F81C0840F00110C5F81C08206B60B172
:100FD000D5F8840840F00B00C5F88408D5F844081B
:100FE00040F00B00C5F844080BE0D5F8140840F0B9
:100FF0002B00C5F81408D5F8100840F00B00C5F810
:101000001008D5F8000820F4FE60C5F80008217C1F
:101010002068009A02F0F8FE2068416901F48051CE
:101020004161206803F0EDF880047DD5206802F06E
:10103000B3FC2068C16821F47051C160206803F0DE
:1010400099F878B10320C4F814B0E06000F0C2FD54
:101050007749784A014491420AD22068C16841F434
:10106000705158E04FF40070C4F80C90606136E0A5
:101070007149724A0144914204D22068C16841F426
:10108000605148E06E496F4A0144914204D22068A1
:10109000C16841F450513EE06B496C4A01449142B1
:1010A00004D22068C16841F4405134E06849694A7B
:1010B0000144914204D22068C16841F430512AE0D1
:1010C0006549664A0144914204D22068C16841F4EE
:1010D000205120E06249634A0144914204D22068D1
:1010E000C16841F4105116E05F49604A01449142E1
:1010F00004D22068C16841F400510CE05C49084406
:101100005C4988422068C16803D241F4E05102E0A2
:101110000AE041F4C051C160204600F04DF920685A
:10112000416901F400514161206803F06AF8C0068A
:1011300036D52068816921F010018161D5F82080C1
:1011400008F00F00C0EBC00004EB8007C8F3434079
:1011500007F5FC77022802D0062812D01BE047F6DC
:10116000F07118EA010F16D0C8F30A12904628460B
:10117000F96803F04AF8F8684044F860B8694044F8
:1011800008E008222846009903F03FF8B969C8F33F
:101190000A100844B8612068816941F0100181613A
:1011A000206803F02EF8000707D5204600F018F954
:1011B0002068416901F008014161206803F021F8CD
:1011C000C00208D5F1B2204600F056F82068416907
:1011D00001F480114161206803F013F8800208D502
:1011E000F1B2204600F04CF82068416901F400118A
:1011F0004161206803F005F8400007D52046FFF75D
:1012000084FC2068416901F080414161206802F05E
:10121000F8FF40070AD520684568680702D52046D0
:10122000FFF78AFC2068416829434160BDE8F88FD8
:10123000405327FF00350C00401E1BFF40420F00AB
:1012400000DC0BFF804F1200808CF9FE20D61300CB
:1012500060B6E5FE60E3160000D3CEFE40771B00CB
:10126000C05BB3FEC091210000CA91FE207538001A
:10127000E05459FEE09C4100D0F8F80302F014B9A4
:10128000D0F8F80302F012B9F0B58BB004004FF0BB
:10129000000554D0032084F8B903204600F05AF822
:1012A000206802F00BFD04F1100128220F46684669
:1012B000FEF7D5FF94E80F0002F088FB00212068BC
:1012C00002F0B3FF01260020C5EBC50104EB81014C
:1012D00081F8396001F8385FCD80C8708860C860D7
:1012E0006D1C48610F2DEFD300214FF4827300BFB6
:1012F000C1EBC10204EB820203EB810582F8F90124
:1013000082F8F811D18782F8FB01C2F80002C2F816
:101310000402C2F80C0222685051491C0F29E7D37D
:10132000282239466846FEF79AFF94E80F0002F03B
:101330001BFC84F8B963606A012803D005E0012032
:101340000BB0F0BD2046FFF7A5FB206802F000FCC3
:101350000020F5E700B5006887B0B0F1A04F25D1B7
:101360004FF4C05000900220019000200290032012
:1013700003900A20049069460D48FFF7B5F90D481F
:10138000016841F0800101600A481030016841F4B1
:10139000804101600068002200F480400590114601
:1013A0004320FFF745FB4320FFF736FB07B000BDA6
:1013B000000002403438024010B50446C0680121E4
:1013C00000B90021D4F8F80302F0C6F8D4F8F80305
:1013D000BDE8104002F08FB8D0F8F80302F0AAB8C8
:1013E000D0F8F80302F0ACB810B5044690F8B80392
:1013F000012809D0012084F8B803206802F02BFFEF
:10140000002084F8B80310BD022010BDD0F8F823E6
:1014100000F56F71104602F0B2B810B5044690F8AE
:10142000B80301280CD0012084F8B803206802F02A
:1014300083FB206802F076FE002084F8B80310BD1C
:10144000022010BD10B50446D0F8F80302F0E4F80D
:101450002068D0F8001E41F00101C0F8001E206A8B
:10146000002804D00248016841F00601016010BD67
:1014700010ED00E02DE9F8431748016841F0805174
:1014800001600068154F00F08050012600903E6416
:10149000FFF702FA05464FF47A78114C05E000BFD9
:1014A000FFF7FAF9401B40450DD86068C003F7D537
:1014B0007E64FFF7F1F90546464607E0FFF7ECF9D1
:1014C000401BB04202D90320BDE8F8836068800366
:1014D000F4D50020F8E700004038024000000E423A
:1014E00000700040F0B5614A6049064600205D4C3E
:1014F0005D4B5E4D083A8839012E68D0022E74D0BB
:10150000042E01D0082E45D12E6806F4700637034C
:101510003F0B3FD136150D2E3CD2DFE806F00720F9
:101520003C56203B3B3B3C3B3B3B51000868410267
:101530004F48016801F03F0102D4B4FBF1F101E032
:10154000B3FBF1F102680068C2F30362C0F38810D4
:101550004843B0FBF2F12868C0F3042016E00868A5
:101560004002106800F03F0002D4B4FBF0F001E04C
:10157000B3FBF0F011681268C1F30361C2F3881283
:101580004243B2FBF1F1286800F01F0010F10100A6
:10159000B1FBF0F0F0BD08684002086800F03F00C1
:1015A00002D4B4FBF0F001E0B3FBF0F00A68096884
:1015B000C2F30272C1F388114143B1FBF2F0F0BDF6
:1015C0000868400201D42046F0BD1846F0BD2D68E1
:1015D00015F0C0653BD0B5F1007FF6D0B5F1806F56
:1015E00012D0B5F1C06FF1D12DE01FE0B3FBF0F0E8
:1015F00002E000BFB4FBF0F01168C1F38811414371
:101600001068C0F30270C3E708684002086800F081
:101610003F0023D5B3FBF0F00A68C2F388124243BF
:101620000868C0F30270B2FBF0F0F0BD2D6815F051
:10163000C0550CD0B5F1006FC7D0B5F1805FE3D0D5
:10164000B5F1C05FF1D108684002BED4BBE70868BD
:101650004002106800F03F00CCD5C7E7B4FBF0F0C3
:10166000DAE700000024F4000080BB008C38024060
:10167000883802402DE9F84F044600260078F84DDE
:101680003746C00708D02868A16B20F0C060084327
:101690002860A06B00B901262078800708D528684B
:1016A000E16B20F0C05008432860E06B00B90126D0
:1016B000207840070ED52868216B20F4401008439D
:1016C0002860206BB0F5801F01D010B102E0012628
:1016D00000E00127207800070ED52868616B20F410
:1016E000400008432860606BB0F5800F01D010B156
:1016F00002E0012600E0012720784FF0000A800672
:101700004FF0010B63D5D6484C38016841F0805149
:1017100001600068DFF84C9300F080500090D9F829
:10172000001041F48071C9F80010FFF7B5F8804649
:1017300006E000BFFFF7B0F8A0EB080002286FD862
:10174000D9F80000C005F5D5DFF81483A8F11C080E
:10175000D8F8000010F4407024D0B4F8401001F420
:10176000407181421ED0D8F80010BF4A21F4407168
:10177000C2F800B0C2F800A0C8F80010D8F8000005
:10178000C0070FD0FFF788F8814607E0FFF784F81D
:10179000A0EB090141F288308142D0D8D8F800008E
:1017A0008007F3D5216CAE48C1F301228438032AA7
:1017B00037D0016821F4F811C0F80010D8F80010F3
:1017C000B4F84020C2F30B021143C8F8001020788F
:1017D000C00604D5A54894F85810C0F8E011207848
:1017E0000106A34805D50168E26C21F440011143CC
:1017F00001602178490605D50168A26C21F080615D
:10180000114301602188C90514D50168626D21F07A
:10181000006111430160616DB1F1006F09D009E011
:101820001DE10268934B22F4F81219400A4302604A
:10183000C4E701272188890505D50168626C21F07C
:101840008051114301602188DFF82C92490509D5A8
:101850000168226D21F0005111430160206DB0F14B
:10186000005F04D01EB92068B0F5006F7ED18349B7
:10187000C1F868A0FFF710F8794E80468C3E05E06D
:10188000FFF70AF8A0EB0800022886D830680001AC
:10189000F6D421687A48CA0701D0A26B1AB1890729
:1018A00017D5E16BA9B901680268C1F30141491C70
:1018B000D4E9013C43EA8C1321F0004CC2F30362EB
:1018C00009EB0C4141EA02610B43217D43EA0171BE
:1018D000016021684A0703D5226BB2F5801F05D04D
:1018E000090721D5616BB1F5800F1DD10168026830
:1018F000C1F30141491CD4E9013C43EA8C1321F0B6
:10190000004C09EB0C4194F810C0C2F3027241EA9A
:101910000C610B4343EA027101602968A26A21F05D
:101920001F01521E11432960218849051AD5216DD6
:10193000B1F1005F16D101680268C1F30141491C91
:10194000D4E9013C43EA8C13D4F80CC0C2F3027210
:101950004FEA5C0809EB084C4CEA41610B4343EA4F
:10196000027101602188090511D500E01FE0D4E96A
:10197000011241EA8211E268530809EB0342237C19
:1019800042EA03621143227D41EA027101603B4950
:10199000C1F868B0FEF780FF804605E0FEF77CFFE7
:1019A000A0EB0800022874D830680001F6D5EFB328
:1019B000DFF8C880C8F870A0FEF76EFF304E07460B
:1019C000843E04E0FEF768FFC01B022861D830683F
:1019D000C0438000F6D521682A484A0701D5226B0A
:1019E0001AB109071DD5616BD9B90168D4E906237D
:1019F000C1F30141491C42EA831221F0004309EB83
:101A0000034194F8243041EA03610A4302602968E3
:101A1000E26A6FF0FF0321F4F85103EB0222114355
:101A200029602188C90514D5616D00E038E0B1F165
:101A3000006F0ED10168D4E9062342EA8312236ABB
:101A4000C1F303615C0809EB044343EA01610A4303
:101A50000260C8F870B0FEF71FFF04461CE018E0F3
:101A60008C38024000700040400E47420010474250
:101A700094380240FFFCFF0F0000FFFF00004742C8
:101A80008438024088380240FEF706FF001B022817
:101A900002D90320BDE8F88F3068C0438000F3D43A
:101AA0000020F7E72DE9F0470E46050065D0DFF886
:101AB0001481D8F80000F7B200F00F00B04207D24E
:101AC00088F80070D8F8000000F00F00B04254D140
:101AD00028683D4C810712D5400703D5206840F4A3
:101AE000E05020602878000703D5206840F460406B
:101AF00020602068A96820F0F00008432060287862
:101B0000C0072DD0304968680839012812D0022852
:101B100013D0032811D00968890700292DDA21681C
:101B200021F0030101432160FEF7B6FE814641F238
:101B3000883A0EE009688903EFE709688901ECE754
:101B4000FEF7AAFEA0EB0901514502D90320BDE82A
:101B5000F0872068696800F00C00B0EB810FEFD1CE
:101B6000D8F80010404601F00F01B14207D90770C4
:101B7000006800F00F00B04201D00120E7E72878AC
:101B8000400705D52068E96820F4E050084320604C
:101B90002878000706D52068296920F4604040EACB
:101BA000C100206000F03CF82168084AC1F303112D
:101BB000515CC840064908600020FEF7CBFE0020BB
:101BC000C5E70000003C024008380240104400080D
:101BD00054000020014800687047000054000020B5
:101BE0000448054900680968044AC1F38221515C30
:101BF000C8407047540000200838024020440008C4
:101C00000448054900680968044AC1F34231515C3F
:101C1000C8407047540000200838024020440008A3
:101C2000224810B5006810F00C02214815D0214957
:101C3000042A11D01D4C241F082A0FD00C2A0CD1C5
:101C40002268236802F03F025B0221D52068C0F3BE
:101C50008810A0FB010120E0084610BD226823681F
:101C600002F03F025B0205D52068C0F38810A0FB9C
:101C7000010104E02168C1F38811A1FB00010023E8
:101C8000FEF7BCFA2168C1F30141491C49000AE092
:101C90002168C1F38811A1FB00010023FEF7AEFA11
:101CA0002168C1F30271B0FBF1F010BD08380240A9
:101CB0000024F4000080BB002DE9F84F0546DFF852
:101CC00028B30078ABF10407C007A7F1040451D092
:101CD000DBF800105846C1F3810101290FD00168DB
:101CE000C1F38101022902D13968490207D4006891
:101CF000C0F38100032809D13868400206D5206866
:101D0000800337D56868002872D033E06868B0F582
:101D1000803F10D0B0F5A02F206810D020F4803084
:101D20002060206820F4802020606868A8B1FEF759
:101D3000B3FD06460DE0206840F48030F4E740F43F
:101D400080202060F7E700BFFEF7A6FD801B642817
:101D500078D820688003F7D50CE0FEF79DFD064695
:101D600005E000BFFEF798FD801B6428F0D82068CE
:101D70008003F7D42878DFF8749280074FF0000AC8
:101D800046D5DBF80010584611F00C0F0FD0016853
:101D9000C1F38101022902D13968490207D50068DF
:101DA000C0F38100032809D13868400206D42068B6
:101DB000800715D5E86801281AD111E0E868C0B19C
:101DC0000120C9F80000FEF767FD064605E000BFE8
:101DD000FEF762FD801B0228BAD820688007F7D57D
:101DE0002068296920F0F80040EAC10020600FE077
:101DF000F7E0C9F800A0FEF74FFD064605E000BF7A
:101E0000FEF74AFD801B02281CD820688007F7D403
:101E10002878000727D5DFF8D0817548696908F16F
:101E20006C0881B101210160FEF736FD064604E031
:101E3000FEF732FD801B022804D8D8F80000800786
:101E4000F6D510E089E0C0F800A0FEF725FD0646B3
:101E500005E000BFFEF720FD801B02287DD8D8F8E2
:101E600000008007F6D42878400769D55E484FF017
:101E7000000838300068C0000BD45B483830016877
:101E800041F08051016000684FF0010800F080507F
:101E90000090584E3068C00511D4306840F480700E
:101EA0003060FEF7F9FC009006E000BFFEF7F4FC9E
:101EB0000099401A022850D83068C005F6D54A4E1D
:101EC000A868683601280FD00528306810D020F0A7
:101ED00001003060306820F004003060A868B8B1BC
:101EE000FEF7DAFC00900FE0306840F00100F4E704
:101EF00040F004003060F7E7FEF7CEFC0099411A8D
:101F000041F28830814264D830688007F4D50EE011
:101F1000FEF7C2FC009007E0FEF7BEFC0099411AF4
:101F200041F28830814254D830688007F4D4B8F147
:101F3000000F05D02C483830016821F08051016035
:101F4000A869A8B3DBF80010C1F38101022948D0C9
:101F50000228C9F860A005D000E03AE0FEF79CFC3A
:101F6000054639E0FEF798FC064604E0FEF794FCCF
:101F7000801B02282DD820688001F7D4F5E90701DD
:101F80000843E9681C4A490802EB0141AA6841EA92
:101F900082110843297C40EA0160297D40EA0170F2
:101FA00038600120C9F86000FEF776FC054606E0BF
:101FB00015E000BFFEF770FC401B022809D820681E
:101FC0008001F7D50BE000BFFEF766FC401B02283E
:101FD00002D90320BDE8F88F20688001F4D40020E6
:101FE000F8E70120F6E70000083802400000474209
:101FF000800E4742007000400000FFFF70B50400F3
:102000004FF0000504D094F88100002610B106E0DE
:10201000012070BD84F88060204600F0A1F8022005
:1020200084F88100204600F005FC204600F0E0FB2B
:10203000206AA8B1204600F01DFC216A00EB800058
:1020400040004902B0FBF1F10A22B1FBF2F0B1FB12
:10205000F2F302FB13116062082901D9401C60628F
:1020600060684FF4007170B102280CD0206C012818
:1020700000D00021A06878B1012808D0022809D03A
:10208000032809D106E0206C0128F2D0F2E74FF4D2
:10209000806501E04FF40065206802682E4B1A400D
:1020A0000260626B60681043D4E90E231A43104348
:1020B0000843A16A2843084321690843616908432A
:1020C000A18C40EA01512068026811430160206838
:1020D00041684EF20F029143416021684868A2694D
:1020E0001043D4E90B231A431043486020688168E9
:1020F0001A4A11408160626DE06C616C0243206D90
:10210000491E08430243A06C6FF0FF0101EB002061
:102110000243206883681A4382602068C2684FF2D5
:1021200020031A40C260D4E916021043226E01EB6C
:102130000221B4F8642041EA024108432168CA68D8
:102140001043C860C4F88460012084F8810084F8DA
:102150008060002070BD000010C005FF0080F8FF07
:102160002DE9F04306460068294987B088424CD1E2
:10217000284A0025116841B92748036843F48003C1
:102180000360006800F480000590491C116002247F
:1021900001AB03274FF00608009483E8B0016946BD
:1021A0001E48FEF7A1FA08208DE8B10169461C48D7
:1021B000FEF79AFA4FF4806901ABCDF8009083E8FE
:1021C000B00169461748FEF78FFA184C1648C4E963
:1021D0000005A5608014E560C4E904908000A0615A
:1021E0008011E0614002206204206062C4E90A7547
:1021F00020462563FEF7FCF920B14FF4BF710CA017
:1022000002F04FF87467A663346707B0BDE8F08347
:1022100004580140440000204438024000080240B5
:102220000000024000040240286402403403002001
:102230002E2E2F5372632F73746D33326634787879
:102240005F68616C5F6D73702E63000070B5040091
:1022500005D00025A56294F8510010B106E00120D8
:1022600070BD84F85050204600F030F8022084F809
:1022700051002068016821F040010160D4E90101AA
:102280000843D4E903121143084361690843218BD1
:1022900001F400710843E1690843216A0843A16A17
:1022A000084321680860A069042101EA1040616ABE
:1022B0000843216848602068C16921F40061C16158
:1022C0006565012084F85100002070BD70B5064698
:1022D0000068294C002502230321052286B0A04274
:1022E00031D12648046844F480540460006800F446
:1022F00080500590CDE90312A0208DE829006946A1
:102300001F48FEF7F1F9204C1E4820604FF0C060D6
:1023100060604020C4E90205000120614000606166
:102320008000C4E906054FF44030C4E908052046A2
:10233000FEF75EF918B1822114A001F0B2FFB46477
:10234000A66306B070BD184CA042FAD10B48001F1E
:10235000046844F480440460006800F48040059000
:10236000CDE903124FF470408DE8290069460F480B
:10237000FEF7BAF9E5E700000030014044380240BA
:102380000000024058640240940300202E2E2F5378
:1023900072632F73746D3332663478785F68616C62
:1023A0005F6D73702E63000000380040000402402F
:1023B0004FF0E0210428086903D020F004000861F0
:1023C000704740F00400FAE7704710B5401EB0F1C6
:1023D000807F01D3012010BD4FF0E02460610F2108
:1023E000601700F0A9F90020A061072020610020FB
:1023F00010BD10B5FFF7E8FF10BD000000B5006884
:102400000E4987B0884216D10D48016841F020017D
:1024100001600068694600F02000059040200090AF
:1024200012200190012002900320039008200490C4
:102430000448FEF759F907B000BD00000014014040
:10244000443802400008024070B5040004D094F8FB
:102450003D00002510B106E0012070BD84F83C501D
:10246000204600F01BF8022084F83D00204600F0D2
:1024700001FC2068016921F4804101612068416903
:1024800021F02A0141612068C16841F40051C16016
:102490002564012084F83D00002070BD00B500686F
:1024A0000E4987B0884217D10D480021026842F0DA
:1024B00010020260006800F0100005904FF4E06028
:1024C00000900220CDE90101032003900720049031
:1024D00069460448FEF708F907B000BD0010014046
:1024E0004438024000000240FEE700002DE9F047BA
:1024F000394886B00024016841F004010160016898
:1025000001F004010591016841F08001016001685A
:1025100001F080010591016841F00101016001684D
:1025200001F001010591016841F0020101600068BC
:10253000DFF8A88000F0020005900022102140463C
:10254000FEF7A4F9DFF89890002280214846FEF7B4
:102550009DF9DFF890A04FF40077002239465046ED
:10256000FEF794F93C20CDE9000469464846029400
:10257000FEF7BAF84720CDE90004694640460294C8
:10258000FEF7B2F810200126CDE9000603256946C2
:102590004046CDE90245FEF7A7F88020CDE90006C8
:1025A00069464846CDE90245FEF79EF801A902209A
:1025B000009781E831000520049069464846FEF7FF
:1025C00093F8CDE9007669465046CDE90245FEF71D
:1025D0008BF806B0BDE8F0873038024000000240BA
:1025E0000008024000040240164810B5144901607A
:1025F0000021E023C0E90D13C16301220164C0E999
:10260000012104230161C0E905139305C361C0E9F9
:102610000812C160816213024364C162C0E91221E1
:102620000165416581658021C165082101664FF61C
:10263000FF714166FFF7E2FC002800D0FEE710BD05
:1026400004580140780100200E4810B50C49016083
:102650004FF48271416000214FF40062C0E9021220
:1026600092100161C0E90512C1610162416281629B
:102670000A21C162FFF7EAFD002800D0FEE710BD85
:1026800000300140000200200E4810B50C490160E6
:102690004FF48271416000214FF40062C0E90212E0
:1026A000D2010161C0E90512C1610162416281622A
:1026B0000A21C162FFF7CAFD002800D0FEE710BD65
:1026C00000380040580200200B4810B5094901604D
:1026D0004FF4E1314160002181600C22C160C0E90A
:1026E00004128161C1610162FFF7AEFE002800D0D3
:1026F000FEE710BD00100140B002002010B500221E
:102700000849094800F0B1FD0849074800F0B1FF49
:102710000749054800F0F2FBBDE81040024800F010
:10272000F5BF000000000020F40300203801002065
:1027300034000020FEE770470907090E002806DA7A
:1027400000F00F0000F1E02080F8141D704700F148
:10275000E02080F8001470470148FEF7E3BA00005B
:10276000180600202DE9F84F0F46C1EBC70100EB1A
:10277000810582460668D5E91301441A286C38356C
:10278000A04200D20446E01C4FEA900806EB47192D
:1027900016E0441AA868A04200D20446E01C4FEAA2
:1027A00090089AF810000090A3B2FAB23046E96897
:1027B00001F062FDE8682044E860A8692044A8614F
:1027C000D9F8180980B2404505D9D5E905018142FB
:1027D00001D20028DDD134B90120D6F83418B84030
:1027E0008143C6F834180020BDE8F88F7047000018
:1027F000C26800213AB1012A02D0022A03D101E0C5
:10280000102100E020218268032A01D141F001015A
:102810000068064A904203D0044A2032904202D116
:102820000248001F00E00248016070470458014060
:10283000005C014010B50E4941F658320368096842
:10284000B1FBF2F18A001C68002124F480341C6082
:10285000521E06D250F8841F41F04001016003214E
:1028600003E003681B68DB03F2D4084610BD0000D8
:102870005400002000680649884203D004492031F2
:10288000884201D1042000E00820FEF72BBE0000A2
:1028900004580140704710B5FEF73AF8BDE8104003
:1028A000FFF7A7BD70B53148AAB00025016841F017
:1028B00080510160006800F0805029902C48016828
:1028C00041F4404101600068012600F44040299035
:1028D0003004CDE9176002248001CDE91D400620B7
:1028E0001F90AF20CDE92004229417A82394FFF76E
:1028F000E3F900B1FEE7FEF7BDFD00B1FEE724A954
:102900000F2081E831004FF4A05027904FF4805001
:102910002890052124A8FFF7C5F800B1FEE74FF481
:102920008270009007200690DB2007900820CDE9F8
:102930000804000615904FF44010CDE90B6068467E
:10294000FEF798FE00B1FEE7FFF744F94FF47A7105
:10295000B0FBF1F0FFF739FD0420FFF729FD00225D
:102960001146501EFEF764F82AB070BD4038024090
:10297000007000401048016841F4700101600F4888
:10298000016841F0010101600C4A00210832116028
:1029900002680B4B1A400260031D0A4A1A60026863
:1029A00022F48022026005480C300160024958067A
:1029B000803908607047000088ED00E00038024070
:1029C000FFFFF6FE103000242DE9F04104460068B8
:1029D000016921F44052E168114301612168C8682E
:1029E00049F20C6290432369A268E5691A4363695E
:1029F0002B431A430243CA602168486920F440729D
:102A0000A06910434861E1696425B1F5004F97481A
:102A1000974A21684FF032083FD0914201D081425D
:102A20007CD1FFF7EDF800EBC00101EB001061680D
:102A30008900B0FBF1F6FFF7E3F800EBC00101EB12
:102A4000001061688900B0FBF1F0B0FBF5F06FF0A9
:102A50001801484306EB800108EB0110B0FBF5F0CC
:102A600000F0F006FFF7CCF800EBC00101EB00101E
:102A700061688900B0FBF1F0B0FBF5F006EB0016E1
:102A8000FFF7BEF800EBC00101EB001061688900A0
:102A9000B0FBF1F7FFF7B4F8D2E0914201D08142E8
:102AA0003DD1FFF7ADF800EBC00101EB001061680C
:102AB0004900B0FBF1F0B0FBF5F00601FFF7A0F81C
:102AC00000EBC00101EB001061684900B0FBF1F7B9
:102AD000FFF796F800EBC00101EB001061684900B8
:102AE000B0FBF1F0B0FBF5F06FF01801484307EBD5
:102AF000800108EBC100B0FBF5F000F0F80006EB38
:102B00004006FFF77DF800EBC00101EB00106168A3
:102B10004900B0FBF1F7FFF773F83CE055E0FFF731
:102B20005FF800EBC00101EB001061684900B0FBE9
:102B3000F1F0B0FBF5F00601FFF752F800EBC00131
:102B400001EB001061684900B0FBF1F7FFF748F8AE
:102B500000EBC00101EB001061684900B0FBF1F02F
:102B6000B0FBF5F06FF01801484307EB800108EB6C
:102B7000C100B0FBF5F000F0F80006EB4006FFF7EF
:102B80002FF800EBC00101EB001061684900B0FBB9
:102B9000F1F7FFF725F800EBC00101EB00106168C9
:102BA0004900B0FBF1F0B0FBF5F06FF018014843BD
:102BB00007EB800108EBC100B0FBF5F000F0070067
:102BC000216830448860BDE8F081FFF709F800EB28
:102BD000C00101EB001061688900B0FBF1F6FEF75F
:102BE000FFFF00EBC00101EB001061688900B0FB42
:102BF000F1F0B0FBF5F06FF01801484306EB8001EF
:102C000008EB0110B0FBF5F000F0F006FEF7E8FF6E
:102C100000EBC00101EB001061688900B0FBF1F02E
:102C2000B0FBF5F006EB0016FEF7DAFF00EBC00193
:102C300001EB001061688900B0FBF1F7FEF7D0FFEF
:102C400000EBC00101EB001061688900B0FBF1F0FE
:102C5000B0FBF5F06FF01801484307EB800108EB7B
:102C60000110B0FBF5F000F00F00A9E700140140DF
:102C7000001001402DE9F04104460068C16821F0D0
:102C80000C01C16022681069D4E906131943E56894
:102C9000236A20F47C502B431943014341F4006024
:102CA00010612268D16849F20C6081432369A068F1
:102CB000184363690B43184340F40040D060206818
:102CC000416921F4407141612949206864254FF030
:102CD0003208884202D02749884218D1FEF790FF77
:102CE00000EBC00101EB001061684900B0FBF1F09E
:102CF000B0FBF5F6FEF784FF00EBC00101EB00101E
:102D000061684900B0FBF1F7FEF77AFF17E0FEF7C4
:102D100067FF00EBC00101EB001061684900B0FBE8
:102D2000F1F0B0FBF5F6FEF75BFF00EBC00101EB45
:102D3000001061684900B0FBF1F7FEF751FF00EBAE
:102D4000C00101EB001061684900B0FBF1F0B0FB7D
:102D5000F5F06FF01801484307EB800108EB011014
:102D6000B0FBF5F0216866F31F108860BDE8F081C4
:102D70000010014000140140D0F8180220B10021D9
:102D8000C0F81412084670470220704770B5054617
:102D9000D0F8184200F035FBC4F80C02D5F8180240
:102DA00048B1D5F81C12D4F80402CA6804F50371BE
:102DB0009047002070BD022070BD70B5044600250C
:102DC000812100F077FA0121204600F073FA822178
:102DD000204600F06FFAD4F8180250B1D4F81C0263
:102DE00004F5067440688047206801F06BFA002003
:102DF0002060284670BD10B5D0E9864159B194F8DD
:102E00000002FF2807D08B6894F8012221469847DA
:102E1000FF2084F80002002010BD00000A2101807C
:102E2000004870476000002043210180004870473F
:102E3000B000002043210180004870476C00002052
:102E40004321018000487047F40000202DE9F04143
:102E50000446007C00254FF4007670B34023022224
:102E60008121204600F024FB40230222012120463C
:102E700000F01EFB082303228221204600F018FBED
:102E80004FF4077001F08AFAC4F81802F0B107464F
:102E9000D4F81C02006880470020C7F81402C7F865
:102EA0001802207CD7F8042290B14023012120464B
:102EB00000F011FB2846BDE8F081FFE7334602220F
:102EC0008121204600F0F4FA3346CEE70125F1E7F0
:102ED0003346EBE710B5D0F8181269B1027C002A2E
:102EE000D1F8042205D04023012100F0F4FA00209B
:102EF00010BD4FF40073F7E7022010BD0246022018
:102F0000002902D00020C2F81C127047D0F8180225
:102F1000C0F8041200207047D0F81802C0F8102240
:102F2000C0F808120020704770B50646D0F8185255
:102F300008780C4610F0600121D0202927D1E288C2
:102F4000AAB10006607807D5D6F81C128B6829460E
:102F50009847E288294617E085F80002A07985F8AD
:102F60000102E2882946304600F050F80FE0D6F81A
:102F70001C12607800228B682146984707E0607831
:102F80000A2804D103490122304600F059F80020F4
:102F900070BD00005C00002010B5D0F8181289B197
:102FA000D1F814220AB1012010BD0122C1F8142267
:102FB000B1F8102293B2D1F80822812100F035FB3C
:102FC000002010BD022010BD10B5D0F814225268A8
:102FD0009047002010BD134610B50A46002100F0AE
:102FE0007AFA002010BD134610B50A46002100F001
:102FF0001CFB002010BD10B50446802100F0ECFA47
:103000002046BDE81040002100F0E6BA10B50323C9
:10301000C0F80821C0F8F431C0F80C2113460A4664
:10302000002100F058FA002010BD10B50521002342
:10303000C0F8F4111A46194600F04DFA002010BDF0
:1030400010B502238261C0F8F431C26113460A460A
:10305000002100F0EAFA002010BD10B50421002381
:10306000C0F8F4111A46194600F0DFFA002010BD2E
:1030700010B50A46024903A000F0D4F8004810BD7C
:10308000140A002043444320436F6E6669670000C2
:1030900012200880004870472000002010B50A4622
:1030A000024903A000F0BEF8004810BD140A002039
:1030B00043444320496E7465726661636500000095
:1030C00004200880004870471C00002010B50A4604
:1030D000024903A000F0A6F8004810BD140A002021
:1030E00053544D6963726F656C656374726F6E697A
:1030F0006373000010B50A46024903A000F092F87D
:10310000004810BD140A002053544D333220566934
:10311000727475616C20436F6D506F7274000000A3
:1031200010B50A46024903A000F07CF8004810BD23
:10313000140A0020303030303030303030303141FF
:1031400000000000F8B5044648880D46010A082929
:103150004BD2DFE801F04A0409174A4A4048D4F844
:103160001012207C0A6832E0207C02260028D4F865
:10317000140205D0C16A684688470146467041E09E
:10318000816AF8E7C0B206282FD2DFE800F0030812
:103190000D12171CD4F81012207C4A6817E0D4F8DE
:1031A0001012207C8A6812E0D4F81012207CCA68C1
:1031B0000DE0D4F81012207C0A6908E0D4F810124F
:1031C000207C4A6903E0D4F81012207C8A696946A1
:1031D0009047014616E0207C38B9D4F81402416BC0
:1031E00068468847F5E7207C20B129462046FFF74E
:1031F00002FFF8BDD4F81402016B68468847014607
:1032000007204870BDF800000028F2D0EA88002AA4
:10321000EFD0824200D90246ADF800202046FFF7E9
:103220000FFFF8BD70B5002300281DD0044600250F
:1032300002E06D1CEDB2641C2678002EF9D1022448
:1032400004EB45041480CC545B1C0322CA540024B4
:103250005B1C06E0CA545B1CDAB28C54521CD3B21D
:10326000401C0278002AF5D170BD10B580B1D0F8AD
:10327000143213B10023C0F8143209B1C0F810128F
:10328000012180F8FC11027000F0C0F8002010BD90
:10329000022010BD10B50024D0F82002FDF772FC0A
:1032A00030B1012801D0022801D0022400E001241D
:1032B000204610BD10B50024D0F82002FDF740FCD8
:1032C00030B1012801D0022801D0022400E00124FD
:1032D000204610BD2DE9F0411746044641B1D4F80F
:1032E000140242698AB394F8FC01032842D043E0F7
:1032F000D4F8F411002504F11400022933D1D0E9E7
:1033000002639E4207D9F31A83609AB23946204677
:10331000FFF769FE12E04068B0FBF3F103FB110117
:10332000A1B9984212D3D4F8F81188420ED20022E3
:1033300011462046FFF757FEC4F8F85100231A46FD
:103340001946204600F0C7F80DE012E0D4F8140248
:10335000C16829B194F8FC01032801D120468847AF
:103360002046FFF762FE94F80002012804D184F899
:10337000005201E0204690470020BDE8F08170B582
:103380001546044641B1D4F8140282693AB394F860
:10339000FC01032824D025E0D4F8F41104F5827050
:1033A00003291FD1D0E902218A420BD9531A836025
:1033B0000846834200D303469AB229462046FFF7C7
:1033C0000AFE0FE0D4F81402016929B194F8FC0157
:1033D000032801D1204688472046FFF73EFE01E042
:1033E00020469047002070BD0020704710B5012195
:1033F00080F8FC11D0F8142201795268904700201F
:1034000010BDD0F82002FDF7E5BB000010B5017833
:1034100059BB17490222C1F8F803C0F820124FF037
:10342000A0400860062048600020C1E90320C1E9EF
:103430000502C86108624862C86208630846FDF771
:1034400023FF20B14FF4A5710AA000F02AFF8021CC
:103450000748FDF734FB402200210548FDF733FB08
:10346000802201210248FDF72EFB002010BD000044
:10347000180600202E2E2F5372632F757362645F1F
:10348000636F6E662E6300000A0601F07F01D0F8BC
:103490002002C1EBC10100EB810002D590F83A0097
:1034A000704790F8FA01704700207047002070477D
:1034B00070B51D4613460024D0F820022A46FDF7B9
:1034C00093FB30B1012801D0022801D0022400E092
:1034D0000124204670BD10B50024D0F82002FDF76D
:1034E000ADFB30B1012801D0022801D0022400E058
:1034F0000124204610BD70B5002204464023114629
:10350000FFF7D6FF40252B46002280212046C4F835
:103510001051FFF7CDFF0120256284F8FC01D4F89B
:10352000180228B1D4F81402217942682046904745
:10353000002070BD90F8FD1180F8FC11002070474C
:1035400010B590F8FC11032904D1D0F81412C96900
:1035500001B18847002010BD01740020704710B5EC
:103560000024D0F82002FDF73FFF30B1012801D040
:10357000022801D0022400E00124204610BD70B5CD
:10358000044600F50270054600F05FF80120C4F81B
:10359000F401B4F80E02C4F8F80194F8080210F02F
:1035A0001F010AD001290DD0022910D000F080019E
:1035B000204600F011F8002070BD2946204600F09A
:1035C000AAF8F8E72946204600F08CF9F3E72946E7
:1035D000204600F019F9EEE710B50024D0F82002DB
:1035E000FDF750FB30B1012801D0022801D00224A0
:1035F00000E00124204610BD10B50024D0F82002C0
:10360000FDF70BFF30B1012801D0022801D00224C0
:1036100000E00124204610BD90F8FC1180F8FD1157
:10362000042180F8FC110020704710B50024D0F868
:103630002002FDF757FB30B1012801D0022801D04C
:10364000022400E00124204610BD0A7802704A7866
:1036500042708A78CB7802EB032242800A794B7958
:1036600002EB032282808A79C97902EB0121C180B1
:1036700070470246002011B1C2F8141270470220B0
:10368000704710B5D0F8142202241AB1126890477E
:1036900000B90024204610BD70B50E461A4D897839
:1036A00004462970012928D894F8FC01022802D088
:1036B000032822D105E099B10320616084F8FC0160
:1036C00009E091B1606888420AD0C1B22046FFF794
:1036D0007BFC297861602046FFF7D3FF02280CD0DD
:1036E0002046BDE87040FFF7B8BC022084F8FC011A
:1036F00020466160FFF768FCF2E731462046BDE8EE
:103700007040FFF778BC00005800002010B5FFF7AC
:1037100073FF002010BD2DE9F04100264B780125F4
:1037200032460A2B43D2DFE803F03C5842514208AC
:1037300005422A27FFF706FD63E004468888C8B9DA
:10374000C888B8B9887800F07F0794F8FC0103288E
:1037500010D084F8FE7139462046FFF700FF20465E
:10376000FFF77BFC1FB1022084F8FC0149E084F8DC
:10377000FC5146E020461AE0FFF78EFF41E0CB887F
:10378000012B14D190F8FC31022B02D0032B0ED167
:1037900004E08260012200F1080114E00122011D11
:1037A00011E090F8FC21022A04D0032A02D0FFF78E
:1037B00022FC26E0C560D0F8041209B10321C160E3
:1037C000022200F10C01FFF73BFC1AE00446488896
:1037D000012816D1C4F804520BE0044690F8FC010D
:1037E000022801D00328C5D14888012809D1C4F88E
:1037F0000422D4F814028268204690472046FFF73E
:103800002CFC3046BDE8F08170B50D4604462878A2
:1038100000260979C0F34110012806D06878A0B3CA
:1038200001281FD003283FD107E0D4F8140229460D
:10383000826820469047002070BD94F8FC01022861
:1038400017D003282CD1688828B921B1802902D04B
:103850002046FFF7C1FED4F81402294682682046AC
:10386000904713E094F8FC01022802D0032817D1F6
:1038700003E0C9B180291BD116E06888A0B94806C9
:1038800004D02046FFF706FDE5E703E02046FFF7FA
:10389000E4FB09E094F8FC01022807D003280BD0D0
:1038A00029462046FFF7A7FB304670BD4806FBD0EF
:1038B0002046FFF791FEF7E7080601F07F0004EBD2
:1038C000001501D5143501E005F582752046FFF796
:1038D000DBFD00B101202860022229462046FFF7C7
:1038E000AFFBE1E770B5054690F8FC010C460328F4
:1038F0000DD1207901280AD8D5F81402826828460B
:103900009047E08830B92846FFF7A7FB02E0284639
:10391000FFF771FB002070BD30B54C781D4B0122C4
:103920000D78AA40012CD0F81C4818D044EA024275
:10393000C0F81C280A7800EB4210D0F8002B1204C3
:103940000BD4D0F8002B0C89C4F30A042243C978A5
:1039500043EA81410A43C0F8002B002030BD92B2F7
:103960001443C0F81C480C7800EB4410D0F8002930
:103970001204F2D4D0F800290D89C5F30A052A43B0
:10398000C978890441EA84510A431A43C0F80029DE
:10399000E3E7000000800010D0F800196FF30A017F
:1039A000C0F80019D0F80818C1F34101022905D167
:1039B000D0F8001941F00301C0F80019D0F804183C
:1039C00041F48071C0F804180020704770B50446B7
:1039D000049D06990D9801290CD0E06840F0400044
:1039E000E060204600F028F84FF48030A063012DFD
:1039F00016D01DE0A16B21F48031A163E1680D4A6E
:103A00001140E160E16821F44011E160012803D137
:103A1000E06840F48010E060204600F00DF8E6E732
:103A2000A06840F00600A060A06840F02000A06000
:103A3000002070BDBFFFBDFF01220C4902E0521CF7
:103A40008A420BD80369002BF9DA026942F00102BD
:103A50000261012204E0521C8A4201D9032070470E
:103A60000369DB07F7D1002070470000400D030019
:103A7000F0B50D4604464F780126F206D3002D49D5
:103A8000287804EB4010012F14D0D0F8007B27F4E5
:103A90000047C0F8007B287804EB4010C0F8002BEA
:103AA000287804EB4010C0F8003B01202A7804EB92
:103AB00042122BE0D0F8007927F40047C0F80079D3
:103AC000287804EB4010C0F80029287804EB401057
:103AD000C0F8003901202A7804EB421202E0401CB1
:103AE000884211D8D2F808395B00F8D4102120465A
:103AF00000F02EFBD4F81C0829788E40B1B2884320
:103B000014E0401C884201D90320F0BDD2F8083BE4
:103B1000DB06F6D4D4F8040840F48060C4F8040846
:103B2000D4F81C0829788E4020EA0640C4F81C0806
:103B30000020F0BD400D030010B5D0F8041821F0AE
:103B40000201C0F804180320FCF7BCFD002010BDE2
:103B500010B5D0F8041841F00201C0F80418032091
:103B6000FCF7B0FD002010BD2DE9F0470E460446DD
:103B7000DDE90A1A0025DDF83C80089F806B40F4DF
:103B80000010A063B8F1000F0BD1A06B20F400105F
:103B9000A063206840F040002060206840F0800072
:103BA00020604FF00009C4F8009ED4F80008C4F863
:103BB0000008012904D0D4F8000840F0030004E014
:103BC000D4F800080BB140F00100C4F8000810213F
:103BD000204600F0BDFA204600F0AAFA4846C4F894
:103BE0001098C4F814984FF0FF31C4F81818C4F8AE
:103BF0001C984FF0904CFF2310E000BF04EB4511E0
:103C0000D1F80029002A02DAC1F800C901E0C1F8A0
:103C10000009C1F81009C1F808396D1CAE42EDD891
:103C200000210FE004EB4112D2F8005B002D02DA14
:103C3000C2F800CB01E0C2F8000BC2F8100BC2F8CA
:103C4000083B491C8E42EDD8D4F8101821F480713D
:103C5000C4F81018012F0AD11449C4F83018D4F848
:103C60003018134A1143C4F83018D4F83018A06142
:103C70006FF0804060611FB9A06940F01000A06142
:103C8000A0690C490843A061BAF1000F03D0A069F4
:103C900040F00800A061B8F1010F03D1A069064906
:103CA0000843A0610020BDE8F0870000000180000B
:103CB0000300010000383C8004000040816821F0CE
:103CC000010181600020704730B54D784D4C0B7874
:103CD00000EB4313012D28D0D3F8105B6FF31205CE
:103CE000C3F8105B0B7800EB4313D3F8105B25404F
:103CF000C3F8105B4B690BB18B684B610B7800EB21
:103D00004313D3F8104B44F40024C3F8104B0B7842
:103D100000EB4313D3F8104B8D68C5F312052C4309
:103D2000C3F8104B012A5CD061E04D69002DD3F837
:103D300010593BD06FF31205C3F810590B7800EB04
:103D40004313D3F810592540C3F810594C698B68B8
:103D50009C4200D94B610B7800EB4313D3F8104918
:103D600044F40024C3F810490B7800EB4313D3F854
:103D700010494D69C5F3120554EA0504C3F810490A
:103D80000B7800EB4313D3F8004944F00444C3F824
:103D90000049012A1ED04A6912B3D0F834280B78A2
:103DA000012199400A43C0F8342829E02540C3F88E
:103DB00010590B7800EB4313D3F8104944F4002456
:103DC000C3F810490B7800EB4313D3F810496FF395
:103DD0001204D3E70A69097800EB4110C0F81429EE
:103DE0000EE00B7800EB4313CA68C3F8142B097874
:103DF00000EB4110D0F8001B41F00441C0F8001B5B
:103E0000002030BDFFFF07E00023C0F8103BD0F8D2
:103E1000103B43F40023C0F8103BD0F8103B43F0B4
:103E20001803C0F8103BD0F8103B43F0C043C0F873
:103E3000103B012905D1C0F8142B4FF08021C0F8A8
:103E4000001B002070474B780A7800EB4212012BD0
:103E50000BD0D2F8003B23F40013C2F8003BCA7821
:103E6000032A17D0022A15D01DE0D2F8003923F416
:103E70000013C2F80039CA78032A01D0022A12D1ED
:103E8000097800EB4110D0F8001941F08051C0F8DA
:103E9000001908E0097800EB4110D0F8001B41F050
:103EA0008051C0F8001B002070474B780A7800EB67
:103EB0004212012B14D0D2F8003B002B05DBD2F8C4
:103EC000003B23F08043C2F8003B097800EB41102F
:103ED000D0F8001B41F40011C0F8001B002070470F
:103EE000D2F80039002B05DBD2F8003923F08043EB
:103EF000C2F80039097800EB4110D0F8001941F4FC
:103F00000011C0F80019E9E778B54E786FF0604508
:103F1000834C0B7800EB4313012E2FD0D3F8106B9A
:103F20006FF31206C3F8106B0B7800EB4313D3F852
:103F3000106B2640C3F8106B4B69002B7DD08C684A
:103F400023445B1EB3FBF4F39BB20C7800EB4414E8
:103F5000D4F8106B05EAC3452E43C4F8106B0C78F7
:103F600000EB4414D4F8105B8E685E43C6F3120372
:103F70001D43C4F8105B012A73D0B2E04E6966B3EA
:103F8000D3F810696FF31206C3F810690B7800EBD1
:103F90004313D3F810692640C3F810694C698B6845
:103FA0001C44641EB4FBF3F305EAC3440B7800EB36
:103FB0004313D3F810592C43C3F810490B7800EB86
:103FC0004313D3F810494D69C5F312052C43C3F8C8
:103FD0001049CB78012B16D027E0D3F81059254093
:103FE000C3F810590B7800EB4313D3F8104944F48D
:103FF0000024C3F810490B7800EB4313D3F81049A1
:104000006FF312040FE00B7800EB4313D3F8104961
:1040100024F0C044C3F810490B7800EB4313D3F8E5
:10402000104944F00054C3F81049012A12D0CB784B
:10403000012B17D04B692BB300E037E0D0F83438B0
:104040000D780124AC402343C0F83438CB78012BE1
:1040500008D017E00C7800EB44140B69C4F814394D
:10406000F4E738E0D0F80838DB050B7800EB4313B1
:10407000D3F8004902D444F0005401E044F08054E5
:10408000C3F800490B7800EB4313D3F8004944F020
:104090000444C3F80049CB78012B3ED100928A8AB0
:1040A00093B20A78C96800F0E7F836E00B7800EBC5
:1040B0004313D3F8104B8D68C5F312052C43C3F896
:1040C000104B0B7800EB4313D3F8104B44F400244F
:1040D000C3F8104B4FE70B7800EB4313CA68C3F8E3
:1040E000142BCA78012A0FD1D0F80828D2050A78F3
:1040F00000EB4212D2F8003B02D443F0005301E03F
:1041000043F08053C2F8003B097800EB4110D0F82F
:10411000001B41F00441C0F8001B002078BD0000E6
:10412000FFFF07E0816841F00101816000207047D6
:10413000002110220261054A491C914201D9032045
:1041400070470369DB06F7D400207047400D030079
:104150000022202343EA811101610549521C8A4251
:1041600001D90320704703699B06F7D400207047EC
:10417000400D03000021D0F8082812F0060F15D0DA
:10418000D0F80828C2F34102012A0CD0D0F8082840
:10419000C2F34102032A06D0D0F80808C0F3410058
:1041A000022802D002E0032100E002210846704705
:1041B000406900F001007047D0F81818D0F81C08CA
:1041C000084080B27047D0F81818D0F81C08084092
:1041D000000C7047D0F81038D0F83428CA4002F0EC
:1041E000010243EAC21200EB4110D0F80809104066
:1041F000704700EB4111D1F8081BD0F814080840B3
:104200007047416980690840704710B50346002037
:10421000D21C920803F5805303E01C6841F8044B5C
:10422000401C9042F9D3084610BD10B5C26822F078
:10423000C042C260012901D021B107E0C16841F04C
:10424000005102E0C16841F08041C1603220FCF7BA
:1042500039FA002010BDD0F8002822F4FE62C0F820
:104260000028D0F800284FF4FE6303EA01110A4346
:10427000C0F800280020704730B50024039D6DB9B8
:10428000DB1C9B0800EB023000F5805004E000BF0F
:1042900051F8042B0260641C9C42F9D3002030BD0D
:1042A000FEE7FEE702E008C8121F08C1002AFAD1A3
:1042B00070477047002001E001C1121F002AFBD1A6
:1042C0007047000010B5002821D0114B0022001FBC
:1042D000196803E0814203D80A4649680029F9D1E8
:1042E00052B11368841A9C4204D1006818441060CB
:1042F000104602E0506000E0186039B102680B1A05
:10430000934203D10B681A4402604968416010BDB2
:104310007001002008B5FCF703FBFEF7C3FAFEF7B7
:10432000E5F81B480024016841F480010160006841
:10433000224600F48000009021463920FCF778FBEB
:104340003920FCF769FB002211463B20FCF770FB8B
:104350003B20FCF761FBFEF747F9FEF775F9FEF726
:1043600093F9FEF7B1F90C480A4901604FF4E131C5
:10437000C0E901140C21C460C0E904418461C46136
:10438000FCF790FA00B1FEE7FEF7B8F9FEE700008F
:104390003038024000140140F4020020F0B50B3028
:1043A000154D20F007010024144A0FE003688B42EA
:1043B0000BD38B4205D95E1A43184768C3E90067DF
:1043C00000E04368136002C004E0021D106800288A
:1043D000ECD12046002802D1286808B10020F0BDA9
:1043E000064A07481060074A121A22F00702C0E97D
:1043F000002401202860D7E774010020700100200C
:104400001C1C0020182000200006101600061016A4
:104410000000000000000000010203040607080974
:1044200000000000010203044844000800000020CE
:1044300078010000E40200080C4500087801002023
:10444000A0260000B44200081391301B08C1041AD2
:10445000CD041AF5041321311B0871081A9D0417A5
:104460000403090412011402020216408304405797
:104470002602010203011345031B0841041A3D04EF
:104480001A69044119171182109324F4130A063291
:10449000022A40201C09024343111DC03209043185
:1044A0001A020B130524161001052401100901043A
:1044B000240202052406170107058203081C1009BF
:1044C0000479320A1D07050102432C0705810709FB
:1044D00038442A40072A8107112B0907440A22047D
:1044E000440A16FF44134D2E1408BB2D1408292F1F
:1044F00042081AF70C1A79041A8D04C11A35281AC1
:0C45000029041A41041A1D048100000067
:04000005080001C529
:00000001FF
