:020000040800F2
:10000000A01F00200D020008431C0008051C00086A
:10001000411C00086F0300081933000800000000AD
:100020000000000000000000000000000D1D00089E
:10003000B5030008000000000B1D00080F1D00089C
:1000400027020008270200082702000827020008EC
:1000500027020008270200082702000827020008DC
:1000600027020008270200082702000827020008CC
:1000700027020008270200082702000827020008BC
:1000800027020008270200082702000827020008AC
:10009000270200082702000827020008270200089C
:1000A000270200082702000827020008270200088C
:1000B000270200082702000827020008270200087C
:1000C000270200082702000827020008270200086C
:1000D000270200082702000827020008270200085C
:1000E000270200082702000827020008270200084C
:1000F000270200082702000827020008270200083C
:10010000270200082702000827020008270200082B
:10011000270200082702000827020008270200081B
:10012000270200082702000827020008270200080B
:1001300027020008270200082702000827020008FB
:10014000270200082702000827020008691C00088F
:1001500027020008270200082702000827020008DB
:1001600027020008270200082702000827020008CB
:1001700027020008270200082702000800000000EC
:1001800027020008270200082702000827020008AB
:10019000270200082702000827020008270200089B
:1001A000270200082702000827020008270200088B
:1001B000270200082702000827020008270200087B
:1001C000270200082702000800000000270200089C
:1001D000270200082702000827020008270200085B
:1001E000270200082702000827020008270200084B
:1001F0002702000827020008DFF80CD000F07AF888
:10020000004800478D330008A01F002006488047A3
:1002100006480047FEE7FEE7FEE7FEE7FEE7FEE7EB
:10022000FEE7FEE7FEE7FEE7E91D0008F90100082A
:100230002DE9F05F0546002092469B46884606461B
:10024000814640241BE0284641464746224600F0AE
:1002500041F853465A46C01A914110D311461846E8
:10026000224600F028F82D1A67EB01084F46224677
:100270000120002100F01FF817EB00094E41201E5D
:10028000A4F10104DFDC484631462A464346BDE876
:10029000F09F40EA01039B0703D009E008C9121F41
:1002A00008C0042AFAD203E011F8013B00F8013B30
:1002B000521EF9D27047202A04DB203A00FA02F1DC
:1002C000002070479140C2F1200320FA03F3194344
:1002D00090407047202A04DB203A21FA02F00021E6
:1002E000704721FA02F3D040C2F120029140084346
:1002F00019467047064C074D06E0E06840F00103E0
:1003000094E8070098471034AC42F6D3FFF778FF23
:10031000403400086034000870B58C1810F8015B98
:1003200015F0070301D110F8013B2A1106D110F88E
:10033000012B03E010F8016B01F8016B5B1EF9D192
:100340002B0705D40023521E0DD401F8013BFAE718
:1003500010F8013BCB1A921C03E013F8015B01F883
:10036000015B521EF9D5A142D8D3002070BDFEE733
:10037000002070470020704705490022054810B54D
:1003800001F02EFE0449034801F024FE002010BDB8
:1003900078090020781500207801002001460448E3
:1003A00010B501F017FE024801F0F6FD002010BD67
:1003B000781500207047000070B5044600F0FAF888
:1003C0000546601C02D004480078044400F0F2F8AE
:1003D000401BA042FAD370BD1C0100202DE9F84F4C
:1003E000DFF89CE100224FF001084FF0030B4FF0C3
:1003F0000F0A00BF0B6808FA02F42340A34271D130
:100400004D68022D01D0122D0FD1D5080E69570766
:1004100000EB8505A9462D6AFF0E0AFA07FCBE40CF
:1004200025EA0C052E43C9F820600F7955000668AF
:100430000BFA05FC07F0030726EA0C06AF4037432A
:1004400007604E68012E05D0022E03D0112E01D078
:10045000122E0ED18668CF6826EA0C06AF403743CD
:10046000876046680F79A643C7F300179740374364
:100470004760C4688E6824EA0C04AE402643C66018
:100480004C68E40075D53F4C256845F480452560EF
:10049000246822F00306950704F4804400943A4C43
:1004A0002D0F2644D6F80848DFF8E0C00AFA05F711
:1004B000604524EA070401D100272EE0344FB842FA
:1004C00001D1012729E0334FB84201D1022724E0AE
:1004D000314FB84201D103271FE0304FB84202D15B
:1004E00004271AE045E02E4FB84201D1052714E059
:1004F0002C4FB84201D106270FE02B4FB84201D153
:1005000007270AE0294FB84201D1082705E0284F04
:10051000B84201D1092700E00A27AF4027437546BA
:10052000C6F808784E68DEF80040F60324EA0304B3
:1005300000D51C43124E2C60361D4D683468AD0347
:1005400024EA030400D51C430D4F346008374D687E
:100550003C68ED0224EA030400D51C43084D3C60CE
:100560000C354E682C68B60224EA030400D51C43FF
:100570002C60521C102AFFF43DAFBDE8F88F00003C
:10058000003C01404438024000300140000002407D
:100590000004024000080240000C0240001002402B
:1005A0000014024000180240001C024000200240DB
:1005B0000024024001488068704700001C010020B0
:1005C0000248816802781144816070471C01002054
:1005D000032010B500F080F8002000F005F800F0CE
:1005E00023F8002010BD000070B50D4D04464FF4F7
:1005F0007A700C4A29781268B0FBF1F0B2FBF0F087
:1006000001F0E9FA48B9102C07D200222146501E09
:1006100000F042F800206C6070BD012070BD000049
:100620001C0100206C010020032010B500F054F8DC
:1006300000226FF00B00114600F02EF800226FF040
:100640000A00114600F028F800226FF00900114658
:1006500000F022F80022501F114600F01DF8002281
:10066000101F114600F018F80022901E114600F0ED
:1006700013F80022BDE81040501E114600F00CB8DF
:10068000410900F01F028900012001F1E0219040A2
:10069000C1F80001704700000E4BF0B41B680D4616
:1006A000C3F30223C3F10706042E00D90426191D43
:1006B000072901D2002300E0DB1E012404FA06F121
:1006C0009C40491E2940641E994014402143F0BCBF
:1006D00001F0B8BA0CED00E0064900F0070210B5D1
:1006E0004FF6FF040868044B204040EA02201843FC
:1006F000086010BD0CED00E00000FA050168012360
:10070000C0F8F433002280F8EC238869044A40F0F2
:1007100000608861486D1043486500207047000004
:100720000300001070470068416200207047F0B578
:1007300003684FF000005C6A31B19F6A4D1E4FF4B0
:10074000827604EB17440BE044EA0240986210E022
:10075000471C06EB800053F800C0F8B204EB1C44C1
:10076000A842F5DB4FF4807000EB810044EA0242BE
:100770001A500020F0BDD0F8FC0301F08BBEC1EB95
:10078000C10200EB8202D0F8FC03526C01F0F8BD0C
:10079000C1EBC10200EB8202D0F8FC03D2F80422C4
:1007A00001F043BED0F8FC0301F076BE01F07F03F8
:1007B0000A4610B504460806C3EBC30004EB8001EB
:1007C00001D5383101E001F5FC71D0090B7048709A
:1007D00094F8B803012809D0012084F8B8032068F0
:1007E00002F0A0F9002084F8B80310BD022010BD6B
:1007F00070B5044640680A4601F00F01814201D9F4
:10080000012070BD110602F07F0005D5C0EBC001CC
:1008100004EB8101383105E0C2EBC20104EB810138
:1008200001F5FC710025D2098D7008704A7094F8AA
:10083000B803012809D0012084F8B803206802F029
:100840003AFB002084F8B85370BD022070BD01F05F
:100850000F01C1EBC10100EB8100B0F8100280B2C2
:10086000704770B50D46044605F07F000906C0EBE1
:10087000C00104EB810101D5383101E001F5FC71C3
:10088000ED098A60CB704D70087000D0C880022BD3
:100890004FF0000500D10D7194F8B803012809D07C
:1008A000012084F8B803206802F08EF8284684F806
:1008B000B85370BD022070BD70B501F07F050C46C5
:1008C0000026C5EBC50100EB8101C1F80422C1E996
:1008D000833681F8F96181F8F85101F5FC710369FB
:1008E000012B00D10A616206027C006803D002F08D
:1008F00043FB002070BD02F01FFAFAE770B5044612
:1009000040680D4601F00F01814201D9012070BD00
:10091000290605F07F0005D5C0EBC00104EB81017D
:10092000383105E0C5EBC50104EB810101F5FC712F
:100930000122EB098A7008704B7094F8B803012803
:1009400007D084F8B823206802F0E7FA680602D0DE
:1009500007E0022070BD217C04F56F72206802F070
:100960008BFA002084F8B80370BD2DE9F04101F046
:100970007F050C460026C5EBC501012700EB810170
:100980004A64C1E9133681F8397001F8385F0369A8
:10099000012B00D10A616206027C006804D002F0DB
:1009A000EBFA0020BDE8F08102F0C6F9F9E700009B
:1009B0002DE9F84F044600680026054602F031FC98
:1009C00000287CD1206802F056FC002877D02068EF
:1009D00002F051FC800702D521680220486120689E
:1009E00002F049FC01034FF0010A04F56F704FF06B
:1009F000080B4FF0000900906ED5206802F01CFC37
:100A0000074667E0F80763D02068F1B202F02BFCDC
:100A10008046C00733D005EB4610C0F808AB21690B
:100A200001291CD1D5F8081B090406D54FF4004153
:100A3000C0F8081B2169012911D1D0F8102BC6EB91
:100A4000C60104EB8100C2F31202D0F800128A1A28
:100A5000C0F81022D0F804221144C0F80412204635
:100A6000F1B2FFF795FE2069012808D13EB9D4F80C
:100A70000C0220B920680121009A02F0FDF95FEA1A
:100A8000087013D52069012809D1D5F8080B000496
:100A900005D505EB46114FF40040C1F8080B204680
:100AA00000F018FB05EB4611C1F808BB5FEAC8600F
:100AB00004D505EB46111020C1F8080B00E015E243
:100AC0005FEA886004D505EB46112020C1F8080BC9
:100AD0007F08761C002F95D1206802F0CCFB4003E4
:100AE0005DD5206802F0A1FB0026074655E0F80717
:100AF00051D02068F1B202F0A6FB8046C00724D096
:100B0000D5F8342805EB46130AFA06F08243C5F8F7
:100B10003428C3F808A92069012807D1C6EBC6000C
:100B200004EB8000D0E91021114441642046F1B269
:100B3000FFF725FE2069012807D136B9E06C20B9FE
:100B400020680121009A02F097F95FEA087003D546
:100B500005EB4611C1F808B95FEAC86004D505EB9A
:100B600046111020C1F808095FEA486004D505EB7A
:100B700046114020C1F808095FEA887004D505EBEA
:100B800046110220C1F808095FEA086003D5314622
:100B9000204601F06FF87F08761C002FA7D120684F
:100BA00002F069FB002811DAD5F8040820F00100F2
:100BB000C5F8040894F8EC03012838D0204600F06A
:100BC0006FFA00BF21684FF000404861206802F0D2
:100BD00052FB00050AD5D5F80808C00702D0204608
:100BE00000F094FA21684FF400604861206802F038
:100BF00042FB000109D521684FF00060486194F87C
:100C0000EC03D8B1204600F081FA206802F033FBF3
:100C1000C0046BD5D5F8040820F00100C5F804081D
:100C20002068102102F0CCFA0021FF2227E00021E9
:100C3000204684F8EC93FFF775FDC3E784F8ECA336
:100C40002068406D0121C0F38300C4F8F003204602
:100C5000FFF768FDD9E700BF05EB4110C0F8082990
:100C6000D0F8003923F40013C0F80039C0F8082B7D
:100C7000D0F8003B23F40013C0F8003B491C606827
:100C80008842E9D84FF0FF30C5F81808D5F81C089D
:100C900040F00110C5F81C08206B60B1D5F884083D
:100CA00040F00B00C5F88408D5F8440840F00B006C
:100CB000C5F844080BE0D5F8140840F02B00C5F83F
:100CC0001408D5F8100840F00B00C5F81008D5F846
:100CD000000820F4FE60C5F80008217C2068009A16
:100CE00002F0CAF821684FF480504861206802F091
:100CF000C2FA80047CD5206801F0A6FE2068C16895
:100D000021F47051C160206802F06CFA78B10321BF
:100D1000E1604020606100F07BFD754A7549024446
:100D20008A420AD22068C16841F4705158E0C4F880
:100D30000C904FF40071616136E06F4A6F490244D4
:100D40008A4204D22068C16841F4605148E06C4A8C
:100D50006C4902448A4204D22068C16841F450516F
:100D60003EE0694A694902448A4204D22068C16867
:100D700041F4405134E06649664A0144914204D24C
:100D80002068C16841F430512AE0634A6349024453
:100D90008A4204D22068C16841F4205120E0604AB0
:100DA000604902448A4204D22068C16841F410516B
:100DB00016E05D495D4A0144914204D22068C16851
:100DC00041F400510CE05A495A4A084490422068C4
:100DD000C16803D241F4E05102E009E041F4C0519E
:100DE000C160204600F04CF921684FF40050486182
:100DF000206802F040FAC00637D52068816921F0EA
:100E000010018161D5F8208008F00F01C8F343403C
:100E1000C1EBC101022804EB810707F5FC7702D082
:100E2000062813D01CE047F6F07118EA010F17D01E
:100E3000C8F30A12F9689046284602F020FAB96908
:100E4000F8684144B9614044F86009E0009908221B
:100E5000284602F014FAB969C8F30A100844B861C8
:100E60002068816941F010018161206802F003FA75
:100E7000000705D5204600F017F92168C1F814B025
:100E8000206802F0F8F9C00207D52046F1B200F060
:100E900053F821684FF480104861206802F0EBF9A4
:100EA000800207D52046F1B200F04AF821684FF4DD
:100EB00000104861206802F0DEF9400006D52046A7
:100EC000FFF759FC21684FF080404861206802F02C
:100ED000D2F940070AD520684568680702D5204640
:100EE000FFF760FC2068416829434160BDE8F88F46
:100EF000405327FF00350C00401E1BFF40420F00EF
:100F000000DC0BFF804F1200808CF9FE20D613000E
:100F100060B6E5FE60E3160000D3CEFE40771B000E
:100F2000C05BB3FEC091210000CA91FE207538005D
:100F3000E05459FEE09C4100D0F8FC0301F00ABBEC
:100F4000D0F8FC0301F008BBF0B504004FF0000638
:100F50008BB056D0032084F8B903204600F05CF82B
:100F6000206801F0E3FE04F11001684628220F46D4
:100F7000FFF78FF994E80F0001F080FD2068002151
:100F800002F08CF9012500223146C6EBC600761C22
:100F900004EB80000F2E80F8395080F83810C1879C
:100FA00080F83B2002644264C264EDD300204FF419
:100FB000827300BFC0EBC00103EB800604EB81012C
:100FC00081F8F92181F8F801C88781F8FB21C1F87F
:100FD0000022C1F80422C1F80C2221688A51401C69
:100FE0000F28E7D3282239466846FFF752F994E8DC
:100FF0000F0001F0E7FD606A84F8B953012803D0BF
:1010000005E001200BB0F0BD2046FFF777FB20681C
:1010100001F0CBFD0020F5E710B5006886B0B0F117
:10102000A04F26D10221002203230A244FF4C050EE
:101030008DE81F0010486946FFF7D0F90F48016896
:1010400041F080010160006800F0800005900B48CD
:101050001030016841F480410160006800221146AF
:1010600000F4804005904320FFF716FB4320FFF774
:1010700007FB06B010BD00000000024034380240FB
:1010800010B50446C068012100B90021D4F8FC0362
:1010900001F0B9FAD4F8FC03BDE8104001F081BAC0
:1010A000D0F8FC0301F09DBAD0F8FC0301F09FBA20
:1010B00010B5044690F8B803012809D0012084F83F
:1010C000B803206802F000F9002084F8B80310BDCE
:1010D000022010BDD0F8FC2300F56F71104601F01E
:1010E000A5BA10B5044690F8B80301280CD0012029
:1010F00084F8B803206801F04CFD206802F04AF83B
:10110000002084F8B80310BD022010BD10B50446BD
:10111000D0F8FC0301F0D5FA2068D0F8001E41F0A9
:101120000101C0F8001E206A002804D002480168AE
:1011300041F00601016010BD10ED00E01848F8B55F
:10114000016841F0805101600068164C00F0805049
:101150000090206840F480302060FFF72BFA4FF4B5
:101160007A76054605E000BFFFF724FA401BB0423F
:101170000FD86068C003F7D5206840F400302060C5
:10118000FFF718FA054606E0FFF714FA401BB042D5
:1011900001D90320F8BD60688003F5D50020F8BDB3
:1011A00040380240007000402DE9F84F04460078B6
:1011B000DFF824944FF000063746C0070ED0D9F868
:1011C000001021F40001C9F80010D9F80010626B7A
:1011D0001143C9F80010606B00B90126FE4D20686C
:1011E000843500030ED5E16B286820F440100843D5
:1011F0002860E06BB0F5801F01D010B102E001263D
:1012000000E0012720684FF4800BC0020CD5216C50
:10121000286820F4400008432860206C584501D11C
:10122000012601E000B901272068C10100D501268F
:10123000800666D5E8483830016841F08051016089
:101240000068DFF898A300F080500090DAF80010F2
:1012500041F48071CAF80010FFF7ACF9804605E050
:10126000FFF7A8F9A0EB080064287DD8DAF80000A1
:10127000C005F5D5DFF8608308F16808D8F80000EC
:1012800010F440702AD0218E01F44071814225D0A3
:10129000D8F80010D8F8002021F4407142F48032D0
:1012A000C8F80020D8F8002022F48032C8F80020C6
:1012B000C8F80010D8F80000C0070FD0FFF77AF97F
:1012C000824607E0FFF776F9A0EB0A0141F2883089
:1012D0008142CAD8D8F800008007F3D5206BC0F34C
:1012E000012103297ED0D9F8001021F4F811C9F8A2
:1012F0000010228ED8F80010C2F30B021143C8F878
:1013000000102078C00607D5286820F0807028607B
:101310002868A16B084328602188AF4888304904B9
:1013200005D5626E016821F44031114301602188C6
:10133000090405D5A26E016821F440211143016022
:101340002168C90305D5E26E016821F440111143FB
:1013500001602168890305D5226F016821F44001ED
:1013600011430160217800E034E1490605D5626C43
:10137000016821F00301114301602178090605D5B8
:10138000A26C016821F00C01114301602188C9059C
:1013900005D5E26C016821F030011143016021881C
:1013A000890505D5226D016821F0C0011143016056
:1013B0002188490505D5626D016821F4407111430A
:1013C00001602188090505D5A26D016821F44061FD
:1013D000114301602188C90407D5E26D016821F439
:1013E000405100E05FE0114301602188890405D588
:1013F000226E016821F440411143016021684902D5
:1014000005D5A26F016821F0806111430160216858
:101410004FF0006A890209D5E26F016821F000618E
:1014200011430160E16F514500D1012721680A078E
:1014300000D50127490305D5626F016821F040718D
:10144000114301602168090206D5D4F880200168A3
:1014500021F08051114301602168490106D5D4F87B
:101460008420016821F000511143016020680001CF
:1014700006D5D4F88810286820F00070084328604A
:101480002068C00006D5D4F88C10286820F0806051
:1014900008432860DFF84891012E0ED02068B0F193
:1014A000007F0AD08FE04F4AD9F80030104023F473
:1014B000F8120243C9F800201BE7D9F800004E4695
:1014C00020F08060C9F80000FFF774F8804605E05E
:1014D000FFF770F8A0EB080064287BD830680001A3
:1014E000F6D421783C487C30C90712D0616B81B9B1
:1014F000237A62680168D0F800C09201C1F301410B
:1015000042EA0142CCF3036142EA016141EA03711C
:10151000016021680A0303D5E26BB2F5801F04D095
:10152000C9021AD5216C594517D16368016894F82E
:101530000CC002689B01C1F3014143EA0141C2F3BF
:10154000027241EA0C6141EA027101602968626A33
:1015500021F01F01521E114329602168C90110D5D5
:10156000238A62680168D0F800C09201C1F3036168
:1015700042EA034242EA0162CCF3027142EA01719B
:101580000160216889010CD56168228A237B94F867
:1015900008C0890141EA024141EA036141EA0C7154
:1015A00001603168B04641F080613160FFF702F8B8
:1015B000064604E0FEF7FEFF801B64280AD8D8F830
:1015C00000000001F6D5E7B3D9F800004E4620F040
:1015D000805009E07BE000000838024000700040C5
:1015E00000380240FFFCFF0FC9F80000FEF7E2FFE1
:1015F000074604E0FEF7DEFFC01B642867D83068AA
:10160000C0438000F6D5216835480A0301D5E26B56
:101610001AB1C9021DD5216CD9B963690168277E49
:1016200002689B01C1F3014143EA0143C2F3027125
:1016300043EA076242EA0171016029686FF0FF0323
:1016400000E04BE0A26A21F4F85103EB02221143BF
:1016500029602168890212D5E16F51450FD1238C91
:101660006269016807689201C1F3036142EA0342BB
:1016700042EA0162C7F3027142EA01710160217816
:10168000090716D561690268D0F800C08B01277F71
:10169000C2F30362CCF3014143EA014141EA026132
:1016A00041EA077101602868E16A20F4403008438C
:1016B0002860306840F080503060FEF77BFF0446C1
:1016C00008E000BFFEF776FF001B642802D9032064
:1016D000BDE8F88F3068C0438000F3D40020F7E7FE
:1016E000883802402DE9F04705000F4663D0444E8C
:1016F000306800F00F00B84209D2306820F00F00C7
:1017000038433060306800F00F00B84253D1286889
:101710003C4C810712D5400703D5206840F4E050C7
:1017200020602878000703D5206840F460402060DE
:10173000A968206820F0F000084320602878C007DE
:101740002AD0304968680839012810D00968022871
:1017500010D0890700292EDA216821F00301014306
:101760002160FEF727FF804641F288390DE00968C5
:101770008903EFE78901EDE7FEF71CFFA0EB080105
:10178000494502D90320BDE8F0876868216801F067
:101790000C01B1EB800FEFD1306800F00F00B842C0
:1017A0000BD9306820F00F0038433060306800F00B
:1017B0000F00B84201D00120E5E72878400705D5A1
:1017C000E968206820F4E05008432060287800078A
:1017D00006D52869216821F4604141EAC0002060F3
:1017E00000F01CF82168084AC1F30311515CC8409D
:1017F000064908600020FEF7F7FE0020C3E700005E
:10180000003C024008380240303400086C010020DF
:1018100001480068704700006C010020154910B5B0
:101820001548096811F00C0213D01449042A0FD08E
:10183000082A0ED10F4C241F2268236802F03F02B1
:101840005B0207D52068C0F38810A0FB010106E009
:10185000084610BD2168C1F38811A1FB00010023D7
:10186000FEF7E6FC2168C1F30141491C4900B0FBC9
:10187000F1F010BD083802400024F4000080BB00E5
:101880002DE9F84F05004FF000076ED02878DFF8FB
:101890002093A9F1040AC007AAF104044CD0D9F896
:1018A00000104846C1F38101012908D00068C0F347
:1018B000810002280AD1DAF80000400206D520682B
:1018C000800339D568680028DFD035E06868B0F556
:1018D000803F0BD010B1B0F5A02F11D0206820F4BC
:1018E00080302060206820F4802002E0206840F4EE
:1018F00080302060686890B1FEF75CFE06460AE022
:10190000206840F480202060F0E700BFFEF752FE20
:10191000801B642872D820688003F7D50CE0FEF79E
:1019200049FE064605E000BFFEF744FE801B642822
:10193000F0D820688003F7D42878800742D5D9F8FA
:101940000010484611F00C0F08D00068C0F3810069
:1019500002280BD1DAF80000400207D42068800783
:1019600018D5E868012800D114E01EE1E8680028D5
:10197000206817D040F001002060FEF71BFE0646ED
:1019800005E000BFFEF716FE801B0228C2D82068C3
:101990008007F7D52869216821F0F80141EAC000E5
:1019A00020600FE020F001002060FEF703FE0646F5
:1019B00005E000BFFEF7FEFD801B02281ED8206850
:1019C0008007F7D42878000729D5794869696C30F1
:1019D00000298046016812D041F001010160FEF744
:1019E000E9FD064605E000BFFEF7E4FD801B022886
:1019F00004D8D8F800008007F6D510E089E021F07F
:101A000001010160FEF7D6FD064604E0FEF7D2FDB7
:101A1000801B02287DD8D8F800008007F6D42878EB
:101A200040076BD5DFF8888108F13808D8F8000046
:101A3000C0000BD4D8F8001041F08051C8F8001055
:101A4000D8F80000012700F0805000905948016844
:101A5000C90512D40168834641F480710160FEF724
:101A6000A9FD064605E000BFFEF7A4FD801B642823
:101A70004FD8DBF80000C005F6D54D4EA868683693
:101A800001280AD008B1052811D0306820F00100E3
:101A90003060306820F0040002E0306840F001005F
:101AA0003060A868A0B1FEF785FD83460CE0306881
:101AB00040F004003060F0E7FEF77CFDA0EB0B0186
:101AC00041F28830814268D830688007F4D50EE052
:101AD000FEF770FD834607E0FEF76CFDA0EB0B01FF
:101AE00041F28830814258D830688007F4D42FB151
:101AF000D8F8001021F08051C8F80010A869E0B3B0
:101B0000D9F80010C1F3810102294ED002282068C3
:101B100000E042E020F08070206003D0FEF74AFD34
:101B200005463DE0FEF746FD064604E0FEF742FDB1
:101B3000801B022831D820688001F7D4D5E909211B
:101B4000DFF874C0D5E9070695F830304F0895F8EE
:101B50002C1030430CEB074545EA8212104340EA53
:101B6000016040EA0370CAF80000206840F080700D
:101B70002060FEF71FFD054605E014E0FEF71AFDA4
:101B8000401B022809D820688001F7D50BE000BF70
:101B9000FEF710FD401B022802D90320BDE8F88F94
:101BA00020688001F4D40020F8E70120F6E7000067
:101BB00008380240007000400000FFFF04284FF08A
:101BC000E020016903D021F004010161704741F078
:101BD0000401FAE77047401EB0F1807F10B501D3D1
:101BE000012010BD4FF0E02460610F21601700F06C
:101BF00029F80020A0610721216110BD10B5FFF771
:101C0000E9FF10BDFEE7000009490022094810B5B0
:101C100000F081FB0849074800F080FD07490548AE
:101C200000F0CEF9BDE81040024800F0C5BD00004C
:101C30003801002078150020DC0000202801002059
:101C4000FEE77047090700284FEA116106DA00F045
:101C50000F0000F1E02080F8141D704700F1E02033
:101C600080F80014704700000148FEF7A1BE000094
:101C7000781100202DE9F84F0F4606688246C1EB27
:101C8000C70100EB8105D5E91312286C38358C1A91
:101C9000A04200D20446E01C06EB4719C11700EB36
:101CA00091704FEAA00819E0AA68441AA24200D233
:101CB0001446E01CA3B2C117FAB200EB91704FEAD0
:101CC000A0089AF8100000903046E96801F00EFB79
:101CD000E8682044E860A8692044A861D9F8180998
:101CE00081B2414505D9D5E90501814201D20028DB
:101CF000DAD1002C06DCD6F834180120B840814334
:101D0000C6F834180020BDE8F88F7047704710B54A
:101D1000FEF756FCBDE81040FFF770BF304870B5C5
:101D2000B8B0016841F080510160006800F0805057
:101D300036902C48016841F440410160006802245B
:101D4000082200F440403690E0034FF48C73810188
:101D50000125CDE92A412CA981E81C002F94CDE969
:101D6000245024A8FFF78CFD00B1FEE7FFF7E6F949
:101D700000B1FEE74FF480524FF4A0510026CDE9A8
:101D8000341231AA0F20072182E8510031A8FFF751
:101D9000A9FC00B1FEE703224FF40010FA21CDE9BF
:101DA0000742830100901F936846CDE90514CDE9F1
:101DB0000A56FFF7F9F900B1FEE7FFF729FD4FF4E6
:101DC0007A71B0FBF1F0FFF706FF0420FFF7F6FE93
:101DD0000022501E1146FEF75FFC38B070BD0000B7
:101DE0004038024000700040104A30B51048146876
:101DF00000210F4B44F470041460083305680D4A49
:101E00000D4C45F00105056019600368051D134080
:101E1000074A03600C322C600568E305034C25F487
:101E200080250560803C1160236030BD88ED00E0B6
:101E300000380240FFFFF6FE10300024D0F81802F0
:101E400020B10021C0F814120846704702207047E4
:101E500070B5D0F81842054600F029FBC4F80C0212
:101E6000D5F8180248B1D5F81C0204F50371C26810
:101E7000D4F804029047002070BD022070BD70B5F8
:101E800000250446812100F06BFA0121204600F074
:101E900067FA8221204600F063FAD4F8180250B1A4
:101EA000D4F81C0204F5067440688047206801F0ED
:101EB00045FA00202060284670BD10B5D0E9864163
:101EC00059B194F80002FF2807D08B68214694F896
:101ED00001229847FF2084F80002002010BD000076
:101EE0000A2101800048704704000020432101803E
:101EF000004870475400002043210180004870478B
:101F00001000002043210180004870479800002005
:101F10002DE9F0410446007C4FF400764FF00005B7
:101F200070B3402320460222812100F017FB40239A
:101F300020460222012100F011FB08232046032243
:101F4000822100F00BFB4FF4077001F03BFAC4F85C
:101F50001802E8B10746D4F81C0200688047002048
:101F6000C7F81402C7F81802207CD7F8042288B1F9
:101F700040232046012100F004FB2846BDE8F08103
:101F8000022233468121204600F0E8FA3346CFE7AB
:101F90000125F2E73346ECE710B5D0F8181269B125
:101FA000027C002AD1F8042205D04023012100F050
:101FB000E8FA002010BD4FF40073F7E7022010BDCF
:101FC000002902464FF0020003D04FF00000C2F893
:101FD0001C127047D0F81802C0F804120020704795
:101FE000D0F81802C0F81022C0F80812002070477C
:101FF00070B5064608780C4610F06001D6F8185205
:1020000022D0202928D1E288B2B1000608D5D6F81E
:102010001C022946836860789847E288294618E0C0
:102020006078294685F80002A07985F801023046DB
:10203000E28800F037F80FE0D6F81C0200222146B3
:1020400083686078984707E060780A2804D10349DC
:102050000122304600F040F8002070BD0000002052
:1020600010B5D0F8142252689047002010BD1346D6
:102070000A46002110B500F084FA002010BD134676
:102080000A46002110B500F025FB002010BD10B558
:102090008021044600F0F5FA2046BDE810400021FA
:1020A00000F0EFBA10B5C0F808210323C0F8F431EE
:1020B0001346C0F80C210A46002100F062FA002005
:1020C00010BD0521002310B51A46C0F8F4111946B9
:1020D00000F057FA002010BD10B582610223C0F84D
:1020E000F4311346C2610A46002100F0F3FA0020E1
:1020F00010BD0421002310B51A46C0F8F41119468A
:1021000000F0E8FA002010BD04A00A46024910B50C
:1021100000F0DDF8004810BD9C1700204344432028
:10212000436F6E66696700001220088000487047A0
:102130005801002004A00A46024910B500F0C7F873
:10214000004810BD9C17002043444320496E74652D
:1021500072666163650000000420088000487047D3
:102160005401002004A00A46024910B500F0AFF85F
:10217000004810BD9C17002053544D6963726F6571
:102180006C656374726F6E696373000004A00A4625
:10219000024910B500F09BF8004810BD9C170020C4
:1021A00053544D3332205669727475616C20436FFD
:1021B0006D506F727400000004A00A46024910B509
:1021C00000F085F8004810BD9C17002030303030FA
:1021D000303030303030314100000000F8B5044676
:1021E00048880D46010A082954D2DFE801F053045B
:1021F000091753534951D4F81012207C0A6819E08A
:10220000207C02260028D4F8140205D0C16A684652
:102210008847014646704AE0816AF8E7C1B206295C
:1022200026D2DFE801F0030A0F14191ED4F81012A9
:10223000207C4A686946904718E0D4F81012207C48
:102240008A68F7E7D4F81012207CCA68F2E7D4F85D
:102250001012207C0A69EDE7D4F81012207C4A693C
:10226000E8E7D4F81012207C8A69E3E701461EE013
:10227000D4F814126A468B6BC1B220469847F5E732
:10228000207C38B9D4F81402416B68468847EDE7E2
:10229000207C20B129462046FFF7F9FEF8BDD4F88E
:1022A0001402016B68468847014607204870BDF854
:1022B00000000028F2D0EA88002AEFD0824200D93C
:1022C00002462046ADF80020FFF706FFF8BDF0B546
:1022D00000284FF000041DD00346254602E06D1C87
:1022E0005B1CEDB21E78002EF9D1022606EB4507E5
:1022F0001780631C032500260F55A21CCD5406E051
:10230000541C8B54E2B2531C401C8E54DAB2037836
:10231000002BF5D1F0BD10B580B1D0F8143213B157
:102320000023C0F8143209B1C0F810120121027064
:1023300080F8FC1100F0C0F8002010BD022010BD94
:1023400010B5D0F820020024FEF752FA30B101286F
:1023500001D0022801D0022400E00124204610BD53
:1023600010B5D0F820020024FEF720FA30B1012881
:1023700001D0022801D0022400E00124204610BD33
:102380002DE9F0411746044641B1D4F814024269E0
:102390008AB394F8FC01032842D043E0D4F8F41146
:1023A000002504F11400022933D1D0E902639E42D2
:1023B00007D9F31A39469AB283602046FFF75FFEC9
:1023C00012E04068B0FBF3F103FB1101A1B99842A0
:1023D00012D3D4F8F81188420ED2002220461146BA
:1023E000FFF74DFEC4F8F85100231A46194620465F
:1023F00000F0C7F80DE012E0D4F81402C16829B16A
:1024000094F8FC01032801D1204688472046FFF7B5
:1024100058FE94F80002012804D184F8005201E02B
:10242000204690470020BDE8F08170B5154604466F
:1024300041B1D4F8140282693AB394F8FC0103283C
:1024400024D025E0D4F8F41104F5827003291FD1BB
:10245000D0E902218A420BD9531A8360084683428D
:1024600000D3034629469AB22046FFF700FE0FE04C
:10247000D4F81402016929B194F8FC01032801D1B0
:10248000204688472046FFF734FE01E0204690476B
:10249000002070BD0020704710B5012180F8FC11AC
:1024A000D0F81422017952689047002010BDD0F86E
:1024B0002002FEF7CCB9000070B5017859BB17496E
:1024C0000022022306254FF0A044C1F8FC03C0F807
:1024D00020120846C1E90332C1E90523CA610A6234
:1024E0004A62CA620A63C1E90045FEF72DFD20B1C8
:1024F0000BA04FF4A57100F010FF08488021FEF7F3
:1025000012F9064840220021FEF711F90348802203
:102510000121FEF70CF9002070BD000078110020A9
:102520002E2E2F5372632F757362645F636F6E6616
:102530002E630000D0F8202201F07F000B06C0EBD4
:10254000C00002EB800002D590F83A00704790F886
:10255000FA017047002070470020704770B51D4693
:10256000D0F82002002413462A46FEF77AF930B14B
:10257000012801D0022801D0022400E001242046D5
:1025800070BD10B5D0F820020024FEF795F930B1E7
:10259000012801D0022801D0022400E001242046B5
:1025A00010BD70B50022044640231146FFF7D6FF48
:1025B0004025204600222B468021C4F81051FFF709
:1025C000CDFFD4F818020121256284F8FC1130B146
:1025D000D4F8141220794A68C1B2204690470020EE
:1025E00070BD90F8FD1180F8FC110020704710B507
:1025F00090F8FC11032904D1D0F81412C96901B173
:102600008847002010BD01740020704710B5D0F835
:1026100020020024FEF74CFD30B1012801D0022831
:1026200001D0022400E00124204610BD70B504460C
:1026300000F50270054600F05DF8B4F80E32012195
:1026400094F8080210F01F02C4E97D130AD0012A91
:102650000DD0022A10D000F08001204600F011F8C1
:10266000002070BD2946204600F0ABF8F8E7294667
:10267000204600F08EF9F3E72946204600F01AF9CB
:10268000EEE710B5D0F820020024FEF737F930B19C
:10269000012801D0022801D0022400E001242046B4
:1026A00010BD10B5D0F820020024FEF71AFD30B19D
:1026B000012801D0022801D0022400E00124204694
:1026C00010BD90F8FC21042180F8FD2180F8FC1158
:1026D0000020704710B5D0F820020024FEF745F91D
:1026E00030B1012801D0022801D0022400E00124E9
:1026F000204610BD0A7802704A784270CB788A78FA
:1027000002EB032242804B790A7902EB032282809A
:102710008A79C97902EB0121C180704702464FF0E6
:10272000000011B1C2F8141270470220704710B5B2
:10273000D0F8142202241AB11268904700B900247C
:10274000204610BD70B51B4D044688780E46C1B2B8
:102750000129297028D894F8FC01022802D0032806
:1027600022D105E099B16160032084F8FC0109E001
:1027700091B1606888420AD0C1B22046FFF770FC70
:10278000297861602046FFF7D2FF02280CD020464E
:10279000BDE87040FFF7ADBC0220616084F8FC0129
:1027A0002046FFF75DFCF2E731462046BDE8704069
:1027B000FFF76DBC1801002010B5FFF772FF002075
:1027C00010BD2DE9F0414B780022012516460A2B59
:1027D00043D2DFE803F03C584251420805422A2721
:1027E000FFF7FCFC63E004468888C8B9C888B8B91C
:1027F0008A7894F8FC0102F07F07032810D039464C
:10280000204684F8FE71FFF701FF2046FFF771FCB8
:102810001FB1022084F8FC0149E084F8FC5146E035
:1028200020461AE0FFF78EFF41E0CB88012B14D140
:1028300090F8FC31022B02D0032B0ED104E000F102
:1028400008018260012214E00122011D11E090F8CC
:10285000FC21022A04D0032A02D0FFF718FC26E04C
:10286000D0F80412C56009B10321C160022200F151
:102870000C01FFF731FC1AE04A880446012A16D100
:10288000C4F804520BE0044690F8FC01022801D081
:102890000328C5D14888012809D1C4F80422D4F8F6
:1028A00014028268204690472046FFF722FC3046FB
:1028B000BDE8F08170B50D460978044600262879F8
:1028C000C1F34112012AC1B206D06878A0B3012831
:1028D0001FD003283FD107E0D4F8140229468268AC
:1028E00020469047002070BD94F8FC01022817D0C4
:1028F00003282CD1688828B921B1802902D020462C
:10290000FFF7BFFED4F8140229468268204690479C
:1029100013E094F8FC01022802D0032817D103E049
:10292000C9B180291BD116E06888A0B9480604D037
:102930002046FFF705FDE5E703E02046FFF7D9FB5A
:1029400009E094F8FC01022807D003280BD029469F
:102950002046FFF79CFB304670BD4806FBD0204662
:10296000FFF78FFEF7E7080601F07F0004EB001584
:1029700001D5143501E005F582752046FFF7DAFD33
:1029800000B101202946022228602046FFF7A4FB5F
:10299000E1E770B5054690F8FC010C4603280DD11F
:1029A000207901280AD8D5F8140282682846904771
:1029B000E08830B92846FFF79CFB02E02846FFF785
:1029C00066FB002070BD000070B54C7801220D78C8
:1029D0001C4B012CD0F81C4802FA05F218D044EA2E
:1029E0000242C0F81C280A7800EB4210D0F8002BF5
:1029F00012040BD40A89CC78D0F8001BC2F30A0267
:102A0000114343EA84431943C0F8001B002070BD02
:102A100092B21443C0F81C480A7800EB4210D0F878
:102A200000492404F2D40C89CD78D0F80019C4F3FD
:102A30000A06AC04314344EA825211431943C0F8F8
:102A40000019E3E700800010D0F800196FF30A01C5
:102A5000C0F80019D0F80818C1F34101022905D1C6
:102A6000D0F8001941F00301C0F80019D0F804189B
:102A700041F48071C0F804180020704770B5044616
:102A80000699049D0D9801290CD0E06840F04000A3
:102A9000E060204600F02AF84FF48030A063012D5A
:102AA00017D01EE0A26B01280F4922F48030A063EA
:102AB000E06800EA0100E060E06820F44010E060B7
:102AC00003D1E06840F48010E060204600F00EF88A
:102AD000E5E7A06840F00600A060A06840F0200094
:102AE000A060002070BD0000BFFFBDFF0C490122A7
:102AF00002E0521C8A420BD80369002BF9DA036901
:102B0000012243F00103036104E0521C8A4201D90F
:102B1000032070470369DB07F7D1002070470000EE
:102B2000400D030010B54B7801220C78012B02FAFE
:102B300004F3D0F83C4816D024EA0343C0F83C38EC
:102B4000D0F81C380C78A24023EA0242C0F81C28B6
:102B5000097800EB4110D0F8001B21F40041C0F8C7
:102B6000001B002010BD9BB29C43C0F83C48D0F82D
:102B70001C380C78A24092B29343C0F81C380978F4
:102B800000EB4110D0F8001921F40041C0F8001901
:102B9000E7E710B5D0F8041821F00201C0F80418D6
:102BA0000320FDF709FC002010BD10B5D0F8041873
:102BB00041F00201C0F804180320FDF7FDFB0020DE
:102BC00010BD00002DE9F04704460E46DDE90A0A73
:102BD000DDF83C80089FA26B5FEA08014FF000051A
:102BE00042F40011A1630BD1A16B21F40011A16388
:102BF000216841F040012160216841F0800121609D
:102C00004FF00009C4F8009ED4F800180128C4F859
:102C1000001821D003281FD0D4F8000840F003008A
:102C200002E000BF40F00100C4F800081021204677
:102C300000F0C6FA204600F0B3FAFF2248464FF0F3
:102C400090434FF0FF31C4F81098C4F81498C4F8BA
:102C50001818C4F81C9816E0D4F80008002BE3D02C
:102C6000E0E700BF04EB4511D1F800C9BCF1000F4B
:102C700002DAC1F8003901E0C1F80009C1F8100911
:102C8000C1F808296D1CAE42ECD8002111E000BF4C
:102C900004EB4115D5F800CBBCF1000F02DAC5F802
:102CA000003B01E0C5F8000BC5F8100BC5F8082B78
:102CB000491C8E42ECD8D4F81018012F21F48071F1
:102CC000C4F810180AD11549154AC4F83018D4F8B8
:102CD00030181143C4F83018D4F830186FF0804120
:102CE000A06161611FB9A06940F01000A061A069F6
:102CF000BAF1000F0B4A40EA0200A06103D0A069BC
:102D000040F00800A061B8F1010F03D1A0690649A5
:102D10000843A0610020BDE8F087000000018000AA
:102D20000300010000383C8004000040816821F06D
:102D3000010181600020704730B50B784D784D4C13
:102D4000012D00EB431329D0D3F8105B6FF312056C
:102D5000C3F8105B0B7800EB4313D3F8105B2540EE
:102D6000C3F8105B4B690BB18B684B61012A0B7880
:102D700000EB4312D2F8103B43F40023C2F8103B9F
:102D80000A788C6800EB4212D2F8103BC4F31204AC
:102D900043EA0403C2F8103B5BD060E04D69002DAC
:102DA000D3F810593AD06FF31205C3F810590B78C5
:102DB00000EB4313D3F810592540C3F810594C6960
:102DC0008B689C4200D94B610B7800EB4313D3F81E
:102DD000104944F40024C3F810490B784C6900EB07
:102DE0004313C4F31205D3F810492C43C3F8104918
:102DF000012A27D04A693AB10C78D0F83428012347
:102E0000A3401A43C0F83428097800EB4110D0F8E9
:102E1000001941F00441C0F8001929E02540C3F829
:102E200010590B7800EB4313D3F8104944F40024F5
:102E3000C3F810490B7800EB4313D3F810496FF334
:102E40001204D3E70A780B6900EB4212C2F8143976
:102E5000DAE70B78CA6800EB4313C3F8142B097840
:102E600000EB4110D0F8001B41F00441C0F8001BFA
:102E7000002030BDFFFF07E00023C0F8103B012910
:102E8000D0F8101B41F40021C0F8101BD0F8101B23
:102E900041F01801C0F8101BD0F8101B41F0C041E0
:102EA000C0F8101B05D14FF08021C0F8142BC0F8DA
:102EB000001B002070474A780B78012A00EB431270
:102EC0000BD0D2F8003B23F40013C2F8003BCA78C1
:102ED000032A17D0022A15D01DE0D2F8003923F4B6
:102EE0000013C2F80039CA78032A01D0022A12D18D
:102EF000097800EB4110D0F8001941F08051C0F87A
:102F0000001908E0097800EB4110D0F8001B41F0EF
:102F10008051C0F8001B002070474A780B78012AC6
:102F200000EB431214D0D2F8003B002B05DBD2F8A3
:102F3000003B23F08043C2F8003B097800EB4110CE
:102F4000D0F8001B41F40011C0F8001B00207047AE
:102F5000D2F80039002B05DBD2F8003923F080438A
:102F6000C2F80039097800EB4110D0F8001941F49B
:102F70000011C0F80019E9E7F8B54B786FF060452B
:102F80000E78834C012B00EB46132FD0D3F8106B37
:102F90006FF31206C3F8106B0B7800EB4313D3F8F2
:102FA000106B2640C3F8106B4C69002C7ED08B68E8
:102FB0000F78E618761EB6FBF3F300EB4714D4F84F
:102FC000106B9BB205EAC3452E43C4F8106B8C68A6
:102FD0000D785C4300EB4513D3F8105BC4F3120487
:102FE0002543C3F8105B012A73D0B2E04E6966B383
:102FF000D3F810696FF31206C3F810690B7800EB71
:103000004313D3F810692640C3F810694E698C68E1
:103010000B782644761EB6FBF4F400EB4313D3F88A
:10302000106905EAC4443443C3F810490B784C696D
:1030300000EB4313C4F31205D3F810492C43C3F833
:103040001049CB78012B16D027E0D3F81059254032
:10305000C3F810590B7800EB4313D3F8104944F42C
:103060000024C3F810490B7800EB4313D3F8104940
:103070006FF312040FE00B7800EB4313D3F8104901
:1030800024F0C044C3F810490B7800EB4313D3F885
:10309000104944F00054C3F81049012A12D0CB78EB
:1030A000012B17D04B692BB30D7800E036E0D0F838
:1030B00034380124AC402343C0F83438CB78012B9A
:1030C00008D017E00C780B6900EB4414C4F81439ED
:1030D000F4E738E0D0F80838DB050B7800EB431351
:1030E000D3F8004902D444F0005401E044F0805485
:1030F000C3F800490B7800EB4313D3F8004944F0C0
:103100000444C3F80049CB78012B3ED100928B8A4E
:103110000A78C9689BB200F0E9F836E00B788D6850
:1031200000EB4313D3F8104BC5F312052C43C3F83F
:10313000104B0B7800EB4313D3F8104B44F40024EE
:10314000C3F8104B4FE70B78CA6800EB4313C3F882
:10315000142BCA78012A0FD1D0F80828D2050A7892
:1031600000EB4212D2F8003B02D443F0005301E0DE
:1031700043F08053C2F8003B097800EB4110D0F8CF
:10318000001B41F00441C0F8001B0020F8BD000006
:10319000FFFF07E0816841F0010181600020704776
:1031A000064A102101610021491C914201D90320E6
:1031B00070470369DB06F7D400207047400D030019
:1031C0002023074A43EA811303610021491C9142ED
:1031D00001D90320704703699B06F7D4002070478C
:1031E000400D0300D0F8081811F0060F4FF0000151
:1031F00015D0D0F80828C2F34102012A0CD0D0F82B
:103200000828C2F34102032A06D0D0F80808C0F308
:103210004100022802D002E0032100E0022108461A
:103220007047406900F001007047D0F81818D0F8D6
:103230001C08084080B27047D0F81818D0F81C0855
:103240000840000C704710B5D0F8103800EB41145E
:10325000D0F83428D4F80809CA4002F0010143EA42
:10326000C111084010BD00EB4111D1F8081BD0F886
:103270001408084070474169806908407047D21CB3
:1032800000F580539208002010B503E01C68401C34
:1032900041F8044B9042F9D3084610BD10B5C268FE
:1032A000012922F0C042C26001D021B107E0C1680B
:1032B00041F0005102E0C16841F08041C16032201C
:1032C000FDF77AF8002010BDD0F800284FF4FE6317
:1032D00003EA011322F4FE62C0F80028D0F80018B7
:1032E0001943C0F8001800207047000010B5029C78
:1032F000002C4FF000040DD1DB1C00EB02309A08CB
:1033000000F5805004E000BF51F8043B0360641CEA
:103310009442F9D3002010BDFEE7FEE702E008C8A2
:10332000121F08C1002AFAD170477047002001E03F
:1033300001C1121F002AFBD17047000010B5002800
:1033400021D0114B0022001F196803E0814203D8ED
:103350000A4649680029F9D152B11368841A9C427F
:1033600004D1006818441060104602E0506000E08C
:10337000186039B102680B1A934203D10B681A44E2
:1033800002604968416010BD7001002008B5FDF77A
:103390001FF9FEF7C3FC0A48016841F08001016093
:1033A000016801F080010091016841F001010160B4
:1033B000006800F001000090FEF726FCFEE7000028
:1033C00030380240F0B50B30154D20F007010024D5
:1033D000144A0FE003688B420BD38B4205D95E1A67
:1033E00043184768C3E9006700E04368136002C000
:1033F00004E0021D10680028ECD12046002802D10C
:10340000286808B10020F0BD064A07481060074A46
:10341000121A22F00702C0E9002401202860D7E731
:103420007401002070010020A4190020A01B0020BE
:103430000000000000000000010203040607080964
:103440006034000800000020780100001803000824
:103450002035000878010020281E00002C330008C9
:1034600041130A06320233400114090243130201D8
:1034700025C03209041B01020B1305241610010597
:10348000240110090104240202052406170107057E
:10349000820308151009040133020A1D0705010201
:1034A000432C070581070938442A40072A81071160
:1034B0002B0907440A2204440A16FF4413111F145F
:1034C000087F1E1B08F108411ABB0C1A3D041A5153
:1034D00004C11AF9101AED041A05289AE11C3201E8
:1034E00072101379031B0875041A71041A9D0413D2
:1034F00029211B0859041A65041A8D041AB9041AE3
:1035000009041A35041E0403090412931302021E4F
:103510004083044057C92B02034D9324F40000005C
:04000005080001F9F5
:00000001FF
